S01B0000504944486169725374726169676874656E65722E73726563B8
S11300000C9434000C9451000C9451000C94510045
S11300100C9451000C9451000C9451000C94A001C8
S11300200C9451000C9451000C9451000C946F01E9
S11300300C9451000C9451000C943E010C9451000A
S11300400C9451000C9451000C9451000C945100E8
S11300500C9451000C9451000C9451000C945100D8
S11300600C9451000C94510011241FBECFEFD8E022
S1130070DEBFCDBF12E0A0E0B1E0E2E6F4E202C0F0
S113008005900D92A239B107D9F722E0A2E9B2E0B6
S113009001C01D92A03AB207E1F70E945D000C94E2
S11300A02F120C940000CF93DF93CDB7DEB70E94DC
S11300B07A0B0000DF91CF9108952F923F924F92D7
S11300C05F926F927F928F929F92AF92BF92CF92E4
S11300D0DF92EF92FF920F931F93CF93DF93CDB7ED
S11300E0DEB728970FB6F894DEBF0FBECDBF80E011
S11300F091E090939D0280939C020E94530060E1E2
S113010080E00E94150E61E083E10E94120E689463
S1130110EE24E1F802E028E040E855E260E070E017
S113012080E00E94450E0E94180EA22EB32EC42E0B
S1130130D52EE62EF72E082F192FA982BA82CB824C
S1130140DC82ED82FE820F83188729803A804B80FF
S11301505C806D807E808F8098840F2EF8EEAF2EA9
S1130160F02D0F2EF3E0BF2EF02DC12CD12CE12C5D
S1130170F12C00E010E0222D332D442D552D662D59
S1130180772D882D992D0E947B0E222E332E442EFE
S1130190552E662E772E882E992EA22CB32CC42C85
S11301A0D52CE62CF72C082D192D2A2D3B2D4C2D62
S11301B05D2D6E2D7F2D802F912FA3E60E947C0F45
S11301C009F02CF461E083E10E940F0E04C060E0AA
S11301D083E10E940F0E88858F938F818F938E8188
S11301E08F938D818F938C818F938B818F938A8151
S11301F08F9389818F938CE792E0892F8F938CE77B
S113020092E08F930E94880F8DB79EB70A960FB61F
S1130210F894DEBF0FBECDBF86CFCF93DF9300D05F
S11302201F92CDB7DEB789837B836A8389818A3045
S113023019F48DE00E94270189810E94270180E042
S113024090E00F900F900F90DF91CF910895CF938E
S1130250DF931F92CDB7DEB78983698180E00E9466
S1130260540E00000F90DF91CF910895CF93DF9348
S1130270CDB7DEB70000DF91CF9108951F920F92A2
S113028000905F000F9211242F933F934F935F933D
S11302906F937F938F939F93AF93BF93EF93FF934A
S11302A0CF93DF93CDB7DEB780914E0290914F028A
S11302B0FC0109950000DF91CF91FF91EF91BF916F
S11302C0AF919F918F917F916F915F914F913F91EA
S11302D02F910F9000925F000F901F9018951F921E
S11302E00F9200905F000F9211242F933F934F932E
S11302F05F936F937F938F939F93AF93BF93EF938A
S1130300FF93CF93DF93CDB7DEB7809170029091C6
S11303107102FC0109950000DF91CF91FF91EF91EB
S1130320BF91AF919F918F917F916F915F914F9109
S11303303F912F910F9000925F000F901F9018959E
S11303401F920F9200905F000F9211242F933F93FE
S11303504F935F936F937F938F939F93AF93BF93C9
S1130360EF93FF93CF93DF93CDB7DEB780915C0219
S113037090915D02FC0109950000DF91CF91FF91FE
S1130380EF91BF91AF919F918F917F916F915F9109
S11303904F913F912F910F9000925F000F901F900B
S11303A01895CF93DF93CDB7DEB72F970FB6F89498
S11303B0DEBF0FBECDBF8E876F878E8518160CF0FB
S11303C046C08E858D310CF042C08E85082E000CFF
S11303D0990B9C01215031094BE0429FC001439F7E
S11303E0900D1124825F9E4F2BE0FC01DE011396D9
S11303F001900D922A95E1F781E09F85913009F0F3
S113040080E089838C819D81FC0180818A838C8139
S11304109D812A85422F50E021E030E002C0220F66
S1130420331F4A95E2F7322F30952A81632F6223D6
S11304302981222F30E04A85442F50E002C0220F48
S1130440331F4A95E2F7262BFC01208301C00000EC
S11304502F960FB6F894DEBF0FBECDBFDF91CF91BC
S11304600895CF93DF93CDB7DEB72F970FB6F894E7
S1130470DEBF0FBECDBF8E876F878E8518160CF03A
S113048046C08E858D310CF042C08E85082E000C3E
S1130490990B9C01215031094BE0429FC001439FBD
S11304A0900D1124825F9E4F2BE0FC01DE01139618
S11304B001900D922A95E1F781E09F85913009F032
S11304C080E0898388859985FC0180818A83888579
S11304D099852A85422F50E021E030E002C0220FA6
S11304E0331F4A95E2F7322F30952A81632F622316
S11304F02981222F30E04A85442F50E002C0220F88
S1130500331F4A95E2F7262BFC01208301C000002B
S11305102F960FB6F894DEBF0FBECDBFDF91CF91FB
S11305200895EF920F93CF93DF93CDB7DEB72A9759
S11305300FB6F894DEBF0FBECDBF8B834C835D83B3
S11305406E837F8328870987EA8680E492E4AFE09C
S1130550B0E02C813D814E815F81BC01CD010E94C0
S1130560590EDA01C90101979A83898385EC90E0D9
S113057029813A81232F3327FC01208384EC90E0E6
S11305802981FC01208381EC90E028E1FC01208397
S113059082EC90E02EE0FC01208300002A960FB646
S11305A0F894DEBF0FBECDBFDF91CF910F91EF90D6
S11305B00895CF93DF9300D0CDB7DEB789836A83E4
S11305C0000080EC90E0FC018081882F90E0807234
S11305D09927892BB1F386EC90E02A81FC012083D2
S11305E000000F900F90DF91CF910895AF92BF92CA
S11305F0CF92DF92EF92FF920F931F93CF93DF93EB
S1130600CDB7DEB7A0909202B0909302C09094024E
S1130610D0909502E0909602F09097020091980293
S1130620109199022A2D3B2D4C2D5D2D6E2D7F2D81
S1130630802F912FA1E00E94700FA22EB32EC42E02
S1130640D52EE62EF72E082F192FA0929202B092E3
S11306509302C0929402D0929502E0929602F09294
S1130660970200939802109399020000DF91CF91B2
S11306701F910F91FF90EF90DF90CF90BF90AF90BC
S11306800895EF92FF920F931F93CF93DF9300D0BF
S1130690CDB7DEB789836A838A81282F30E08981C8
S11306A0882F90E0B9010E944D0A8A81682F70E07A
S11306B08981882F90E00F2EF8EEEF2EF02D0F2E6B
S11306C0F3E0FF2EF02D00E010E020E030E040E009
S11306D050E00E94850A8A81282F30E08981882F82
S11306E090E046EF52E0B9010E94E40A00000F9046
S11306F00F90DF91CF911F910F91FF90EF9008958C
S1130700AF92BF92CF92DF92EF92FF920F931F931B
S1130710CF93DF93CDB7DEB720919202309193024D
S113072040919402509195026091960270919702C3
S11307308091980290919902A22EB32EC42ED52EA8
S1130740E62EF72E082F192F2A2D3B2D4C2D5D2D2B
S11307506E2D7F2D802F912FDF91CF911F910F91BF
S1130760FF90EF90DF90CF90BF90AF9008956F927D
S11307707F928F929F92AF92BF92CF92DF92EF922D
S1130780FF920F931F93CF93DF93CDB7DEB7C75577
S1130790D1090FB6F894DEBF0FBECDBFFE01E15BF9
S11307A0FF4F8083CE01805B9F4FFC010083FC01DF
S11307B01183FC012283FC013383FC014483FC018B
S11307C05583FC016683FC017783CE01815B9F4FD7
S11307D0FC018081823008F0FCC2CE01815B9F4F16
S11307E0FC018081882F90E09C01C901880F991F2A
S11307F09C01C901880F991F880F991F880F991FA1
S1130800821B930B8E5B9D4F21E0FC01208328E229
S1130810CE014396FC01322F11923A95E9F724E177
S1130820CE01CB96FC01322F11923A95E9F78FEF66
S11308309FEFAFE7BFE78BAF9CAFADAFBEAF198201
S113084028C18981882E912C8981882F90E0880F76
S1130850991F8E589D4FFC0180819181CC01A0E0AD
S1130860B0E0BC01CD010E94A20C6B017C01FE0131
S1130870E05BFF4F20813181428153816481758126
S1130880868197810E94DF0CDC01CB019C01AD01C4
S1130890C701B6010E94A20DDC01CB019C01AD0190
S11308A060E074E284E79BE40E94F40BDC01CB017A
S11308B020E030E040E051E4BC01CD010E94A20DF3
S11308C0DC01CB0120E030E040E85FE3BC01CD0176
S11308D00E94820BDC01CB01BC01CD010E946B0C98
S11308E0A22EB32EC42ED52EE62EF72E082F192FA6
S11308F0C401880F991F880F991F880F991F9E01A3
S11309002F5F3F4F820F931F4296FC01A082FC0190
S1130910B182FC01C282FC01D382FC01E482FC01AD
S1130920F582FC010683FC0117838981882F90E0FE
S1130930880F991F8E589D4FFC0180819181CC01B5
S1130940A0E0B0E0BC01CD010E94A20C3B014C012F
S11309508981882F90E0880F991F880F991F880F2D
S1130960991F9E012F5F3F4F820F931F4296FC01F8
S1130970A080FC01B180FC01C280FC01D380FC0199
S1130980E480FC01F580FC010681FC0117812A2D1D
S11309903B2D4C2D5D2D6E2D7F2D802F912F0E9490
S11309A0DF0CDC01CB0120E030E040E85FE3BC0178
S11309B0CD010E94830BDC01CB019C01AD01C4017C
S11309C0B3010E94A20DDC01CB019C01AD0160E0EA
S11309D074E284E79BE40E94F40BDC01CB0120E089
S11309E030E040E051E4BC01CD010E94A20DDC01E5
S11309F0CB018D879E87AF87B88BFE01E05BFF4FED
S1130A0020813181428153816481758186819781FE
S1130A100E94DF0CDC01CB019C01AD016D857E855C
S1130A208F8598890E94820BDC01CB018A839B838A
S1130A30AC83BD8320E030E0A9016A817B818C8195
S1130A409D810E94EF0B88234CF48A819B81AC81A9
S1130A50BD81B0588A839B83AC83BD838981882FF1
S1130A6090E0880F991F880F991F9E012F5F3F4FB9
S1130A70820F931F9C01265C3F4F8A819B81AC812E
S1130A80BD81F90180839183A283B38389818F5FC0
S1130A9089838981853008F4D4CE84E08E838E8165
S1130AA0882F90E0880F991F880F991F9E012F5F50
S1130AB03F4F820F931FCA96FC0180819181A281CE
S1130AC0B3818F839887A987BA871B8668C08B8573
S1130AD0882F90E0880F991F880F991F880F991FFE
S1130AE09E012F5F3F4F820F931F4296FC01A0800F
S1130AF0FC01B180FC01C280FC01D380FC01E480D4
S1130B00FC01F580FC010681FC0117812A2D3B2D97
S1130B104C2D5D2D6E2D7F2D802F912F2E3F310575
S1130B2041055105610571058105910509F0A0F59F
S1130B308B85882F90E0880F991F880F991F9E013D
S1130B402F5F3F4F820F931FCA96FC0180819181D2
S1130B50A281B3812F81388549855A85BC01CD0195
S1130B600E94EF0B1816C4F08B85882F90E0880F35
S1130B70991F880F991F9E012F5F3F4F820F931F6C
S1130B80CA96FC0180819181A281B3818F83988769
S1130B90A987BA878B858E838B858F5F8B878B859F
S1130BA0853008F494CFCE01815B9F4FFC01808196
S1130BB0882F90E09C01C901880F991F9C01C901ED
S1130BC0880F991F880F991F880F991F821B930BF9
S1130BD08A5B9D4FFC0140815181CE01815B9F4F17
S1130BE0FC018081882F90E09C01C901880F991F26
S1130BF09C01C901880F991F880F991F880F991F9D
S1130C00821B930B8A5B9D4FFC0180819181FC01C7
S1130C108081877FFA018083CE01815B9F4FFC0135
S1130C208081882F90E09C01C901880F991F9C0145
S1130C30C901880F991F880F991F880F991F821B5C
S1130C40930B8C5B9D4FFC0180819181FC01808121
S1130C50898BCE01815B9F4FFC018081882F90E0BE
S1130C609C01C901880F991F9C01C901880F991F14
S1130C70880F991F880F991F821B930B8C5B9D4FC4
S1130C80FC0180819181298922602E7FFC012083CF
S1130C90CE01815B9F4FFC018081882F90E09C01F5
S1130CA0C901880F991F9C01C901880F991F880FDA
S1130CB0991F880F991F821B930B865B9D4FFC0124
S1130CC0A081B1818E81882F90E0880F991F880FB1
S1130CD0991F880F991F9E012F5F3F4F820F931F0B
S1130CE0FC01729620813181428153816481758136
S1130CF086819781822F8C931C868E81882F90E029
S1130D00880F991F8E589D4FFC01808191818034FA
S1130D109105B9F08134910530F48130910559F091
S1130D20089761F017C08115F1E09F0769F08115FC
S1130D30944069F00FC081E08C870CC082E08C87FE
S1130D4009C083E08C8706C084E08C8703C085E0FB
S1130D508C870000CE01815B9F4FFC018081882F2E
S1130D6090E09C01C901880F991F9C01C901880F5B
S1130D70991F880F991F880F991F821B930B8A5BF9
S1130D809D4FFC0180819181FC0180818A8BCE0181
S1130D90815B9F4FFC018081882F90E09C01C901F9
S1130DA0880F991F9C01C901880F991F880F991FEB
S1130DB0880F991F821B930B8A5B9D4FFC018081D6
S1130DC091812A89322F387F2C85232BFC012083A3
S1130DD001C00000C95ADF4F0FB6F894DEBF0FBE42
S1130DE0CDBFDF91CF911F910F91FF90EF90DF90D6
S1130DF0CF90BF90AF909F908F907F906F90089509
S1130E006F927F928F929F92AF92BF92CF92DF9216
S1130E10EF92FF920F931F93CF93DF93CDB7DEB77B
S1130E20C655D1090FB6F894DEBF0FBECDBFFE0183
S1130E30E25BFF4F8083CE01815B9F4FDC010C930B
S1130E40FC011183DC0112962C93FC013383DC0139
S1130E5014964C93FC015583DC0116966C93FC01AB
S1130E607783CE01825B9F4FDC018C91823008F046
S1130E70FDC2CE01825B9F4FFC018081282F30E0B0
S1130E8044E1429FC001439F900D1124825A9D4F1B
S1130E9021E0DC012C9328E2CE014296FC01322FA2
S1130EA011923A95E9F724E1CE01CA96DC01E22FCA
S1130EB01D92EA95E9F78FEF9FEFAFE7BFE78AAF9F
S1130EC09BAFACAFBDAF19821BC18981882E912C19
S1130ED08981882F90E0880F991F8E589D4FDC01DF
S1130EE08D919C91CC01A0E0B0E0BC01CD010E94A9
S1130EF0A20C6B017C01FE01E15BFF4F208131817B
S1130F004281538164817581868197810E94DF0CBF
S1130F10DC01CB019C01AD01C701B6010E94A20D09
S1130F20DC01CB019C01AD0160E074E284E79BE449
S1130F300E94F40BDC01CB0120E030E040E85FE3E9
S1130F40BC01CD010E94820BDC01CB01BC01CD01AF
S1130F500E946B0CA22EB32EC42ED52EE62EF72E95
S1130F60082F192FC401880F991F880F991F880F04
S1130F70991F9E012F5F3F4F820F931F4196FC01E3
S1130F80A082DC011196BC92FC01C282DC011396A2
S1130F90DC92FC01E482DC011596FC92FC010683E0
S1130FA0DC0117961C938981882F90E0880F991F84
S1130FB08E589D4FFC0180819181CC01A0E0B0E06E
S1130FC0BC01CD010E94A20C3B014C018981882FF8
S1130FD090E0880F991F880F991F880F991F9E0111
S1130FE02F5F3F4F820F931F4196DC01AC90FC01B1
S1130FF0B180DC011296CC90FC01D380DC01149604
S1131000EC90FC01F580DC0116960C91FC01178133
S11310102A2D3B2D4C2D5D2D6E2D7F2D802F912F54
S11310200E94DF0CDC01CB0120E030E040E85FE30C
S1131030BC01CD010E94830BDC01CB019C01AD01FD
S1131040C401B3010E94A20DDC01CB019C01AD01DE
S113105060E074E284E79BE40E94F40BDC01CB01C2
S11310608D879E87AF87B88BFE01E15BFF4F2081A0
S113107031814281538164817581868197810E9487
S1131080DF0CDC01CB019C01AD016D857E858F8574
S113109098890E94820BDC01CB018A839B83AC83F9
S11310A0BD8320E030E0A9016A817B818C819D8130
S11310B00E94EF0B88234CF48A819B81AC81BD8113
S11310C0B0588A839B83AC83BD838981882F90E049
S11310D0880F991F880F991F9E012F5F3F4F820F22
S11310E0931F9C01275C3F4F8A819B81AC81BD810A
S11310F0F90180839183A283B38389818F5F89837C
S11311008981853008F4E1CE84E08E838E81882F36
S113111090E0880F991F880F991F9E012F5F3F4F02
S1131120820F931FC996FC0180819181A281B381B2
S11311308F839887A987BA871B866BC08B85882F76
S113114090E0880F991F880F991F880F991F9E019F
S11311502F5F3F4F820F931F4196DC01AC90FC013F
S1131160B180DC011296CC90FC01D380DC01149692
S1131170EC90FC01F580DC0116960C91FC011781C2
S11311802A2D3B2D4C2D5D2D6E2D7F2D802F912FE3
S11311902E3F3F4F410551056105710581059105BC
S11311A009F0A0F58B85882F90E0880F991F880F90
S11311B0991F9E012F5F3F4F820F931FC996FC0119
S11311C080819181A281B3812F81388549855A8597
S11311D0BC01CD010E94EF0B1816C4F08B85882F3B
S11311E090E0880F991F880F991F9E012F5F3F4F32
S11311F0820F931FC996FC0180819181A281B381E2
S11312008F839887A987BA878B858E838B858F5F19
S11312108B878B85853008F491CFCE01825B9F4FFD
S1131220DC018C91282F30E044E1429FC001439FB0
S1131230900D11248E599D4FFC01808191819E0156
S1131240225B3F4FD9012C91422F50E064E1649F0F
S11312509001659F300D11242E593D4FF9012081D5
S11312603181D9012C91277E2860FC012083CE0195
S1131270825B9F4FDC018C91282F30E044E1429F38
S1131280C001439F900D1124805A9D4FFC01808121
S113129091819E01225B3F4FD9012C91422F50E056
S11312A064E1649F9001659F300D1124205A3D4FE5
S11312B0F90120813181D9012C912C7FFC012083FB
S11312C0CE01825B9F4FDC018C91282F30E044E1FA
S11312D0429FC001439F900D112486599D4FDC010C
S11312E0ED91FC918E81882F90E0880F991F880FD3
S11312F0991F880F991F9E012F5F3F4F820F931FE5
S11313004196DC01AC90DC011196BC90DC01129694
S1131310CC90DC011396DC90DC011496EC90DC019B
S11313201596FC90DC0116960C91DC0117961C9125
S11313302A2D3B2D4C2D5D2D6E2D7F2D802F912F31
S113134008E00E94540FA22EB32EC42ED52EE62EF2
S1131350F72E082F192F8A2D8083CE01825B9F4F91
S1131360FC018081282F30E044E1429FC001439F6B
S1131370900D112488599D4FFC01A081B1818E816B
S1131380882F90E0880F991F880F991F880F991F45
S11313909E012F5F3F4F820F931FFC0171962081A6
S11313A03181428153816481758186819781822F45
S11313B08C931C868E81882F90E0880F991F8E58FD
S11313C09D4FDC018D919C9180349105B9F081345D
S11313D0910530F48130910559F0089761F017C0F8
S11313E08115B1E09B0769F08115944069F00FC045
S11313F081E08C870CC082E08C8709C083E08C87F5
S113140006C084E08C8703C085E08C870000CE0191
S1131410825B9F4FDC018C91282F30E044E1429F96
S1131420C001439F900D11248E599D4FFC01808172
S11314309181DC018C91898BCE01825B9F4FFC01F1
S11314408081282F30E044E1429FC001439F900DEA
S113145011248E599D4FDC018D919C912989322F45
S1131460387F2C85232BFC01208301C00000CA5A3D
S1131470DF4F0FB6F894DEBF0FBECDBFDF91CF9123
S11314801F910F91FF90EF90DF90CF90BF90AF909E
S11314909F908F907F906F900895CF93DF9300D0AB
S11314A0CDB7DEB789836A838A818930B8F48981AC
S11314B0882F90E09C01C901880F991F9C01C901E4
S11314C0880F991F880F991F880F991F821B930BF0
S11314D08E5B9D4F21E0FC01208311C08A81813104
S11314E070F48981282F30E044E1429FC001439F7A
S11314F0900D1124825A9D4F21E0FC0120830000AD
S11315000F900F90DF91CF9108958F929F92AF9299
S1131510BF92CF92DF92EF92FF920F931F93CF93DC
S1131520DF93CDB7DEB72A970FB6F894DEBF0FBEB0
S1131530CDBF89836A83EB82FC820D831E832F8354
S1131540388749875A878A818930A0F48B809C80A8
S1131550AD80BE80CF80D884E984FA84082D192D0B
S11315602A2D3B2D4C2D5D2D6E2D7F2D89810E94C2
S1131570B70316C08A81813198F48B809C80AD803A
S1131580BE80CF80D884E984FA84082D192D2A2DB1
S11315903B2D4C2D5D2D6E2D7F2D89810E940007E2
S11315A000002A960FB6F894DEBF0FBECDBFDF91C0
S11315B0CF911F910F91FF90EF90DF90CF90BF904C
S11315C0AF909F908F900895CF93DF9300D000D079
S11315D0CDB7DEB789836A835C834B838A81893084
S11315E008F04BC08981882F90E09C01C901880FC5
S11315F0991F9C01C901880F991F880F991F880F93
S1131600991F821B930B825B9D4F2B813C81FC01B4
S1131610318320838981882F90E09C01C901880F40
S1131620991F9C01C901880F991F880F991F880F62
S1131630991F821B930B885B9D4FFC014081518154
S11316408981882F90E09C01C901880F991F9C0112
S1131650C901880F991F880F991F880F991F821B32
S1131660930B885B9D4FFC0180819181FC018081FB
S11316708260FA018083789435C08A81813190F543
S11316808981282F30E044E1429FC001439F900D9F
S1131690112480599D4F2B813C81FC01318320838F
S11316A08981282F30E044E1429FC001439F900D7F
S11316B011248A599D4FFC01808191812981422FF7
S11316C050E064E1649F9001659F300D11242A5914
S11316D03D4FF90120813181F90120812260FC0113
S11316E02083789400000F900F900F900F90DF915B
S11316F0CF910895CF93DF93CDB7DEB70000DF918C
S1131700CF9108955058BB27AA270E949A0B0C9496
S1131710680D0E945A0D38F00E94610D20F039F4D2
S11317209F3F19F426F40C94470D0EF4E095E7FB63
S11317300C94410DE92F0E94790D58F3BA176207F2
S113174073078407950720F079F4A6F50C949B0D94
S11317500EF4E0950B2EBA2FA02D0B01B9019001C8
S11317600C01CA01A0011124FF27591B99F0593F0C
S113177050F4503E68F11A16F040A22F232F342F54
S11317804427585FF3CF469537952795A795F040A2
S11317905395C9F77EF41F16BA0B620B730B840BB7
S11317A0BAF09150A1F0FF0FBB1F661F771F881F6F
S11317B0C2F70EC0BA0F621F731F841F48F48795C7
S11317C077956795B795F7959E3F08F0B0CF9395B9
S11317D0880F08F09927EE0F9795879508950E9432
S11317E01D0D08F481E008950E94080C0C94680D06
S11317F00E94610D58F00E945A0D40F029F45F3F99
S113180029F00C94410D51110C949C0D0C94470D2E
S11318100E94790D68F39923B1F3552391F3951B35
S1131820550BBB27AA2762177307840738F09F5FFD
S11318305F4F220F331F441FAA1FA9F335D00E2E6A
S11318403AF0E0E832D091505040E695001CCAF7D7
S11318502BD0FE2F29D0660F771F881FBB1F26179A
S113186037074807AB07B0E809F0BB0B802DBF0171
S1131870FF2793585F4F3AF09E3F510578F00C9440
S1131880410D0C949C0D5F3FE4F3983ED4F3869590
S113189077956795B795F7959F5FC9F7880F911D61
S11318A09695879597F90895E1E0660F771F881F4D
S11318B0BB1F621773078407BA0720F0621B730B00
S11318C0840BBA0BEE1F88F7E0950895BEE304D0AD
S11318D008F490E80895BFE322273327A9010E9462
S11318E0810D60F19F5748F1B91740F1BFE3B91B6F
S11318F09927B8503AF4660F771F881F991FB3953C
S1131900D2F316C0B8504AF0232F342F452F562F48
S1131910672F782F8827B850BAF7B85F49F08695B3
S1131920779567955795479537952795BA95B9F75C
S113193016F40E944A0D88940895889460E070E03B
S1131940CB010895E89409C097FB3EF490958095E7
S1131950709561957F4F8F4F9F4F9923A9F0F92F71
S113196096E9BB279395F695879577956795B795EF
S1131970F111F8CFFAF4BB0F11F460FF1BC06F5FD5
S11319807F4F8F4F9F4F16C0882311F096E911C0E7
S1131990772321F09EE8872F762F05C0662371F008
S11319A096E8862F70E060E02AF09A95660F771F1C
S11319B0881FDAF7880F9695879597F90895E89424
S11319C0F92F96EBFF2381F0121613061406440B2D
S11319D09395F69587957795679557954040FF239E
S11319E0B9F71BC099270895882351F49850D2F76A
S11319F0872B762F652F542F432F322F20E0B1F3FE
S1131A00121613061406440B88233AF09A95440FD1
S1131A10551F661F771F881FCAF755234AF4440FC2
S1131A20551F11F460FF04C06F5F7F4F8F4F9F4FAE
S1131A30880F9695879597F90895990F0008550F83
S1131A40AA0BE0E8FEEF16161706E807F907C0F040
S1131A5012161306E407F50798F0621B730B840B48
S1131A60950B39F40A2661F0232B242B252B21F422
S1131A7008950A2609F4A140A6958FEF811D811DC2
S1131A80089597F99F6780E870E060E008959FEFFC
S1131A9080EC08959095809570956095509540954B
S1131AA0309521953F4F4F4F5F4F6F4F7F4F8F4F73
S1131AB09F4F089500240A9416161706180609065F
S1131AC0089500240A9412161306140605060895B0
S1131AD0092E0394000C11F4882352F0BB0F40F438
S1131AE0BF2B11F460FF04C06F5F7F4F8F4F9F4F78
S1131AF0089557FD9058440F551F59F05F3F71F0FA
S1131B004795880F97FB991F61F09F3F79F0879560
S1131B100895121613061406551FF2CF4695F1DFE9
S1131B2008C0161617061806991FF1CF8695710579
S1131B30610508940895E894BB2766277727CB01AD
S1131B4097F908950E94B50D0C94680D0E945A0DE2
S1131B5038F00E94610D20F0952311F00C94410D92
S1131B600C94470D11240C949C0D0E94790D70F374
S1131B70959FC1F3950F50E0551F629FF001729F2E
S1131B80BB27F00DB11D639FAA27F00DB11DAA1F3D
S1131B90649F6627B00DA11D661F829F2227B00D8A
S1131BA0A11D621F739FB00DA11D621F839FA00D15
S1131BB0611D221F749F3327A00D611D231F849F65
S1131BC0600D211D822F762F6A2F11249F575040BC
S1131BD09AF0F1F088234AF0EE0FFF1FBB1F661F37
S1131BE0771F881F91505040A9F79E3F510580F000
S1131BF00C94410D0C949C0D5F3FE4F3983ED4F398
S1131C00869577956795B795F795E7959F5FC1F7A3
S1131C10FE2B880F911D9695879597F908950E943C
S1131C20D10108950E94310208950E94410308954C
S1131C30CF93DF93CDB7DEB728970FB6F894DEBF06
S1131C400FBECDBF19821A821B821C821D821E8286
S1131C501F8218860E94800329833A834B835C8306
S1131C606D837E838F83988729813A814B815C8140
S1131C706D817E818F81988528960FB6F894DEBF9A
S1131C800FBECDBFDF91CF910895EF92FF920F93D6
S1131C901F93F12C10E030E090E00E9491021F911C
S1131CA00F91FF90EF90089570E090E00E94D902A8
S1131CB00895A1E21A2EAA1BBB1BFD010DC0AA1F89
S1131CC0BB1FEE1FFF1FA217B307E407F50720F0A1
S1131CD0A21BB30BE40BF50B661F771F881F991F1C
S1131CE01A9469F760957095809590959B01AC0165
S1131CF0BD01CF010895689401C0E894F92FF12B38
S1131D0012F00C94AF0EA0E0B0E0E9E8FEE00C9411
S1131D10210F092E059422F40E940B0F112392F433
S1131D20F0E80F26FFEFE094F09400951095B0943E
S1131D30C094D094A194BF0ACF0ADF0AEF0AFF0A25
S1131D400F0B1F0B0E94BA0E07FC0E940B0FCDB79E
S1131D50DEB7ECE00C943D0F689401C0E8948F92D8
S1131D609F92CF93DF930E94BA0EDF91CF919F9001
S1131D708F90089588249924F401E401B0E49F939A
S1131D80AA279A158B049C04ED05FE05CF05D00700
S1131D90A10798F4AD2FDC2FCF2FFE2FE92D982C1F
S1131DA0892E982F872F762F652F542F432F322F6C
S1131DB02227B85031F7BF9127C01B2EBF91BB27F4
S1131DC0220F331F441F551F661F771F881F991F3B
S1131DD0881C991CEE1FFF1FCC1FDD1FAA1FBB1FF1
S1131DE08A149B04EC05FD05CE05DF05A007B107A9
S1131DF048F08A189B08EC09FD09CE09DF09A00BFD
S1131E00B10B21601A94E1F62EF49401AF01BE01E6
S1131E10CD01000C0895609570958095909530954E
S1131E204095509521953F4F4F4F5F4F6F4F7F4FD8
S1131E308F4F9F4F08952F923F924F925F926F92D0
S1131E407F928F929F92AF92BF92CF92DF92EF9246
S1131E50FF920F931F93CF93DF93CDB7DEB7CA1BC7
S1131E60DB0B0FB6F894DEBF0FBECDBF09942A88F2
S1131E70398848885F846E847D848C849B84AA849A
S1131E80B984C884DF80EE80FD800C811B81AA8127
S1131E90B981CE0FD11D0FB6F894DEBF0FBECDBFF2
S1131EA0ED01089597FB10F8169400080F9308307D
S1131EB098F00850232F342F452F562F672F782F53
S1131EC0892F902DF4CF05949795879577956795ED
S1131ED057954795379527950A95AAF70F91089531
S1131EE00024A7FD00942A0F301D401D501D601DC5
S1131EF0701D801D901D08950024A7FD00942A17CD
S1131F00300540055005600570058005900508956D
S1131F10A0E0B0E0EEE8FFE00C942B0FAE014B5FC5
S1131F205F4FFA0161917191AF0180919C02909190
S1131F309D020E949E0FE2E00C94470FABE0B0E0DC
S1131F40E4EAFFE00C941B0F6C017B018A01FC01A5
S1131F5017821682838181FFCCC1CE0101963C0198
S1131F60F6019381F70193FD859193FF81917F01A0
S1131F70882309F4BAC1853239F493FD859193FF1E
S1131F8081917F01853229F4B60190E00E94951178
S1131F90E7CF912C212C312CFFE1F315D8F08B32B3
S1131FA079F038F4803279F08332A1F4232D206162
S1131FB01DC08D3261F0803369F4232D216016C079
S1131FC0832D8260382EE32DE4603E2E2AC0F32D4B
S1131FD0F8601DC037FC2DC020ED280F2A3040F0DA
S1131FE08E32B9F436FC81C1232D2064322E19C0FF
S1131FF036FE06C08AE0989E200D1124922E11C050
S1132000EAE02E9E200D1124222EF32DF0623F2EA5
S113201008C08C3621F4832D8068382E02C088369F
S113202041F4F70193FD859193FF81917F01811123
S1132030B3CF982F9F7D9554933028F40C5F1F4F96
S11320409FE399830DC0833631F0833771F0833574
S113205009F059C021C0F801808189830E5F1F4FA8
S113206088248394912C530113C02801F2E04F0E6D
S1132070511CF801A080B18036FE03C0692D70E0C8
S113208002C06FEF7FEFC5010E948A114C018201EB
S1132090F32DFF773F2E16C0280122E0420E511C7B
S11320A0F801A080B18036FE03C0692D70E002C043
S11320B06FEF7FEFC5010E947F114C01F32DF06893
S11320C03F2E820133FC1BC0822D90E088169906B6
S11320D0B0F4B60180E290E00E9495112A94F4CF06
S11320E0F50137FC859137FE81915F01B60190E0DF
S11320F00E94951121102A9421E0821A91088114DA
S1132100910471F7E8C0843611F0893641F5F8017D
S113211037FE07C060817181828193810C5F1F4FFC
S113212008C060817181072E000C880B990B0E5F2B
S11321301F4FF32DFF763F2E97FF09C09095809592
S1132140709561957F4F8F4F9F4FF0683F2E2AE027
S113215030E0A3010E94D111882E861845C085372E
S113216031F4232D2F7EB22E2AE030E025C0932DAA
S1132170997FB92E8F36C1F018F4883579F0B5C03F
S1132180803719F0883721F0B0C0E92FE061BE2E06
S1132190B4FE0DC0FB2DF460BF2E09C034FE0AC08E
S11321A0292F2660B22E06C028E030E005C020E1C9
S11321B030E002C020E132E0F801B7FE07C06081E0
S11321C07181828193810C5F1F4F06C06081718190
S11321D080E090E00E5F1F4FA3010E94D111882E72
S11321E08618FB2DFF773F2E36FE0DC0232D2E7F44
S11321F0A22E891458F434FE0BC032FC09C0832D7E
S11322008E7EA82E05C0B82CA32C03C0B82C01C008
S1132210B92CA4FE0FC0FE01E80DF11D80818033AE
S113222021F49A2D997EA92E09C0A2FE06C0B3946A
S1132230B39404C08A2D867809F0B394A3FC11C02A
S1132240A0FE06C0B21488F4280C922C9B180EC071
S1132250B21460F4B60180E290E00E949511B39448
S1132260F7CFB21418F42B1802C0982C212CA4FE1A
S113227010C0B60180E390E00E949511A2FE17C041
S1132280A1FC03C088E790E002C088E590E0B601B5
S11322900CC08A2D867859F0A1FE02C08BE201C0E1
S11322A080E2A7FC8DE2B60190E00E9495118914AA
S11322B038F4B60180E390E00E9495119A94F7CF28
S11322C08A94F301E80DF11D8081B60190E00E942B
S11322D095118110F5CF222009F442CEB60180E297
S11322E090E00E9495112A94F6CFF6018681978199
S11322F002C08FEF9FEF2B96E2E10C94370FFC01A5
S11323000590615070400110D8F7809590958E0F1C
S11323109F1F0895FC016150704001900110D8F78F
S1132320809590958E0F9F1F08950F931F93CF93C1
S1132330DF93FB01238121FD03C08FEF9FEF2CC0AE
S113234022FF16C0468157812481358142175307E5
S113235044F4A081B1819D012F5F3F4F31832083DD
S11323608C93268137812F5F3F4F3783268314C098
S11323708B01EC01FB010084F185E02D0995892B8B
S1132380E1F6D80116968D919C91179701961796B0
S11323909C938E931697CE01DF91CF911F910F914D
S11323A00895FA01AA27283051F1203181F1E894E7
S11323B06F936E7F6E5F7F4F8F4F9F4FAF4FB1E034
S11323C03ED0B4E03CD0670F781F891F9A1FA11D2F
S11323D0680F791F8A1F911DA11D6A0F711D811D30
S11323E0911DA11D20D009F468943F912AE0269FF5
S11323F011243019305D3193DEF6CF010895462F54
S11324004770405D4193B3E00FD0C9F7F6CF462F34
S11324104F70405D4A3318F0495D31FD405241939D
S113242002D0A9F7EACFB4E0A6959795879577955A
S11324306795BA95C9F700976105710508959B01E1
S1132440AC010A2E06945795479537952795BA956A
S1132450C9F7620F731F841F951FA01D0895F89478
S1052460FFCFA8
S113246200000002000000000D010000000001282D
S1132472002600270006FFFFFF012B0029002A0087
S113248200FFFFFF012B0029002A0001FFFFFF01CB
S11324922B0029002A0002FFFFFF012B0029002A3A
S11324A200030201FF012B0029002A0004FFFFFFA1
S11324B20000000000000000FFFFFF000000000019
S11324C2000000FFFFFF0125002300240006FFFF98
S11324D2FF0125002300240007FFFFFF012B002931
S11324E2002A00050001FF012B0029002A00060032
S11324F200FF012B0029002A0007FFFFFF0125002E
S11325022300240000FFFFFF012500230024000113
S11325120100FF01250023002400020101FF01251F
S11325220023002400030200FF01250023002400ED
S113253204FFFFFF0125002300240005FFFFFF0025
S113254200000000000000FFFFFF00000000000088
S11325520000FFFFFF0000000000000000FFFFFF7B
S11325620128002600270000FFFF000128002600A2
S1132572270001FFFF010128002600270002FFFFB8
S1132582020128002600270003FFFF03012800267A
S113259200270004FFFF040128002600270005FF8E
S11325A2FF050000440045006E0047004800360164
S11325B20000B000B1007000B300B40036010000A6
S11325C28000810082006F00880089008A008B00ED
S11325D236010100080040000001000463757272B4
S11325E2656E742074696D652069733A2025640AE6
S10525F20000E3
S9030000FC
