:020000040000FA
:1000000028020020C10000002B0100002D0100008B
:10001000FFFFFFFFFFFFFFFFFFFFFFFFFFFFFFFFF0
:10002000FFFFFFFFFFFFFFFFFFFFFFFF2F010000AC
:10003000FFFFFFFFFFFFFFFF31010000A9020000EB
:1000400035010000350100003501000035010000D8
:1000500035010000350100003501000035010000C8
:1000600035010000FFFFFFFF3501000035010000F2
:10007000350100003501000035010000FFFFFFFFE2
:10008000FFFFFFFF350100003501000035010000D2
:100090003501000035010000350100003501000088
:1000A0003501000035010000350100003501000078
:1000B0003501000035010000350100003501000068
:1000C0001D4880471D4880471D4800471D4801695D
:1000D000002908D14169002905D18169002902D18F
:1000E000C169002909D01848C1680901090D002912
:1000F0000ED005290CD006290AD0BFF34F8F134824
:100100001349016013491248C860BFF34F8FFEE7DF
:100110000E4801680E48884200D070470E480F49CB
:1001200001600A480E4901607047FEE7FEE7FEE7FE
:10013000FEE7FEE7FEE70000CD000000C50200007C
:100140006501000000030840800108400000002015
:100150000400FA0500ED00E0008108400100000005
:10016000000000000348854600F01CF800480047E6
:10017000E10300002802002030B50B4601460020B4
:100180002022012409E00D46D5409D4205D31D469D
:100190009540491B2546954040191546521E002D95
:1001A000F1DC30BD064C0125064E05E0E36807CCC6
:1001B0002B430C3C98471034B442F7D3FFF7D6FFDB
:1001C0005404000074040000084AC0008018072985
:1001D00001D9001DC91F026889000F238B409A4373
:1001E00001238B401343036070470000202002402E
:1001F00030B51648C16A0125AD032943C162416A81
:100200003F221204114341620E210220FFF7DCFF5E
:100210000F4C206828432060206A284320620F2169
:100220000220FFF7D1FF2168680001432160216AA5
:100230000143216201210220FFF7C6FF216802204D
:1002400001432160216A0143216230BD00800840E2
:1002500000400B40032808D20449800009580A6A6C
:10026000024B0C33185802430A6270470C000020FE
:10027000032808D20449800009580A6A024B0C334B
:10028000185882430A6270470C000020032808D2E5
:100290000449800009580A6A024B0C33185842403E
:1002A0000A6270470C00002005498868401C88607D
:1002B0000A68904203D3002088600120486070479C
:1002C00000000020F0B539491020C860384A0120EC
:1002D00010603849086B40252843086336480023DE
:1002E00044158668272EFCD100E044604668B605B8
:1002F000FBD500E043604668B605FBD41360486A4E
:10030000032292029043486248680122D2021043BD
:1003100048608868C008C007FBD04868C008C000B3
:10032000C01C4860486B4007400F0328FAD1234A9D
:100330001068C008C000401C10600B624868A043F1
:1003400048600868961530430860486817153843B8
:10035000486088688008C007FBD0086BA843086322
:100360000868B0430860032000068861486820439D
:10037000486088684008C007FBD01068C008C0000B
:10038000801C10600B624868C008C000401C4860B8
:10039000486B4007400F0128FAD11068102108432C
:1003A00010601068090208431060F0BD0081084029
:1003B000008308400080084000A106400002084079
:1003C00002E008C8121F08C1002AFAD1704770471E
:1003D000002001E001C1121F002AFBD1704700007C
:1003E000FFF706FF0020FFF743FF0120FFF732FF72
:1003F0000220FFF73DFF124864210068FFF7BCFEB2
:1004000010490024401E88420BD80F4948610F4A0A
:100410000720D3691B021B0A85072B43D3618C611C
:1004200008610B4D68680128FCD16C600020FFF763
:100430002DFF0120FFF72AFF0220FFF727FFF1E73A
:1004400024000020FFFFFF0000E000E004ED00E0DA
:1004500000000020740400000000002028000000BC
:10046000C00300009C0400002800002000020000DF
:10047000D003000031000000000000000000000078
:1004800000400B4000400B4000400B40004000008B
:0C0490000080000002000000006CDC0294
:04000005000000C136
:00000001FF
