:100000000C9443000C9460000C9460000C9460000D
:100010000C9460000C9460000C9460000C94EE054D
:100020000C9460000C9460000C9460000C94BD056E
:100030000C9460000C9460000C948C050C9460008F
:100040000C9460000C9460000C9460000C946000B0
:100050000C9460000C9460000C9460000C946000A0
:100060000C9460000C94600005A84CCDB2D44EB93D
:100070003836A9020C50B9918688083CA6AAAA2A4B
:10008000BE000000803F11241FBECFEFD8E0DEBFCE
:10009000CDBF12E0A0E0B1E0ECE0F7E202C00590D5
:1000A0000D92A03AB107D9F722E0A0EAB2E001C070
:1000B0001D92AB3AB207E1F70E9423010C9484131E
:1000C0000C940000CF93DF93CDB7DEB70E940B0EE8
:1000D00085E092E00E94CD1186E692E00E94D21166
:1000E0008FEA92E00E94D71180E193E00E94DC1138
:1000F0008AE593E00E94E11184ED93E00E94E6110D
:100100008FED93E00E9465128FEF93E00E946A12D8
:100110008FE094E00E946F128AE194E00E947412D2
:1001200087E294E00E9479128DE794E00E948D129C
:1001300087E494E00E94831282E394E00E947E129E
:100140008CE594E00E9488128EE994E00E9492125D
:1001500089EA94E00E94971286EB94E00E949C1238
:100160008EE095E00E942E128DE495E00E943312FD
:1001700085E595E00E94381282E599E00E944A12D6
:1001800087E999E00E9454128AE899E00E944F1290
:100190008FED99E00E94591289EA9AE00E94FE11BF
:1001A0008EEB9CE00E94031289EC9CE00E940812F6
:1001B00088E49DE00E940D1289E69DE00E941212E3
:1001C0008EE79DE00E9417128EE89DE00E941C12AF
:1001D0008BE99DE00E94A4118AEA9DE00E94A9118A
:1001E00089EB9DE00E94AE1184EC9DE00E94B3116A
:1001F00081ED9DE00E94B8118EED9DE00E94BD1141
:100200008EEE9DE00E94C2118EEF9DE00E94C7110C
:100210000000DF91CF910895CF93DF93CDB7DEB784
:100220008091A002882F90E021E0892B09F420E042
:1002300081E08227882F90E081708093A0020000E7
:10024000DF91CF9108952F923F924F925F926F92DC
:100250007F928F929F92AF92BF92CF92DF92EF9256
:10026000FF920F931F93CF93DF93CDB7DEB72C97F9
:100270000FB6F894DEBF0FBECDBF0E94620061E0F2
:1002800083E10E94F11160E083E10E94EB1161E0E3
:1002900083E10E94F7118CE00E9421124CE051E0B2
:1002A00068E080E00E945E1268E081E00E943D12FA
:1002B0000E944312A22EB32EC42ED52EE62EF72E68
:1002C000082F192FA982BA82CB82DC82ED82FE82AE
:1002D0000F83188729803A804B805C806D807E80F8
:1002E0008F8098840F2EF0EDAF2EF02D0F2EF7E0BB
:1002F000BF2EF02DC12CD12CE12CF12C00E010E010
:10030000222D332D442D552D662D772D882D992D99
:100310000E94A112222E332E442E552E662E772EA9
:10032000882E992EA22CB32CC42CD52CE62CF72C7D
:10033000082D192D2A2D3B2D4C2D5D2D6E2D7F2D39
:10034000802F912F283E33404105510561057105ED
:100350008105910531F02CF060E083E10E94EB1102
:1003600004C061E083E10E94EB1129813A814B8155
:100370005C816D817E818F8198850E94620FDC0196
:10038000CB0120E030E44CE156E4BC01CD010E94F9
:10039000850EDC01CB0125E236E049E450E4BC01E6
:1003A000CD010E94A610DC01CB01BC01CD010E9451
:1003B0001311DC01CB0120E030E040E85FE3BC0139
:1003C000CD010E94140EDC01CB0120E030E040E0C2
:1003D00050E4BC01CD010E94850EDC01CB01898770
:1003E0009A87AB87BC8789859A85AB85BC85AC012C
:1003F000BD018CE00E9427125BCFCF93DF93CDB776
:10040000DEB70000DF91CF910895CF93DF93CDB792
:10041000DEB72E970FB6F894DEBF0FBECDBF8D8727
:100420006E878D8518160CF047C08D858D310CF0C8
:1004300043C08D85082E000C990B0197880F991FDA
:100440009C01220F331F220F331F820F931F8050F6
:100450009F4F2AE0FC01DE01139601900D922A9530
:10046000E1F781E09E85913009F080E089838C81FD
:100470009D81FC0180818A838C819D812A85422F08
:1004800050E021E030E002C0220F331F4A95E2F72E
:10049000322F30952A81632F62232981222F30E069
:1004A0004A85442F50E002C0220F331F4A95E2F7DD
:1004B000262BFC01208301C000002E960FB6F89475
:1004C000DEBF0FBECDBFDF91CF910895CF93DF93F5
:1004D000CDB7DEB72C970FB6F894DEBF0FBECDBFF9
:1004E0008C878C8518161CF48C858D3114F080E077
:1004F0002DC08C85082E000C990B0197880F991F31
:100500009C01220F331F220F331F820F931F805035
:100510009F4F2AE0FC01DE01129601900D922A9570
:10052000E1F78D819E81FC018081882F90E02985F3
:10053000222F30E002C0959587952A95E2F78170C9
:10054000898381E09981913009F080E02C960FB683
:10055000F894DEBF0FBECDBFDF91CF910895CF934A
:10056000DF93CDB7DEB72E970FB6F894DEBF0FBE80
:10057000CDBF8D876E878D8518160CF047C08D8591
:100580008D310CF043C08D85082E000C990B01971E
:10059000880F991F9C01220F331F220F331F820FD8
:1005A000931F80509F4F2AE0FC01DE0113960190BB
:1005B0000D922A95E1F781E09E85913009F080E067
:1005C000898388859985FC0180818A8388859985BE
:1005D0002A85422F50E021E030E002C0220F331F75
:1005E0004A95E2F7322F30952A81632F62232981C1
:1005F000222F30E04A85442F50E002C0220F331FE3
:100600004A95E2F7262BFC01208301C000002E96BC
:100610000FB6F894DEBF0FBECDBFDF91CF91089526
:10062000CF93DF93CDB7DEB72C970FB6F894DEBF2C
:100630000FBECDBF8C878C8518168CF58C858D31BF
:1006400074F58C85082E000C990B0197880F991F63
:100650009C01220F331F220F331F820F931F8050E4
:100660009F4F2AE0FC01DE01129601900D922A951F
:10067000E1F78F819885FC018081882F90E02985A2
:10068000222F30E002C0959587952A95E2F7817078
:10069000898381E09981913021F080E002C00000DF
:1006A00000002C960FB6F894DEBF0FBECDBFDF91D1
:1006B000CF910895CF93DF93CDB7DEB72F970FB6C5
:1006C000F894DEBF0FBECDBF8E876F878E8518165C
:1006D0000CF060C08E858D310CF05CC08E85082ECC
:1006E000000C990B0197880F991F9C01220F331F53
:1006F000220F331F820F931F80509F4F2AE0FC016F
:10070000DE01149601900D922A95E1F789859A856C
:10071000FC018081882F90E02B85222F30E002C0E1
:10072000959587952A95E2F7817089838981882339
:1007300091F58F85813019F08F85882361F581E0EF
:100740009F85913009F080E08A838D819E81FC0134
:1007500080818B838D819E812B85422F50E021E00B
:1007600030E002C0220F331F4A95E2F7322F309556
:100770002B81632F62232A81222F30E04B85442F67
:1007800050E002C0220F331F4A95E2F7262BFC01EE
:10079000208301C000002F960FB6F894DEBF0FBE75
:1007A000CDBFDF91CF910895CF93DF931F92CDB747
:1007B000DEB7898300000F90DF91CF910895EF920B
:1007C0000F93CF93DF93CDB7DEB728970FB6F8948A
:1007D000DEBF0FBECDBF89834A835B836C837D837D
:1007E0002E830F83E886000028960FB6F894DEBFAC
:1007F0000FBECDBFDF91CF910F91EF900895CF93B2
:10080000DF9300D01F92CDB7DEB789837B836A83E5
:1008100000000F900F900F90DF91CF910895CF932C
:10082000DF931F92CDB7DEB7898300000F90DF9171
:10083000CF910895CF93DF9300D0CDB7DEB78983F2
:100840006A8300000F900F90DF91CF910895CF93AE
:10085000DF931F92CDB7DEB7898300000F90DF9141
:10086000CF910895CF93DF9300D000D01F92CDB7E2
:10087000DEB789837B836A835D834C8300000F909E
:100880000F900F900F900F90DF91CF910895CF931D
:10089000DF9300D000D01F92CDB7DEB789837B8372
:1008A0006A835D834C8300000F900F900F900F9030
:1008B0000F90DF91CF9108950F931F93CF93DF9304
:1008C000CDB7DEB729970FB6F894DEBF0FBECDBF08
:1008D00089837B836A835D834C830E831F83288790
:1008E0003987000029960FB6F894DEBF0FBECDBF42
:1008F000DF91CF911F910F9108950F931F93CF9385
:10090000DF93CDB7DEB729970FB6F894DEBF0FBEE1
:10091000CDBF89837B836A835D834C830E831F8372
:1009200028873987000029960FB6F894DEBF0FBEDE
:10093000CDBFDF91CF911F910F910895CF93DF939A
:100940001F92CDB7DEB7898300000F90DF91CF9162
:100950000895CF93DF9300D0CDB7DEB789836A8344
:1009600000000F900F90DF91CF910895CF93DF9308
:1009700000D0CDB7DEB789836A8300000F900F9057
:10098000DF91CF910895AF92BF92CF92DF92EF9215
:10099000FF920F931F93CF93DF93CDB7DEB7A09055
:1009A000A102B090A202C090A302D090A402E09055
:1009B000A502F090A6020091A7021091A8022A2D8C
:1009C0003B2D4C2D5D2D6E2D7F2D802F912FA1E085
:1009D0000E947813A22EB32EC42ED52EE62EF72E0B
:1009E000082F192FA092A102B092A202C092A302D6
:1009F000D092A402E092A502F092A6020093A70270
:100A00001093A8020000DF91CF911F910F91FF90EA
:100A1000EF90DF90CF90BF90AF900895EF92FF924C
:100A20000F931F93CF93DF9300D0CDB7DEB78983A9
:100A30006A838A81282F30E08981882F90E0B9016C
:100A40000E9452098A81682F70E08981882F90E086
:100A50000F2EF8EEEF2EF02D0F2EF3E0FF2EF02DDF
:100A600000E010E020E030E040E050E00E94970914
:100A70008A81282F30E08981882F90E043EC54E070
:100A8000B9010E94DF0900000F900F90DF91CF9114
:100A90001F910F91FF90EF900895CF93DF93CDB703
:100AA000DEB70000DF91CF910895AF92BF92CF9251
:100AB000DF92EF92FF920F931F93CF93DF93CDB707
:100AC000DEB72091A1023091A2024091A302509181
:100AD000A4026091A5027091A6028091A702909154
:100AE000A802A22EB32EC42ED52EE62EF72E082F46
:100AF000192F2A2D3B2D4C2D5D2D6E2D7F2D802FF6
:100B0000912FDF91CF911F910F91FF90EF90DF9088
:100B1000CF90BF90AF9008951F920F9200905F000A
:100B20000F9211242F933F934F935F936F937F9373
:100B30008F939F93AF93BF93EF93FF93CF93DF93E5
:100B4000CDB7DEB78091240290912502FC01099572
:100B50000000DF91CF91FF91EF91BF91AF919F91F5
:100B60008F917F916F915F914F913F912F910F9056
:100B700000925F000F901F9018951F920F920090A7
:100B80005F000F9211242F933F934F935F936F93C6
:100B90007F938F939F93AF93BF93EF93FF93CF93E5
:100BA000DF93CDB7DEB78091460290914702FC01FA
:100BB00009950000DF91CF91FF91EF91BF91AF9127
:100BC0009F918F917F916F915F914F913F912F9165
:100BD0000F9000925F000F901F9018951F920F9238
:100BE00000905F000F9211242F933F934F935F93D8
:100BF0006F937F938F939F93AF93BF93EF93FF93E5
:100C0000CF93DF93CDB7DEB780913202909133025C
:100C1000FC0109950000DF91CF91FF91EF91BF9109
:100C2000AF919F918F917F916F915F914F913F9184
:100C30002F910F9000925F000F901F9018956F9268
:100C40007F928F929F92AF92BF92CF92DF92EF925C
:100C5000FF920F931F93CF93DF93CDB7DEB7C755A6
:100C6000D1090FB6F894DEBF0FBECDBFFE01E15B28
:100C7000FF4F8083CE01805B9F4FFC010083FC010E
:100C80001183FC012283FC013383FC014483FC01BA
:100C90005583FC016683FC017783CE01815B9F4F06
:100CA000FC018081823008F0E6C2CE01815B9F4F5B
:100CB000FC018081882F90E09C01C901880F991F59
:100CC0009C01C901880F991F880F991F880F991FD0
:100CD000821B930B885E9D4F21E0FC01208328E25C
:100CE000CE014396FC01322F11923A95E9F724E1A7
:100CF000CE01CB96FC01322F11923A95E9F78FEF96
:100D00009FEFAFE7BFE78BAF9CAFADAFBEAF198230
:100D100014C18981882E912C8981882F90E0880FB9
:100D2000991F885B9D4FFC0180819181CC01A0E0DF
:100D3000B0E0BC01CD010E94680F6B017C01FE0197
:100D4000E05BFF4F20813181428153816481758155
:100D5000868197810E94A50FDC01CB019C01AD012A
:100D6000C701B6010E94A610DC01CB019C01AD01B8
:100D700060E074E284E799E40E94850EDC01CB0117
:100D800020E030E040E85FE3BC01CD010E94130E9B
:100D9000DC01CB01BC01CD010E94FC0EA22EB32EC2
:100DA000C42ED52EE62EF72E082F192FC401880F3A
:100DB000991F880F991F880F991F9E012F5F3F4F22
:100DC000820F931F4296FC01A082FC01B182FC01BC
:100DD000C282FC01D382FC01E482FC01F582FC01A9
:100DE0000683FC0117838981882F90E0880F991F63
:100DF000885B9D4FFC0180819181CC01A0E0B0E037
:100E0000BC01CD010E94680F3B014C018981882FF4
:100E100090E0880F991F880F991F880F991F9E01D6
:100E20002F5F3F4F820F931F4296FC01A080FC0171
:100E3000B180FC01C280FC01D380FC01E480FC0194
:100E4000F580FC010681FC0117812A2D3B2D4C2DDC
:100E50005D2D6E2D7F2D802F912F0E94A50FDC011F
:100E6000CB0120E030E040E85FE3BC01CD010E940F
:100E7000140EDC01CB019C01AD01C401B3010E9441
:100E8000A610DC01CB019C01AD0160E074E284E7B7
:100E900099E40E94850EDC01CB018D879E87AF8788
:100EA000B88BFE01E05BFF4F20813181428153818D
:100EB00064817581868197810E94A50FDC01CB0139
:100EC0009C01AD016D857E858F8598890E94130EEA
:100ED000DC01CB018A839B83AC83BD8320E030E0BF
:100EE000A9016A817B818C819D810E94800E88236B
:100EF0004CF48A819B81AC81BD81B0588A839B83ED
:100F0000AC83BD838981882F90E0880F991F880F5B
:100F1000991F9E012F5F3F4F820F931F9C01265CFC
:100F20003F4F8A819B81AC81BD81F9018083918390
:100F3000A283B38389818F5F89838981853008F497
:100F4000E8CE84E08E838E81882F90E0880F991FF1
:100F5000880F991F9E012F5F3F4F820F931FCA96E4
:100F6000FC0180819181A281B3818F839887A987B9
:100F7000BA871B8668C08B85882F90E0880F991FE1
:100F8000880F991F880F991F9E012F5F3F4F820F77
:100F9000931F4296FC01A080FC01B180FC01C2803D
:100FA000FC01D380FC01E480FC01F580FC0106819A
:100FB000FC0117812A2D3B2D4C2D5D2D6E2D7F2D93
:100FC000802F912F2E3F3105410551056105710597
:100FD0008105910509F0A0F58B85882F90E0880F99
:100FE000991F880F991F9E012F5F3F4F820F931FFC
:100FF000CA96FC0180819181A281B3812F813885BD
:1010000049855A85BC01CD010E94800E1816C4F096
:101010008B85882F90E0880F991F880F991F9E015C
:101020002F5F3F4F820F931FCA96FC0180819181F1
:10103000A281B3818F839887A987BA878B858E8396
:101040008B858F5F8B878B85853008F494CFCE019D
:10105000815B9F4FFC018081882F90E09C01C9013A
:10106000880F991F9C01C901880F991F880F991F2C
:10107000880F991F821B930B845E9D4FFC0140815A
:101080005181CE01815B9F4FFC018081882F90E0D0
:101090009C01C901880F991F9C01C901880F991FE4
:1010A000880F991F880F991F821B930B845E9D4F99
:1010B000FC0180819181FC018081877FFA0180831E
:1010C000CE01815B9F4FFC018081882F90E09C01C5
:1010D000C901880F991F9C01C901880F991F880FAA
:1010E000991F880F991F821B930B865E9D4FFC01F1
:1010F00080819181FC018081898BCE01815B9F4F32
:10110000FC018081882F90E09C01C901880F991F04
:101110009C01C901880F991F880F991F880F991F7B
:10112000821B930B865E9D4FFC01808191812989F2
:1011300022602E7FFC012083CE01815B9F4FFC014A
:101140008081882F90E09C01C901880F991F9C0124
:10115000C901880F991F880F991F880F991F821B3B
:10116000930B805E9D4FFC01A081B1818E81882F01
:1011700090E0880F991F880F991F880F991F9E0173
:101180002F5F3F4F820F931FFC01729620813181A8
:10119000428153816481758186819781822F8C93EE
:1011A0001C868E81882F90E0880F991F885B9D4F49
:1011B000FC018081918180349105B9F081349105E1
:1011C00030F48130910559F0089761F017C081150E
:1011D000F1E09F0769F08115944069F00FC081E04C
:1011E0008C870CC082E08C8709C083E08C8706C0A6
:1011F00084E08C8703C085E08C870000CE01815B92
:101200009F4FFC018081882F90E09C01C901880FCD
:10121000991F9C01C901880F991F880F991F880F7A
:10122000991F821B930B845E9D4FFC0180819181ED
:101230008A8BCE01815B9F4FFC018081882F90E0DB
:101240009C01C901880F991F9C01C901880F991F32
:10125000880F991F880F991F821B930B845E9D4FE7
:10126000FC01808191812A89322F387F2C85232BA4
:10127000FC01208301C00000C95ADF4F0FB6F8946B
:10128000DEBF0FBECDBFDF91CF911F910F91FF90B9
:10129000EF90DF90CF90BF90AF909F908F907F9016
:1012A0006F900895CF93DF9300D0CDB7DEB78983D9
:1012B0006A838A818930B8F48981882F90E09C0103
:1012C000C901880F991F9C01C901880F991F880FB8
:1012D000991F880F991F821B930B885E9D4F21E0F9
:1012E000FC01208311C08A81813170F48981282F0B
:1012F00030E044E1429FC001439F900D11248C5C7B
:101300009D4F21E0FC01208300000F900F90DF91A2
:10131000CF910895CF93DF9300D0CDB7DEB7898307
:101320006A8300000F900F90DF91CF9108958F9204
:101330009F92AF92BF92CF92DF92EF92FF920F9364
:101340001F93CF93DF93CDB7DEB72A970FB6F894EC
:10135000DEBF0FBECDBF89836A83EB82FC820D8323
:101360001E832F83388749875A878A81893098F46A
:101370008B809C80AD80BE80CF80D884E984FA8445
:10138000082D192D2A2D3B2D4C2D5D2D6E2D7F2DD9
:1013900089810E941F0600002A960FB6F894DEBFCE
:1013A0000FBECDBFDF91CF911F910F91FF90EF90B6
:1013B000DF90CF90BF90AF909F908F900895CF9384
:1013C000DF9300D000D0CDB7DEB789836A835C831A
:1013D0004B838981893008F04BC08981882F90E048
:1013E0009C01C901880F991F9C01C901880F991F91
:1013F000880F991F880F991F821B930B8C5D9D4F3F
:101400002B813C81FC01318320838981882F90E0EE
:101410009C01C901880F991F9C01C901880F991F60
:10142000880F991F880F991F821B930B825E9D4F17
:10143000FC01408151818981882F90E09C01C90184
:10144000880F991F9C01C901880F991F880F991F48
:10145000880F991F821B930B825E9D4FFC01808138
:101460009181FC0180818260FA018083789413C0AD
:101470008981813180F48981282F30E044E1429FC5
:10148000C001439F900D11248A5B9D4F2B813C81AD
:10149000FC013183208300000F900F900F900F907C
:1014A000DF91CF910895CF93DF9300D000D0CDB7D7
:1014B000DEB78A836B834C8319828A81882311F477
:1014C000198205C08A818230E1F581E089838B81B0
:1014D0008823D1F48981882F90E09C01C901880F6D
:1014E000991F9C01C901880F991F880F991F880FA8
:1014F000991F821B930B805E9D4FFC01808191811F
:101500002C81FC0120831EC08B818130D9F489811C
:10151000882F90E09C01C901880F991F9C01C90187
:10152000880F991F880F991F880F991F821B930B93
:101530008E5D9D4FFC01808191812C81FC01208377
:1015400001C000000F900F900F900F90DF91CF918E
:101550000895CF93DF93CDB7DEB72A970FB6F894EF
:10156000DEBF0FBECDBF8A878A858D310CF0FAC1F0
:101570008A85082E000C990B0197880F991F9C01F2
:10158000220F331F220F331F820F931F885F9E4F3E
:10159000FC0180818C838A85082E000C990B0197B1
:1015A000880F991F9C01220F331F220F331F820FB8
:1015B000931F875F9E4FFC0180818D838C818F3FBD
:1015C00009F4D3C18D818F3F09F4CFC119821A82EA
:1015D0001B828C81882319F08C81823019F588E078
:1015E00089838C81882311F41B8205C08C81823011
:1015F00011F481E08B838B81882F90E09C01C901DD
:10160000880F991F9C01C901880F991F880F991F86
:10161000880F991F821B930B885E9D4FFC01808170
:101620008A8315C08C81813009F09EC180E1898355
:101630001B828B81282F30E044E1429FC001439FF1
:10164000900D11248C5C9D4FFC0180818A839A81CE
:1016500081E08927882309F488C18C8169810E94EF
:1016600052098981883009F06BC18B81882F90E005
:101670009C01C901880F991F9C01C901880F991FFE
:10168000880F991F880F991F821B930B875E9D4FB0
:10169000FC01908181E08927882309F4DDC08B81DA
:1016A000882F90E09C01C901880F991F9C01C901F6
:1016B000880F991F880F991F880F991F821B930B02
:1016C000875E9D4F21E0FC0120838B81882F90E075
:1016D0009C01C901880F991F9C01C901880F991F9E
:1016E000880F991F880F991F821B930B845E9D4F53
:1016F000FC01408151818B81882F90E09C01C901C0
:10170000880F991F9C01C901880F991F880F991F85
:10171000880F991F821B930B845E9D4FFC01808173
:101720009181FC018081877FFA0180838B81882FE2
:1017300090E09C01C901880F991F9C01C901880F85
:10174000991F880F991F880F991F821B930B865E24
:101750009D4FFC0180819181FC0180818E838B8172
:10176000882F90E09C01C901880F991F9C01C90135
:10177000880F991F880F991F880F991F821B930B41
:10178000865E9D4FFC01808191812E8121602D7F9D
:10179000FC0120838B81882F90E09C01C901880F78
:1017A000991F9C01C901880F991F880F991F880FE5
:1017B000991F821B930B845E9D4FFC018081918158
:1017C0008F838B81882F90E09C01C901880F991F1E
:1017D0009C01C901880F991F880F991F880F991FB5
:1017E000821B930B805E9D4FFC0180819181FC01E7
:1017F00010828B81882F90E09C01C901880F991F6E
:101800009C01C901880F991F880F991F880F991F84
:10181000821B930B8E5D9D4FFC0180819181FC01A9
:1018200010828B81882F90E09C01C901880F991F3D
:101830009C01C901880F991F880F991F880F991F54
:10184000821B930B845E9D4FFC01808191812F81CF
:10185000287F2160FC0120838D818823A9F58B815D
:10186000882F90E09C01C901880F991F9C01C90134
:10187000880F991F880F991F880F991F821B930B40
:10188000865E9D4FFC0180819181FC01808188876B
:101890008B81882F90E09C01C901880F991F9C01C2
:1018A000C901880F991F880F991F880F991F821BE4
:1018B000930B865E9D4FFC018081918128852F735B
:1018C0002068FC01208337C08D818130A1F58B8198
:1018D000882F90E09C01C901880F991F9C01C901C4
:1018E000880F991F880F991F880F991F821B930BD0
:1018F000865E9D4FFC0180819181FC0180818987FA
:101900008B81882F90E09C01C901880F991F9C0151
:10191000C901880F991F880F991F880F991F821B73
:10192000930B865E9D4FFC018081918129852F70EC
:101930002062FC01208361E08A850E94AF0215C00D
:101940008981803191F48B81282F30E044E1429FDE
:10195000C001439F900D11248B5C9D4F21E0FC0141
:10196000208303C0000001C000002A960FB6F8943F
:10197000DEBF0FBECDBFDF91CF910895CF93DF9330
:101980001F92CDB7DEB7898300000F90DF91CF9112
:101990000895CF93DF93CDB7DEB728970FB6F894AD
:1019A000DEBF0FBECDBF8C834D835E836F83788790
:1019B0008C81082E000C990B0197880F991F9C01B0
:1019C000220F331F220F331F820F931F885F9E4FFA
:1019D000FC01808189838C81082E000C990B019772
:1019E000880F991F9C01220F331F220F331F820F74
:1019F000931F875F9E4FFC0180818A831B828D81AC
:101A00009E81AF81B8859C01AD0160E070E080E807
:101A10009FE30E940210DC01CB0120E030E0A9012D
:101A2000BC01CD010E94E30FDC01CB018D839E83BD
:101A3000AF83B8878981882319F089818230D1F4F6
:101A400020E030E04FE753E46D817E818F819885FF
:101A50000E94A610DC01CB01BC01CD010E94330F16
:101A6000DC01CB01282F9A818981422F692F0E94A6
:101A7000530A04C08981813009F41B820000289632
:101A80000FB6F894DEBF0FBECDBFDF91CF910895A2
:101A90000F931F93CF93DF93CDB7DEB729970FB680
:101AA000F894DEBF0FBECDBF89830A831B832C83CE
:101AB0003D834E835F8368877987000029960FB640
:101AC000F894DEBF0FBECDBFDF91CF911F910F9174
:101AD0000895CF93DF9300D000D01F92CDB7DEB72B
:101AE00089834A835B836C837D8300000F900F9012
:101AF0000F900F900F90DF91CF910895CF93DF93C8
:101B000000D01F92CDB7DEB789837B836A83000044
:101B10000F900F900F90DF91CF910895CF93DF93A7
:101B200000D0CDB7DEB789836A8300000F900F9095
:101B3000DF91CF910895CF93DF9300D0CDB7DEB77B
:101B400089836A830000BC01CD010F900F90DF9163
:101B5000CF910895CF93DF9300D0CDB7DEB78983BF
:101B60006A830000BC01CD010F900F90DF91CF91EF
:101B70000895CF93DF931F92CDB7DEB7898300001E
:101B80000F90DF91CF910895CF93DF931F92CDB740
:101B9000DEB789830000BC01CD010F90DF91CF91AA
:101BA0000895CF93DF9300D0CDB7DEB789836A83E2
:101BB00000000F900F90DF91CF910895CF93DF93A6
:101BC00000D01F92CDB7DEB789836A834B830000B4
:101BD0000F900F900F90DF91CF910895CF93DF93E7
:101BE00000D01F92CDB7DEB789837B836A83000064
:101BF0000F900F900F90DF91CF910895CF93DF93C7
:101C00001F92CDB7DEB789830000BC01CD010F90D4
:101C1000DF91CF910895CF93DF93CDB7DEB700006A
:101C2000DF91CF9108955058BB27AA270E942B0E11
:101C30000C946C100E945E1038F00E94651020F029
:101C400039F49F3F19F426F40C944B100EF4E095F0
:101C5000E7FB0C944510E92F0E947D1058F3BA174A
:101C6000620773078407950720F079F4A6F50C94B2
:101C70009F100EF4E0950B2EBA2FA02D0B01B90189
:101C800090010C01CA01A0011124FF27591B99F0F2
:101C9000593F50F4503E68F11A16F040A22F232FFE
:101CA000342F4427585FF3CF469537952795A7954E
:101CB000F0405395C9F77EF41F16BA0B620B730BF5
:101CC000840BBAF09150A1F0FF0FBB1F661F771F66
:101CD000881FC2F70EC0BA0F621F731F841F48F41B
:101CE000879577956795B795F7959E3F08F0B0CFA4
:101CF0009395880F08F09927EE0F9795879508958B
:101D00000E94211008F481E008950E94990E0C941D
:101D10006C100E94651058F00E945E1040F029F48B
:101D20005F3F29F00C94451051110C94A0100C94B5
:101D30004B100E947D1068F39923B1F3552391F362
:101D4000951B550BBB27AA2762177307840738F02A
:101D50009F5F5F4F220F331F441FAA1FA9F335D087
:101D60000E2E3AF0E0E832D091505040E695001C3B
:101D7000CAF72BD0FE2F29D0660F771F881FBB1FF5
:101D8000261737074807AB07B0E809F0BB0B802DD3
:101D9000BF01FF2793585F4F3AF09E3F510578F0FF
:101DA0000C9445100C94A0105F3FE4F3983ED4F3DC
:101DB000869577956795B795F7959F5FC9F7880FD3
:101DC000911D9695879597F90895E1E0660F771F25
:101DD000881FBB1F621773078407BA0720F0621BB6
:101DE000730B840BBA0BEE1F88F7E0950895BEE3E2
:101DF00004D008F490E80895BFE322273327A9010F
:101E00000E94851060F19F5748F1B91740F1BFE378
:101E1000B91B9927B8503AF4660F771F881F991F8E
:101E2000B395D2F316C0B8504AF0232F342F452F64
:101E3000562F672F782F8827B850BAF7B85F49F028
:101E40008695779567955795479537952795BA95D0
:101E5000B9F716F40E944E1088940895889460E0B3
:101E600070E0CB0108950E94851088F09F5798F08C
:101E7000B92F9927B751B0F0E1F0660F771F881F8F
:101E8000991F1AF0BA95C9F714C0B13091F00E94A9
:101E90009F10B1E008950C949F10672F782F88272A
:101EA000B85F39F0B93FCCF3869577956795B395D0
:101EB000D9F73EF490958095709561957F4F8F4F3F
:101EC0009F4F089597FB16F40E944E100C94A60F96
:101ED000E89409C097FB3EF49095809570956195C4
:101EE0007F4F8F4F9F4F9923A9F0F92F96E9BB277A
:101EF0009395F695879577956795B795F111F8CFF6
:101F0000FAF4BB0F11F460FF1BC06F5F7F4F8F4F60
:101F10009F4F16C0882311F096E911C0772321F056
:101F20009EE8872F762F05C0662371F096E8862FEE
:101F300070E060E02AF09A95660F771F881FDAF745
:101F4000880F9695879597F90895E894F92F96EB61
:101F5000FF2381F0121613061406440B9395F69591
:101F600087957795679557954040FF23B9F71BC034
:101F700099270895882351F49850D2F7872B762F0C
:101F8000652F542F432F322F20E0B1F31216130682
:101F90001406440B88233AF09A95440F551F661F88
:101FA000771F881FCAF755234AF4440F551F11F4B1
:101FB00060FF04C06F5F7F4F8F4F9F4F880F9695D4
:101FC000879597F90895990FBB0B550FAA0BE0E879
:101FD000FEEF16161706E807F90770F0121613063B
:101FE000E407F50760F0BA173CF049F4621773078D
:101FF00084079507A7951BF4B901CA01BA2FB695B6
:1020000097950895990FBB0B550FAA0BE0E8FEEFCB
:1020100016161706E807F90770F012161306E407FC
:10202000F50760F0BA1754F031F426173707480760
:102030005907A7951BF4B901CA01BA2FB695979510
:102040000895990F0008550FAA0BE0E8FEEF161649
:102050001706E807F907C0F012161306E407F5079C
:1020600098F0621B730B840B950B39F40A2661F010
:10207000232B242B252B21F408950A2609F4A140B3
:10208000A6958FEF811D811D089597F99F6780E8C0
:1020900070E060E008959FEF80EC08959095809542
:1020A0007095609550954095309521953F4F4F4FD5
:1020B0005F4F6F4F7F4F8F4F9F4F089500240A94BB
:1020C0001616170618060906089500240A94121613
:1020D0001306140605060895092E0394000C11F446
:1020E000882352F0BB0F40F4BF2B11F460FF04C0F3
:1020F0006F5F7F4F8F4F9F4F089557FD9058440F4C
:10210000551F59F05F3F71F04795880F97FB991F56
:1021100061F09F3F79F08795089512161306140613
:10212000551FF2CF4695F1DF08C0161617061806A0
:10213000991FF1CF86957105610508940895E8947B
:10214000BB2766277727CB0197F908950E94B9101E
:102150000C946C100E945E1038F00E94651020F004
:10216000952311F00C9445100C944B1011240C94F1
:10217000A0100E947D1070F3959FC1F3950F50E061
:10218000551F629FF001729FBB27F00DB11D639F29
:10219000AA27F00DB11DAA1F649F6627B00DA11DCF
:1021A000661F829F2227B00DA11D621F739FB00D75
:1021B000A11D621F839FA00D611D221F749F3327E5
:1021C000A00D611D231F849F600D211D822F762F7E
:1021D0006A2F11249F5750409AF0F1F088234AF05B
:1021E000EE0FFF1FBB1F661F771F881F91505040C7
:1021F000A9F79E3F510580F00C9445100C94A01057
:102200005F3FE4F3983ED4F3869577956795B7954D
:10221000F795E7959F5FC1F7FE2B880F911D969567
:10222000879597F908959F930E941D110F9007FCC1
:10223000EE5F0C9446110C944B100E948510D8F35D
:10224000E894E0E0BB279F57F0F02AED3FE049EC2F
:1022500006C0EE0FBB0F661F771F881F28F0B23A2B
:1022600062077307840728F0B25A620B730B840B62
:10227000E3959A9572F7803830F49A95BB0F661FF4
:10228000771F881FD2F790480C945C11EF93E0FF02
:1022900007C0A2EA2AED3FE049EC5FEB0E942B0E5B
:1022A0000E946C100F90039401FC9058E8E6F0E057
:1022B0000C9468119F3F31F0915020F487957795E9
:1022C0006795B795880F911D9695879597F908950D
:1022D0009F938F937F936F93FF93EF939B01AC0139
:1022E0000E94A610EF91FF910E947C112F913F91C7
:1022F0004F915F910C94A610DF93CF931F930F9390
:10230000FF92EF92DF927B018C01689406C0DA2E77
:10231000EF010E94B910FE01E894A5912591359135
:1023200045915591A6F3EF010E942B0EFE019701F6
:10233000A801DA9469F7DF90EF90FF900F911F9159
:10234000CF91DF9108950895909361028093600288
:10235000089590935F0280935E02089590935D02CA
:1023600080935C02089590935B0280935A020895D3
:102370009093590280935802089590935702809346
:1023800056020895909355028093540208959093B5
:102390005302809352020895089590936D028093A2
:1023A0006C02089590936B0280936A020895909353
:1023B0006902809368020895909367028093660291
:1023C0000895909365028093640208959093630248
:1023D000809362020895E0916C02F0916D0209957C
:1023E0000895E0916802F091690209950895E091DD
:1023F0006402F091650209950895089590937B0217
:1024000080937A02089590937902809378020895D8
:10241000909377028093760208959093750280934B
:1024200074020895909373028093720208959093BA
:10243000710280937002089590936F0280936E02F0
:102440000895E0917A02F0917B0209950895E09158
:102450007602F0917702099508950895909381028C
:1024600080938002089590937F0280937E02089566
:1024700090937D0280937C020895E0918002F09118
:10248000810209950895E0917C02F0917D02099501
:1024900008950895909389028093880208959093F7
:1024A0008702809386020895909385028093840228
:1024B000089590938302809382020895E0918202AE
:1024C000F091830209950895089590939F02809357
:1024D0009E02089590939D0280939C02089590938C
:1024E0009B0280939A020895909399028093980298
:1024F0000895909397028093960208959093950281
:102500008093940208959093930280939202089589
:102510009093910280939002089590938F028093FC
:102520008E0208959093AA028093A9020895909331
:102530008D0280938C02089590938B0280938A027F
:102540000895689401C0E894F92FF12B12F00C94CF
:10255000D512A0E0B0E0EFEAF2E10C944713092EA7
:10256000059422F40E943113112392F4F0E80F260F
:10257000FFEFE094F09400951095B094C094D0943F
:10258000A194BF0ACF0ADF0AEF0AFF0A0F0B1F0B45
:102590000E94E01207FC0E943113CDB7DEB7ECE0D9
:1025A0000C946313689401C0E8948F929F92CF9328
:1025B000DF930E94E012DF91CF919F908F9008955A
:1025C00088249924F401E401B0E49F93AA279A1582
:1025D0008B049C04ED05FE05CF05D007A10798F4F8
:1025E000AD2FDC2FCF2FFE2FE92D982C892E982F81
:1025F000872F762F652F542F432F322F2227B85045
:1026000031F7BF9127C01B2EBF91BB27220F331F6D
:10261000441F551F661F771F881F991F881C991C10
:10262000EE1FFF1FCC1FDD1FAA1FBB1F8A149B04B8
:10263000EC05FD05CE05DF05A007B10748F08A18B7
:102640009B08EC09FD09CE09DF09A00BB10B216045
:102650001A94E1F62EF49401AF01BE01CD01000CF5
:10266000089560957095809590953095409550951A
:1026700021953F4F4F4F5F4F6F4F7F4F8F4F9F4F72
:1026800008952F923F924F925F926F927F928F9216
:102690009F92AF92BF92CF92DF92EF92FF920F93F1
:1026A0001F93CF93DF93CDB7DEB7CA1BDB0B0FB6FB
:1026B000F894DEBF0FBECDBF09942A8839884888B8
:1026C0005F846E847D848C849B84AA84B984C8844E
:1026D000DF80EE80FD800C811B81AA81B981CE0F45
:1026E000D11D0FB6F894DEBF0FBECDBFED0108952A
:1026F0000024A7FD00942A0F301D401D501D601DB1
:0C270000701D801D901D0895F894FFCFFF
:10270C000128002600270006FFFF012B0029002AC4
:10271C000000FFFF012B0029002A0001FFFF012B05
:10272C000029002A0002FFFF012B0029002A0003C8
:10273C000201012B0029002A0004FFFF0000000009
:10274C0000000000FFFF0000000000000000FFFF81
:10275C000125002300240006FFFF0125002300248F
:10276C000007FFFF012B0029002A00050001012BA7
:10277C000029002A00060000012B0029002A00076E
:10278C00FFFF0125002300240000FFFF012500238B
:10279C000024000101000125002300240002010196
:1027AC00012500230024000302000125002300243E
:1027BC000004FFFF0125002300240005FFFF00009B
:1027CC00000000000000FFFF0000000000000000FF
:1027DC00FFFF0000000000000000FFFF01280026A2
:1027EC0000270000FFFF0128002600270001FFFF43
:1027FC000128002600270002FFFF012800260027E1
:10280C000003FFFF0128002600270004FFFF01281A
:10281C00002600270005FFFF0000440045006E0065
:10282C0047004800FD010000B000B1007000B3008B
:10283C00B400FD0100008000810082006F00880060
:10284C0089008A008B00FD01010008004000000196
:10285C000004A311A311A311A311A311A311A3117C
:10286C00A311CC11CC11CC11CC11CC11CC11FD116C
:10287C00FD11FD11FD11FD11FD11FD112D122D127A
:10288C002D1249124912491249126412641264122F
:10289C00641264126412641264126412641264127C
:00000001FF
