S01100004D6F727068546573742E737265636D
S11300000C94D4000C94F1000C94F1000C94F100C5
S11300100C94F1000C94F1000C94F1000C94F10098
S11300200C94F1000C94F1000C94F1000C94F10088
S11300300C94F1000C94F1000C94F1000C94F10078
S11300400C94F1000C94F1000C94F1000C94F10068
S11300500C94F1000C94F1000C94F1000C94F10058
S11300600C94F1000C94F1005A0164012C022C024E
S11300702C022C026D01780181018B0196019F01F4
S1130080A601AE01B701C101CA012C022C022C0247
S11300902C022C02D401DB01E301EC01F601FF0187
S11300A0090214021B0223025B02700221042104D0
S11300B02104210485029D02B102C802E002F40277
S11300C00103120325033A034F03210421042104ED
S11300D0210421046603730384039703AC03C1035F
S11300E0D803F003FD030E04460450041805180554
S11300F018051805590464046D04770482048B04FC
S113010092049A04A304AD04B6041805180518054E
S113011018051805C004C704CF04D804E204EB048E
S1130120F504000507050F0547056A053D083D0868
S11301303D083D088C05B305D505FA05210643069F
S11301405B0678069806BB06DD063D083D083D08BB
S11301503D083D0802071A07370757077A079C0727
S1130160C107E80700081D089008AF08340B340BDA
S1130170340B340BCC08ED080C092B094C096B0922
S113018084099F09BC09DB09F809340B340B340BCF
S1130190340B340B170A300A4B0A680A870AA40A7C
S11301A0C30AE40AFD0A180B11241FBECFEFD8E0DE
S11301B0DEBFCDBF11E0A0E0B1E0E4E7F7E102C0AB
S11301C005900D92A230B107D9F721E0A2E0B1E089
S11301D001C01D92AC30B207E1F70E940F010C94EC
S11301E0B80B0C940000CF93DF93CDB7DEB78DE34B
S11301F091E00E947E0B87E392E00E94830B89E2E8
S113020094E00E94880B83E295E00E948D0B83E7C3
S113021098E00E94920B0000DF91CF910895CF9354
S1130220DF9300D0CDB7DEB70E94F30061E081E038
S11302300E94970B81E00E949D0B898360E081E01E
S11302400E94970B81E00E949D0B898360E081E00E
S11302500E94A30B81E00E94A90B8A8361E081E0E4
S11302600E94A30B81E00E94A90B8A8361E081E0D4
S11302700E94A30B0E94AF0BFFCFCF93DF9300D05C
S1130280CDB7DEB78A8319828A81882F90E0092E40
S1130290000CAA0BBB0B41E050E02FE130E0841BC3
S11302A0950B2817390708F4D8C08C5C9F4FFC01C4
S11302B00C94B20B8BE290E0FC01808186958695CC
S11302C0869581708983C9C08BE290E0FC018081AE
S11302D082958F7081708983C0C085E290E0FC01B3
S11302E08081829586958695837081708983B5C057
S11302F085E290E0FC018081881F8827881F89831C
S1130300ACC08BE290E0FC01808182958695877079
S113031081708983A2C08BE290E0FC018081829588
S11303208695869583708170898397C08BE290E06F
S1130330FC018081881F8827881F89838EC085E2FD
S113034090E0FC0180818170898387C085E290E020
S1130350FC0180818695817089837FC085E290E06D
S1130360FC018081869586958170898376C085E2BB
S113037090E0FC01808186958695869581708983BD
S11303806CC085E290E0FC01808182958F70817061
S1130390898363C085E290E0FC0180818295869523
S11303A087708170898359C088E290E0FC01808164
S11303B08170898352C088E290E0FC018081869537
S11303C0817089834AC088E290E0FC01808186952F
S11303D086958170898341C088E290E0FC01808128
S11303E08695869586958170898337C088E290E0EA
S11303F0FC01808182958F70817089832EC088E290
S113040090E0FC0180818295869587708170898354
S113041024C088E290E0FC018081829586958695CF
S113042083708170898319C08BE290E0FC01808124
S11304308170898312C08BE290E0FC0180818695F3
S1130440817089830AC08BE290E0FC0180818695EB
S113045086958170898301C0000081E09981913083
S113046009F080E00F900F90DF91CF910895CF9322
S1130470DF9300D01F92CDB7DEB78A836B8381E010
S11304809B81913009F080E089838A81882F90E0F4
S1130490092E000CAA0BBB0B41E050E02FE130E029
S11304A0841B950B2817390708F4CCC18C5A9F4F2D
S11304B0FC010C94B20B8AE290E02AE230E0F901EC
S11304C02081422F477F2981222F30E0220F331FC2
S11304D0220F331F220F331F242BFC012083B2C1B0
S11304E08AE290E02AE230E0F9012081422F4F7E37
S11304F02981222F30E022953295307F3227207FC8
S11305003227242BFC0120839DC184E290E024E265
S113051030E0F9012081422F4F7B2981222F30E0E6
S11305200024369527950794369527950794322FFE
S1130530202D242BFC01208385C184E290E024E259
S113054030E0F9012081422F4F772981222F30E0BA
S11305503695322F222737952795242BFC012083AB
S113056071C18AE290E02AE230E0F9012081422F51
S11305704F7D2981222F30E0220F331F229532959F
S1130580307F3227207F3227242BFC0120835AC15D
S11305908AE290E02AE230E0F9012081422F4F7B89
S11305A02981222F30E0002436952795079436952B
S11305B027950794322F202D242BFC01208342C140
S11305C08AE290E02AE230E0F9012081422F4F775D
S11305D02981222F30E03695322F2227379527950F
S11305E0242BFC0120832EC184E290E024E230E03D
S11305F0F9012081322F3E7F2981232BFC012083A6
S113060021C184E290E024E230E0F9012081422F0C
S11306104D7F2981222F30E0220F331F242BFC0130
S1130620208310C184E290E024E230E0F9012081CB
S1130630422F4B7F2981222F30E0220F331F220FBC
S1130640331F242BFC012083FDC084E290E024E2CC
S113065030E0F9012081422F477F2981222F30E0A9
S1130660220F331F220F331F220F331F242BFC01B1
S11306702083E8C084E290E024E230E0F9012081A4
S1130680422F4F7E2981222F30E022953295307FF0
S11306903227207F3227242BFC012083D3C084E21D
S11306A090E024E230E0F9012081422F4F7D29813E
S11306B0222F30E0220F331F22953295307F3227CC
S11306C0207F3227242BFC012083BCC087E290E0EA
S11306D027E230E0F9012081322F3E7F2981232B4C
S11306E0FC012083AFC087E290E027E230E0F9010B
S11306F02081422F4D7F2981222F30E0220F331F8A
S1130700242BFC0120839EC087E290E027E230E0A6
S1130710F9012081422F4B7F2981222F30E0220FC3
S1130720331F220F331F242BFC0120838BC087E24D
S113073090E027E230E0F9012081422F477F2981B0
S1130740222F30E0220F331F220F331F220F331FBB
S1130750242BFC01208376C087E290E027E230E07E
S1130760F9012081422F4F7E2981222F30E02295EA
S11307703295307F3227207F3227242BFC012083BF
S113078061C087E290E027E230E0F9012081422F46
S11307904F7D2981222F30E0220F331F229532957D
S11307A0307F3227207F3227242BFC0120834AC04C
S11307B087E290E027E230E0F9012081422F4F7B6D
S11307C02981222F30E00024369527950794369509
S11307D027950794322F202D242BFC01208332C02F
S11307E08AE290E02AE230E0F9012081322F3E7F54
S11307F02981232BFC01208325C08AE290E02AE290
S113080030E0F9012081422F4D7F2981222F30E0F1
S1130810220F331F242BFC01208314C08AE290E0B2
S11308202AE230E0F9012081422F4B7F2981222FD7
S113083030E0220F331F220F331F242BFC012083AF
S113084001C0000000000F900F900F90DF91CF9136
S11308500895CF93DF9300D0CDB7DEB78A83198292
S11308608A81882F90E0092E000CAA0BBB0B41E073
S113087050E02FE130E0841B950B2817390708F46A
S1130880D8C08C589F4FFC010C94B20B8AE290E0C4
S1130890FC01808186958695869581708983C9C07F
S11308A08AE290E0FC01808182958F708170898357
S11308B0C0C084E290E0FC01808182958695869593
S11308C0837081708983B5C084E290E0FC018081EB
S11308D0881F8827881F8983ACC08AE290E0FC01C6
S11308E0808182958695877081708983A2C08AE20F
S11308F090E0FC0180818295869586958370817055
S1130900898397C08AE290E0FC018081881F882750
S1130910881F89838EC084E290E0FC01808181700D
S1130920898387C084E290E0FC0180818695817090
S113093089837FC084E290E0FC018081869586955E
S11309408170898376C084E290E0FC018081869581
S113095086958695817089836CC084E290E0FC0161
S1130960808182958F708170898363C084E290E076
S1130970FC0180818295869587708170898359C036
S113098087E290E0FC0180818170898352C087E214
S113099090E0FC0180818695817089834AC087E25A
S11309A090E0FC018081869586958170898341C0A1
S11309B087E290E0FC01808186958695869581701A
S11309C0898337C087E290E0FC01808182958F7033
S11309D0817089832EC087E290E0FC01808182953A
S11309E0869587708170898324C087E290E0FC013A
S11309F0808182958695869583708170898319C0DC
S1130A008AE290E0FC0180818170898312C08AE2CD
S1130A1090E0FC0180818695817089830AC08AE216
S1130A2090E0FC018081869586958170898301C060
S1130A30000081E09981913009F080E00F900F90DF
S1130A40DF91CF910895CF93DF9300D01F92CDB75C
S1130A50DEB78A836B8381E09B81913009F080E06B
S1130A6089838A81882F90E0092E000CAA0BBB0B86
S1130A7041E050E02FE130E0841B950B2817390743
S1130A8008F42AC38C569F4FFC010C94B20B8AE2E3
S1130A9090E0FC018081869586958695882F90E06C
S1130AA081709927892B09F0EAC28BE290E02BE24E
S1130AB030E0F9012081422F477F2981222F30E045
S1130AC0220F331F220F331F220F331F242BFC014D
S1130AD02083D5C28AE290E0FC01808182958F70E8
S1130AE0882F90E081709927892B09F0CAC28BE284
S1130AF090E02BE230E0F9012081422F4F7E2981E2
S1130B00222F30E022953295307F3227207F322702
S1130B10242BFC012083B5C284E290E0FC01808197
S1130B208295869586958370882F90E081709927A9
S1130B30892B09F0A8C285E290E025E230E0F901B2
S1130B402081422F4F7B2981222F30E000243695CB
S1130B5027950794369527950794322F202D242B1B
S1130B60FC01208390C284E290E0FC018081881F14
S1130B708827881F882F90E081709927892B09F096
S1130B8084C285E290E025E230E0F9012081422F21
S1130B904F772981222F30E03695322F222737953F
S1130BA02795242BFC01208370C28AE290E0FC018B
S1130BB08081829586958770882F90E0817099272F
S1130BC0892B09F064C28BE290E02BE230E0F9015A
S1130BD02081422F4F7D2981222F30E0220F331FA5
S1130BE022953295307F3227207F3227242BFC0137
S1130BF020834DC28AE290E0FC0180818295869533
S1130C0086958370882F90E081709927892B09F04D
S1130C1040C28BE290E02BE230E0F9012081422FC8
S1130C204F7B2981222F30E00024369527950794A5
S1130C30369527950794322F202D242BFC012083F1
S1130C4028C28AE290E0FC018081881F8827881FDF
S1130C50882F90E081709927892B09F01CC28BE2C0
S1130C6090E02BE230E0F9012081422F4F77298177
S1130C70222F30E03695322F222737952795242BC3
S1130C80FC01208308C284E290E0FC018081882F6B
S1130C9090E081709927892B09F0FFC185E290E0EB
S1130CA025E230E0F9012081322F3E7F2981232B78
S1130CB0FC012083F2C184E290E0FC0180818695EE
S1130CC0882F90E081709927892B09F0E8C185E28B
S1130CD090E025E230E0F9012081422F4D7F298107
S1130CE0222F30E0220F331F242BFC012083D7C195
S1130CF084E290E0FC01808186958695882F90E0BF
S1130D0081709927892B09F0CCC185E290E025E216
S1130D1030E0F9012081422F4B7F2981222F30E0DE
S1130D20220F331F220F331F242BFC012083B9C150
S1130D3084E290E0FC018081869586958695882FD3
S1130D4090E081709927892B09F0ADC185E290E08C
S1130D5025E230E0F9012081422F477F2981222FAB
S1130D6030E0220F331F220F331F220F331F242B97
S1130D70FC01208398C184E290E0FC01808182958B
S1130D808F70882F90E081709927892B09F08DC18D
S1130D9085E290E025E230E0F9012081422F4F7E88
S1130DA02981222F30E022953295307F3227207F0F
S1130DB03227242BFC01208378C184E290E0FC01DB
S1130DC08081829586958770882F90E0817099271D
S1130DD0892B09F06CC185E290E025E230E0F9014D
S1130DE02081422F4F7D2981222F30E0220F331F93
S1130DF022953295307F3227207F3227242BFC0125
S1130E00208355C187E290E0FC018081882F90E027
S1130E1081709927892B09F04CC188E290E028E27F
S1130E2030E0F9012081322F3E7F2981232BFC0100
S1130E3020833FC187E290E0FC0180818695882F62
S1130E4090E081709927892B09F035C188E290E000
S1130E5028E230E0F9012081422F4D7F2981222FA1
S1130E6030E0220F331F242BFC01208324C187E2AE
S1130E7090E0FC01808186958695882F90E08170B2
S1130E809927892B09F019C188E290E028E230E023
S1130E90F9012081422F4B7F2981222F30E0220F3C
S1130EA0331F220F331F242BFC01208306C187E24A
S1130EB090E0FC018081869586958695882F90E048
S1130EC081709927892B09F0FAC088E290E028E222
S1130ED030E0F9012081422F477F2981222F30E021
S1130EE0220F331F220F331F220F331F242BFC0129
S1130EF02083E5C087E290E0FC01808182958F70B9
S1130F00882F90E081709927892B09F0DAC088E254
S1130F1090E028E230E0F9012081422F4F7E2981C0
S1130F20222F30E022953295307F3227207F3227DE
S1130F30242BFC012083C5C087E290E0FC01808162
S1130F40829586958770882F90E081709927892BE8
S1130F5009F0B9C088E290E028E230E0F90120818C
S1130F60422F4F7D2981222F30E0220F331F2295FB
S1130F703295307F3227207F3227242BFC012083B7
S1130F80A2C087E290E0FC018081829586958695D7
S1130F908370882F90E081709927892B09F095C080
S1130FA088E290E028E230E0F9012081422F4F7B73
S1130FB02981222F30E00024369527950794369511
S1130FC027950794322F202D242BFC0120837DC0EC
S1130FD08AE290E0FC018081882F90E0817099275B
S1130FE0892B09F074C08BE290E02BE230E0F90128
S1130FF02081322F3E7F2981232BFC01208367C06F
S11310008AE290E0FC0180818695882F90E08170CF
S11310109927892B09F05DC08BE290E02BE230E048
S1131020F9012081422F4D7F2981222F30E0220FA8
S1131030331F242BFC0120834CC08AE290E0FC0186
S1131040808186958695882F90E081709927892BD9
S113105009F041C08BE290E02BE230E0F9012081FD
S1131060422F4B7F2981222F30E0220F331F220F82
S1131070331F242BFC0120832EC000002DC0000050
S11310802BC0000029C0000027C0000025C00000BC
S113109023C0000021C000001FC000001DC00000CC
S11310A01BC0000019C0000017C0000015C00000DC
S11310B013C0000011C000000FC000000DC00000EC
S11310C00BC0000009C0000007C0000005C00000FC
S11310D003C0000001C0000000000F900F900F90AB
S11310E0DF91CF910895CF93DF9300D0CDB7DEB7D2
S11310F08A8319828A81882F90E0092E000CAA0B1A
S1131100BB0B41E050E02FE130E0841B950B281726
S1131110390708F4D8C28C549F4FFC010C94B20BCD
S11311208AE290E0FC018081869586958695882FD9
S113113090E081709927892B09F098C28BE290E0A6
S1131140FC018081869586958695882F90E0817034
S11311509927892B09F48AC281E0898387C28AE2AC
S113116090E0FC01808182958F70882F90E08170DF
S11311709927892B09F07CC28BE290E0FC018081E5
S113118082958F70882F90E081709927892B09F4BC
S11311906FC281E089836CC284E290E0FC018081AB
S11311A08295869586958370882F90E08170992723
S11311B0892B09F05FC285E290E0FC018081829571
S11311C0869586958370882F90E081709927892B66
S11311D009F450C281E089834DC284E290E0FC01AD
S11311E08081881F8827881F882F90E08170992725
S11311F0892B09F041C285E290E0FC018081881FBF
S11312008827881F882F90E081709927892B09F4FB
S113121033C281E0898330C28AE290E0FC0180819C
S1131220829586958770882F90E081709927892B05
S113123009F024C28BE290E0FC01808182958695BE
S11312408770882F90E081709927892B09F416C242
S113125081E0898313C28AE290E0FC018081829557
S1131260869586958370882F90E081709927892BC5
S113127009F006C28BE290E0FC018081829586959C
S113128086958370882F90E081709927892B09F4C3
S1131290F7C181E08983F4C18AE290E0FC01808196
S11312A0881F8827881F882F90E081709927892BB1
S11312B009F0E8C18BE290E0FC018081881F882757
S11312C0881F882F90E081709927892B09F4DAC14F
S11312D081E08983D7C184E290E0FC018081882F7A
S11312E090E081709927892B09F0CEC185E290E0C6
S11312F0FC018081882F90E081709927892B09F463
S1131300C3C181E08983C0C184E290E0FC01808193
S11313108695882F90E081709927892B09F0B6C1B2
S113132085E290E0FC0180818695882F90E08170B1
S11313309927892B09F4AAC181E08983A7C184E292
S113134090E0FC01808186958695882F90E08170DD
S11313509927892B09F09CC185E290E0FC018081EA
S113136086958695882F90E081709927892B09F4BA
S11313708FC181E089838CC184E290E0FC0180818B
S1131380869586958695882F90E081709927892B7C
S113139009F080C185E290E0FC0180818695869504
S11313A08695882F90E081709927892B09F472C162
S11313B081E089836FC184E290E0FC0180818295A1
S11313C08F70882F90E081709927892B09F064C170
S11313D085E290E0FC01808182958F70882F90E0F7
S11313E081709927892B09F457C181E0898354C1FD
S11313F084E290E0FC018081829586958770882F35
S113140090E081709927892B09F048C185E290E02A
S1131410FC018081829586958770882F90E0817089
S11314209927892B09F43AC181E0898337C187E27E
S113143090E0FC018081882F90E081709927892BAE
S113144009F02EC188E290E0FC018081882F90E0B1
S113145081709927892B09F423C181E0898320C1F4
S113146087E290E0FC0180818695882F90E081706E
S11314709927892B09F016C188E290E0FC0180814C
S11314808695882F90E081709927892B09F40AC1E9
S113149081E0898307C187E290E0FC018081869521
S11314A08695882F90E081709927892B09F0FCC0DC
S11314B088E290E0FC01808186958695882F90E0F3
S11314C081709927892B09F4EFC081E08983ECC0EE
S11314D087E290E0FC018081869586958695882F29
S11314E090E081709927892B09F0E0C088E290E0B0
S11314F0FC018081869586958695882F90E0817081
S11315009927892B09F4D2C081E08983CFC087E26F
S113151090E0FC01808182958F70882F90E081702B
S11315209927892B09F0C4C088E290E0FC018081EE
S113153082958F70882F90E081709927892B09F408
S1131540B7C081E08983B4C087E290E0FC01808168
S1131550829586958770882F90E081709927892BD2
S113156009F0A8C088E290E0FC018081829586950C
S11315708770882F90E081709927892B09F49AC08D
S113158081E0898397C087E290E0FC0180818295A5
S1131590869586958370882F90E081709927892B92
S11315A009F08AC088E290E0FC01808182958695EA
S11315B086958370882F90E081709927892B09F490
S11315C07BC081E0898378C08AE290E0FC0180815D
S11315D0882F90E081709927892B09F06FC08BE2E6
S11315E090E0FC018081882F90E081709927892BFD
S11315F009F464C081E0898361C08AE290E0FC015F
S113160080818695882F90E081709927892B09F035
S113161057C08BE290E0FC0180818695882F90E092
S113162081709927892B09F44BC081E0898348C0D4
S11316308AE290E0FC01808186958695882F90E06F
S113164081709927892B09F03DC08BE290E0FC0161
S1131650808186958695882F90E081709927892BC3
S113166089F181E089832EC000002DC000002BC0C9
S1131670000029C0000027C0000025C0000023C0CE
S1131680000021C000001FC000001DC000001BC0DE
S1131690000019C0000017C0000015C0000013C0EE
S11316A0000011C000000FC000000DC000000BC0FE
S11316B0000009C0000007C0000005C0000003C00E
S11316C0000001C0000089810F900F90DF91CF913D
S11316D00895CF93DF931F92CDB7DEB71982898126
S11316E08F5F898389818F5F898389818F5F8983F4
S11316F000000F90DF91CF91089508959093070112
S11317008093060108959093030180930201089544
S113171090930B0180930A0108959093090180939B
S11317200801089590930501809304010895E091C0
S11317300001F091010109950895E0910601F091ED
S1131740070109950895E0910201F09103010995BB
S11317500895E0910A01F0910B01099508950E9402
S1131760690B0895EE0FFF1F0590F491E02D099485
S1071770F894FFCF17
S10517747D0BE7
S9030000FC
