S01600004D6F727068546573742D53414D442E7372656316
S113000098260020150100000D0200000D020000DA
S113001000000000000000000000000000000000DC
S11300200000000000000000000000000D020000BD
S113003000000000000000000D020000091600008E
S11300400D0200000D0200000D0200000D02000070
S11300500D0200000D0200000D0200000D02000060
S11300600D0200000D0200000D0200000D02000050
S11300700D0200000D0200000D0200000D02000040
S11300800D0200000D0200000D0200000D02000030
S11300900D02000000000000000000000D0200003E
S11300A00D0200000D0200000D0200000D02000010
S11300B00000000010B5064C2378002B07D1054B37
S11300C0002B02D0044800E000BF0123237010BDC0
S11300D04806002000000000CC1D0000084B10B5AD
S11300E0002B03D00749084800E000BF0748036815
S11300F0002B00D110BD064B002BFBD09847F9E72D
S1130100000000004C060020CC1D0000CC1D0000A7
S11301100000000080B582B000AF2F4B7B602F4BF6
S11301203B607A683B689A420CD007E03B681A1D32
S11301303A607A68111D796012681A603A68284B2F
S11301409A42F3D3274B3B6004E03B681A1D3A60A4
S113015000221A603A68244B9A42F6D3234B7B6000
S1130160234B7A68FF218A439A60224A90235B00DA
S11301700221D150204AD37803218B43191C022336
S11301800B43D3701C4AD3780C218B43191C0823CE
S11301900B43D370194A937B30218B43191C2023C2
S11301A00B439373154A937B0C218B43191C08232F
S11301B00B439373114A937B03218B43191C022332
S11301C00B4393730E4A536880210B4353600D4BCA
S11301D098470D4B9847FEE7CC1D00000000002017
S11301E04406002048060020940600200000000079
S11301F000ED00E000700041005000410048004163
S113020000400041511B00004103000080B500AFD5
S1130210FEE7000080B500AF024B034A1A60C046F7
S1130220BD4680BD0000002040420F0080B500AFF5
S1130230224B9847224B1800224B9847224B180018
S1130240224B9847224B1800224B9847224B180008
S1130250224B9847224B1800224B9847224B1800F8
S1130260224B9847224B1800224B9847224B1800E8
S1130270224B9847224B1800224B9847224B1800D8
S1130280224B9847224B1800224B9847224B1800C8
S1130290224B9847224B1800224B9847224B1800B8
S11302A0224B9847224B1800224B9847224B1800A8
S11302B0224B9847C046BD4680BDC046A9160000E3
S11302C095050000D91600006D060000E516000033
S11302D025070000F116000045080000FD16000087
S11302E0CD080000091700004D0A00001517000092
S11302F0350D000089170000C90F00009517000094
S113030019100000A117000055100000AD170000DF
S1130310A1100000B9170000F1100000C51700007B
S113032075130000D11700002D16000045170000BA
S11303304916000051170000911600005D170000D7
S113034090B58BB002AF434B9847434B984700217D
S11303501F20424B984701211F20414B9847012100
S113036024203E4B9847132100203E4B98471421EC
S113037000203D4B984796239901012300930223C3
S113038008220020394CA047394B98471623FB1804
S113039000221A703B00180014231A000021354B68
S11303A09847354B984703000C00BB61FC61172349
S11303B0FB1800221A70B869F969304C0A2200232C
S11303C0A0471C001300190022001423FB180A1C68
S11303D01A80B869F969294C0A220023A04703004E
S11303E00C00BB61FC611723FB1800229A56D3B2A0
S11303F00133D9B21723FB1819703B0052001421A2
S113040079180988D152BB69FA691343D3D116E02C
S11304101723FB1800229A563B005200D35A30335C
S11304209BB219000020164B98471723FB181B7822
S11304305BB2DBB2013BDAB21723FB181A70172345
S1130440FB181B787F2BE3D90A2100200C4B98471B
S1130450A7E7C046150200002D0200002117000086
S1130460311700000518000015180000DD17000002
S113047069170000991B0000791700003D1900005E
S1130480F517000080B582B000AF0200FB1D1A70A2
S1130490FB1D1B787F2B09D8064BFA1D127811001F
S11304A01F220A40012191400A001A60C046BD463D
S11304B002B080BD00E100E0B0B582B000AF020040
S11304C03960FB1D1A70FB1D1B787F2B28D82F4C1D
S11304D0FB1D1B785BB29B082C49FA1D127852B2A3
S11304E09208C03292005258F91D0978080003217D
S11304F00140C900FF2088400100C94311403A6807
S11305009201FF201040FA1D1278150003222A40A0
S1130510D200904002000A43C0339B001A5131E0DC
S11305201B4CFB1D1B781A000F231340083B990832
S1130530174AFB1D1B7818000F230340083B9B0838
S113054006339B00D31804331B68FA1D127810007D
S113055003220240D200FF2090400200D2431A40FE
S11305603B689B01FF201840FB1D1B781D000323E3
S11305702B40DB00984003001A438B1D9B00E318BB
S113058004331A60C046BD4602B0B0BD00E100E0CD
S113059000ED00E080B584B000AF0200FB1D1A70CE
S11305A0BB1D0A1C1A70BB1D1B78013B5A425341E8
S11305B0DAB20F23FB181A70FB1D1B785BB2002BF9
S11305C04BDDFB1D1B785BB2402B46DCFB1D1B780F
S11305D05BB25A1E0E23F918224813005B009B18C5
S11305E05B001B5C0B70FB1D1B785BB25A1E0D235A
S11305F0F9181C4813005B009B185B00C3180133F7
S11306001B780B700E23FB181B787F2B25D80F2328
S1130610FB181B78012B10D113490E23FB181B78F0
S11306205BB20D22BA18127852B201209040020037
S1130630DB01CB1818331A600FE00B490E23FB18AB
S11306401B785BB20D22BA18127852B20120904086
S11306500200DB01CB1814331A60C046BD4604B057
S113066080BDC046040000200044004180B584B031
S113067000AF0200FB1D1A70FB1D1B785BB25A1EF3
S11306800F23F918254813005B009B185B001B5CC3
S11306900B70FB1D1B785BB25A1E0E23F9181F4802
S11306A013005B009B185B00C31801331B780B70AD
S11306B0FB1D00229A56194913005B009B185B002E
S11306C05B56002B25DB16480F23FB1800229A5695
S11306D00E23FB181B785BB24021D2018218D31879
S11306E05A18137802210B4313700D4A0F23FB1879
S11306F01B785BB2DB01D31820331A680E23FB1876
S11307001B785BB2DA4013000122134001D00123AD
S113071000E000231800BD4604B080BD04000020A2
S11307200044004180B584B000AF0200FB1D1A7084
S1130730BB1D0A1C1A70BB1D1B78013B5A42534156
S1130740DAB20F23FB181A70FB1D1B785BB2002B67
S11307506FDDFB1D1B785BB2402B6ADCFB1D1B7835
S11307605BB25A1E0E23F918344813005B009B1821
S11307705B001B5C0B70FB1D1B785BB25A1E0D23C8
S1130780F9182E4813005B009B185B00C318013353
S11307901B780B700E23FB181B787F2B49D80F2373
S11307A0FB181B78012B22D125490E23FB181B783B
S11307B05BB20D22BA18127852B2012090400200A6
S11307C0DB01CB1808331A601D480E23FB180022E6
S11307D09A560D23FB181B785BB24021D201821874
S11307E0D3185A18137802218B43137021E014494B
S11307F00E23FB181B785BB20D22BA18127852B282
S1130800012090400200DB01CB1804331A600C482D
S11308100E23FB1800229A560D23FB181B785BB29B
S11308204021D2018218D3185A18137802210B439D
S11308301370C046BD4604B080BDC046040000200D
S11308400044004180B584B000AF0200FB1D1A7063
S1130850FB1D1B785BB2002B2EDDFB1D1B785BB2EE
S1130860402B29DCFB1D1B785BB25A1E0F23F918A1
S1130870144813005B009B185B001B5C0B70FB1D92
S11308801B785BB25A1E0E23F9180E4813005B0046
S11308909B185B00C31801331B780B700F23FB18E4
S11308A01B787F2B08D8084A0F23FB181B785BB2F0
S11308B0DB019B58012300E000231800BD4604B06F
S11308C080BDC046040000200044004180B584B0CF
S11308D000AF0200FB1D1A70BB1D0A1C1A70FB1D21
S11308E01B785BB2002B00DCA7E0FB1D1B785BB21E
S11308F0402B00DDA1E0FB1D1B785BB25A1E0F23C9
S1130900F918504813005B009B185B001B5C0B70CC
S1130910FB1D1B785BB25A1E0E23F91849481300BD
S11309205B009B185B00C31801331B780B700F230B
S1130930FB181B787F2B00D97FE043490F23FB185A
S11309401B785BB20E22BA18127852B20120904082
S11309500200DB01CB1804331A60BB1D1B78012B8A
S113096002D0022B23D045E037490F23FB181B7814
S11309705BB20E22BA18127852B2012090400200E3
S1130980DB01CB1818331A602F480F23FB18002201
S11309909A560E23FB181B785BB24021D2018218B1
S11309A0D3185A18137804210B43137045E02649D1
S11309B00F23FB181B785BB20E22BA18127852B2BE
S11309C0012090400200DB01CB1814331A601E484A
S11309D00F23FB1800229A560E23FB181B785BB2D8
S11309E04021D2018218D3185A18137804210B43DA
S11309F0137022E014480F23FB1800229A560E238A
S1130A00FB181B785BB24021D2018218D3185A1804
S1130A10137804218B4313700B490F23FB181B78A5
S1130A205BB20E22BA18127852B201209040020032
S1130A30DB01CB1814331A60FFE7C046BD4604B08F
S1130A4080BDC046040000200044004180B584B04D
S1130A5000AF0200FB1D1A70FB1D1B785BB2002B5C
S1130A603BDDFB1D1B785BB2402B36DCFB1D1B788A
S1130A705BB25A1E0F23F9181A4813005B009B1827
S1130A805B001B5C0B70FB1D1B785BB25A1E0E23B4
S1130A90F918144813005B009B185B00C31801335A
S1130AA01B780B7010480F23FB1800229A560E2354
S1130AB0FB181B785BB24021D2018218D3185B1853
S1130AC01B785B07DB0FDBB2012B06D1064A0F2331
S1130AD0FB181B785BB2DB019B5800231800BD4652
S1130AE004B080BD040000200044004190B583B0F0
S1130AF000AF040008001100FB1D221C1A70BB1D6E
S1130B00021C1A707B1D0A1C1A707B1D1B780122A3
S1130B101340DBB2002B1BD11C48BB1D1B787A1D74
S1130B2012785208D2B21400FA1D12780F210A402A
S1130B30D1B23022DB01C3181B199A1813780F2085
S1130B4008400F218B43191C031C0B43137019E03D
S1130B500E48BB1D1B787A1D12785208D2B21400BD
S1130B60FA1D12780F210A40D1B23022DB01C318DA
S1130B701B199A18137808010F210B40191C031C28
S1130B800B431370C046BD4603B090BD0044004102
S1130B9080B582B000AF0200FB1D1A70FB1D1B78EC
S1130BA0052B10D89A000A4BD3181B689F46094B93
S1130BB00AE0094B08E0094B06E0094B04E0094B45
S1130BC002E0094B00E0034B1800BD4602B080BDB3
S1130BD0841D000000080042000C00420010004286
S1130BE00014004200180042001C004280B584B08A
S1130BF000AF0200FB1D1A700F23FB1800221A70AD
S1130C000E23FB18FE221A70FB1D1B7818003F4BA5
S1130C1098470300BB60BB683D4A934208D10F2349
S1130C20FB1814221A700E23FB1809221A703FE0D5
S1130C30BB68384A934208D10F23FB1815221A7057
S1130C400E23FB180A221A7032E0BB68324A934220
S1130C5008D10F23FB1816221A700E23FB180B223F
S1130C601A7025E0BB682D4A934208D10F23FB1864
S1130C7017221A700E23FB180C221A7018E0BB6896
S1130C80274A934208D10F23FB1818221A700E2307
S1130C90FB180D221A700BE0BB68224A934207D15D
S1130CA00F23FB1819221A700E23FB180E221A7038
S1130CB00E23FB181B785BB2023323D00E23FB18E0
S1130CC01B785BB21800184B98470E23FB181B784F
S1130CD05BB203211800154B984715490F23FB18E5
S1130CE01B789BB23F2213409BB28022D201134354
S1130CF09BB24B80C0460E4B5B78DBB25BB2002BE1
S1130D00F9DB00E0C046BD4604B080BD910B000095
S1130D1000080042000C004200100042001400428F
S1130D2000180042001C004285040000B9040000C1
S1130D30000C004090B587B000AF0400396010008B
S1130D401900FB1D221C1A70BB1D021C1A707B1D8E
S1130D500A1C1A70FB1D1B78052B00D919E1FB1D19
S1130D601B785BB218008D4B9847FB1D1B7818004D
S1130D708B4B984703007B617B691A6801210A4306
S1130D801A60C0467B691B68DB07DB0FDBB2002BF4
S1130D90F8D17B69DB69DB07DB0FDBB2002BF1D118
S1130DA01323FB1810221A70FB1D1B787D4A5B006D
S1130DB0D318013300229A561223FB181A70FB1D14
S1130DC01A78784B5200D2561123FB181A70FB1D67
S1130DD01B78754A5B00D318013300229A561023FE
S1130DE0FB181A70FB1D1A786F4B5200D2560F2352
S1130DF0FB181A701023FB1800229A56FB1D1B784F
S1130E0011001800694B98470F23FB1800229A56CB
S1130E10FB1D1B7811001800654B98477B691A6805
S1130E201C218A4304210A431A607B691A686149B8
S1130E300A40802189010A431A605F4B1B68D8006D
S1130E401323FB181B783A685A435C4B11009847EC
S1130E500300BB60BB68DBB21A1C07231340D9B282
S1130E607A6993894803DB04DB0C191C031C0B43CC
S1130E709381BB68DB089BB2DB04DB0C99B27A6913
S1130E809389C904C80C5B0B5B03191C031C0B433B
S1130E9093817B1D1B78023B5A1E9341DBB21A1CC3
S1130EA00F231340D9B27B691A680F200140090649
S1130EB0434802400A431A607B1D1B78022B0DD065
S1130EC07B1D1B785A1E9341D9B27B695A68012055
S1130ED0014049033B4802400A435A607B691A684F
S1130EE08021C9050A431A60BB1D1B78082B0DD04D
S1130EF002DC052B1EDB0FE0092B1BD17B695A6832
S1130F0007218A4301210A435A6018E07B695A6821
S1130F1007218A435A6012E0BB1D1B780722134045
S1130F20D9B27B695A6807200140072082430A43EB
S1130F305A6004E07B695A6807218A435A6028236F
S1130F40FB181B78013B5A1E9341D9B27B695A683E
S1130F50012001408901402082430A435A607B6991
S1130F605A68802149020A435A607B695A68802181
S1130F7089020A435A607B691A6802210A431A608B
S1130F80C0467B69DB699B07DB0FDBB2002BF8D122
S1130F9000E0C046BD4607B090BDC046ED0B000062
S1130FA0910B000098010020A4010020751300009B
S1130FB0F1100000FF1FFFFF0000002025180000B3
S1130FC0FFFFFFF0FFDFFFFF80B584B000AF02003A
S1130FD0FB1D1A703B1D0A1C1A80FB1D1B78052B78
S1130FE013D8FB1D1B7818000A4B98470300FB60BD
S1130FF0C046FB681B7EDB07DB0FDBB2002BF8D09F
S1131000FB683A1D12881A8500E0C046BD4604B04C
S113101080BDC046910B000080B584B000AF0200D3
S1131020FB1D1A70FB1D1B781800094B9847030021
S1131030FB60C046FB681B7E5B07DB0FDBB2002B4B
S1131040F8D0FB681B8D9BB21800BD4604B080BD70
S1131050910B000080B586B000AFB9607A600F23B1
S1131060FB18021C1A7000237B610EE07B695B0095
S1131070BA68D3181A880F23FB181B7811001800BC
S1131080064B98477B6901337B617A697B689A4296
S1131090ECD3C046BD4606B080BDC046C90F0000B3
S11310A090B587B000AFB9607A603B600F23FB183E
S11310B0021C1A7000237B610EE07B695B00BA6836
S11310C0D4180F23FB181B781800084B984703000B
S11310D023807B6901337B617A697B689A42ECD314
S11310E000231800BD4607B090BDC046191000008B
S11310F080B586B000AF0200FB1D1A70BB1D0A1C30
S11311001A70FB1D1B78052B00D921E1FB1D1B78F0
S11311101800914B98470300FB60BB1D1B785BB222
S11311205A1E0B23F9188D4813005B009B185B00B3
S11311301B5C0B70BB1D1B785BB25A1E0A23F9188B
S1131140864813005B009B185B00C31801331B78AF
S11311500B701723FB1800221A701623FB180022A9
S11311601A701523FB1800221A70BB1D00229A5610
S11311707A4913005B009B185B00CB1802331B7881
S11311805BB21A00FB1D1B789A4244D1BB1D1B782D
S11311905BB25A1E714913005B009B185B00CB18AD
S11311A0033300229A560923FB181A701423FB18E0
S11311B000221A7029E01423FB181A7868491300D6
S11311C09B009B185B561A000923FB181B789A4254
S11311D014D11623FB1801221A701523FB180022C0
S11311E01A701423FB181A781723F9185C48130093
S11311F09B009B18C31804331B780B701423FB1833
S11312001A781423FB1801321A701423FB181B7864
S1131210032BD0D954E0BB1D00229A564F4913002A
S11312205B009B185B00CB1804331B785BB21A007D
S1131230FB1D1B789A4243D1BB1D1B785BB25A1E1F
S1131240464913005B009B185B00CB180533002252
S11312509A560823FB181A701323FB1800221A70DD
S113126029E01323FB181A783D4913009B009B18AF
S11312705B561A000823FB181B789A4214D11623D4
S1131280FB1801221A701523FB1801221A7013236C
S1131290FB181A781723F918314813009B009B1880
S11312A0C31804331B780B701323FB181A78132309
S11312B0FB1801321A701323FB181B78032BD0D9A7
S11312C01623FB181B78002B43D01523FB181B781F
S11312D0002B0AD00B23FB1819780A23FB181B7860
S11312E01A0003201F4B984709E00B23FB181978B9
S11312F00A23FB181B781A0002201A4B984717235D
S1131300FB181B7803221340D9B2FB681A68032028
S113131001400904144802400A431A6013480B238D
S1131320FB1800229A560A23FB181B785BB2402153
S1131330D2018218D3185A18137801210B43137061
S1131340FB1D1A780A4B5200B91D0978D15400E0EC
S1131350C046BD4606B080BD910B000004000020CD
S113136084010020ED0A0000FFFFFCFF004400415F
S1131370A401002080B584B000AF0200FB1D1A70E8
S1131380BB1D0A1C1A70FB1D1B78052B00D92AE112
S1131390FB1D1B781800964B98470300FB60BB1D90
S11313A01B785BB25A1E0B23F918924813005B009A
S11313B09B185B001B5C0B70BB1D1B785BB25A1E39
S11313C00A23F9188B4813005B009B185B00C318B1
S11313D001331B780B70BB1D1B785BB25A1E0923AB
S11313E0F918844813005B009B185B00C318023390
S11313F01B780B70BB1D1B785BB25A1E0823F918AF
S11314007C4813005B009B185B00C31804331B78F3
S11314100B70BB1D1B785BB25A1E764913005B0030
S11314209B185B00CB1802331B785BB21A00FB1DC0
S11314301B789A4262D170490B23FB181B785BB26C
S11314400A22BA18127852B2012090400200DB013D
S1131450CB1804331A6068480B23FB1800229A56F1
S11314600A23FB181B785BB24021D2018218D318DF
S11314705A18137802210B4313700B23FB181978A5
S11314800A23FB181B781A0002205C4B98475A4821
S11314900B23FB1800229A560A23FB181B785BB215
S11314A04021D2018218D3185A18137801210B4312
S11314B01370BB1D1B785BB25A1E4E4913005B00B0
S11314C09B185B00CB1803331B785BB2DBB21A1C8E
S11314D003231340D9B2FB681A68032001400905AD
S11314E0474802400A431A60FB1D1B78454A5B00CB
S11314F0D3180133BA1D12781A7075E0BB1D1B781E
S11315005BB25A1E3B4913005B009B185B00CB186F
S113151004331B785BB21A00FB1D1B789A4263D11B
S11315200B23FB1819780A23FB181B781A000320D5
S1131530324B984730480B23FB1800229A560A2353
S1131540FB181B785BB24021D2018218D3185A18B9
S1131550137801210B431370BB1D1B785BB25A1E19
S1131560244913005B009B185B00CB1805331B78E0
S11315705BB2DBB21A1C03231340D9B2FB681A68AE
S11315800320014009051E4802400A431A601A4913
S11315900B23FB181B785BB20A22BA18127852B2DA
S11315A0012090400200DB01CB1804331A6012487A
S11315B00B23FB1800229A560A23FB181B785BB2F4
S11315C04021D2018218D3185A18137802210B43F0
S11315D01370FB1D1B780B4A5B00D3180133BA1D33
S11315E012781A7000E0C046BD4604B080BDC04603
S11315F0910B00000400002000440041ED0A0000AB
S1131600FFFFCFFFA401002090B500AF064B5C683C
S11316101B68012100225B185441034A1360546083
S1131620C046BD4690BDC0466806002080B582B065
S113163000AF0200FB1D1A70BB1D0A1C1A70C046C5
S1131640BD4602B080BD000080B500AF0C4B002247
S11316501A600B4B0B4A5A6001235B4203211800AA
S1131660094B9847064B00229A60054B07221A60E3
S113167001235B421800054B9847C046BD4680BD18
S113168010E000E0E7030000B90400008504000056
S113169090B500AF034B5C681B6818002100BD4681
S11316A090BDC0466806002080B500AF01235B42B0
S11316B002211800054B9847054B054A126AFC2184
S11316C00A431A62C046BD4680BDC046B904000044
S11316D00004004070470000014B18607047C0468A
S11316E0B0010020014B58607047C046B001002093
S11316F0014B98607047C046B0010020014BD86090
S11317007047C046B0010020014B18617047C046C5
S1131710B0010020014B58617047C046B001002061
S113172010B5024B9B68984710BDC046B00100201D
S113173010B5024B1B69984710BDC046B00100208C
S113174070470000014B18607047C046D00100206C
S1131750014B58607047C046D0010020014B98608F
S11317607047C046D001002010B5024B5B68984713
S113177010BDC046D001002010B5014B984710BDE4
S11317809116000070470000014B18607047C04676
S1131790DC010020014B98607047C046DC0100204A
S11317A0014BD8607047C046DC010020014B9861B2
S11317B07047C046DC010020014B18627047C046E8
S11317C0DC010020014BD8627047C046DC010020D8
S11317D0014B18637047C046DC01002010B582B08D
S11317E004AC24780094024C2468A04702B010BDD5
S11317F0DC01002010B5024B9B68984710BDC04621
S1131800DC01002010B5024BDB6A984710BDC046CE
S1131810DC01002010B5024B1B6B984710BDC0467D
S1131820DC010020002243088B4274D303098B425D
S11318305FD3030A8B4244D3030B8B4228D3030C9C
S11318408B420DD3FF22090212BA030C8B4202D33E
S11318501212090265D0030B8B4219D300E0090A66
S1131860C30B8B4201D3CB03C01A5241830B8B426F
S113187001D38B03C01A5241430B8B4201D34B0358
S1131880C01A5241030B8B4201D30B03C01A5241BD
S1131890C30A8B4201D3CB02C01A5241830A8B4242
S11318A001D38B02C01A5241430A8B4201D34B022B
S11318B0C01A5241030A8B4201D30B02C01A52418F
S11318C0CDD2C3098B4201D3CB01C01A5241830943
S11318D08B4201D38B01C01A524143098B4201D37D
S11318E04B01C01A524103098B4201D30B01C01AA8
S11318F05241C3088B4201D3CB00C01A5241830822
S11319008B4201D38B00C01A524143088B4201D34E
S11319104B00C01A5241411A00D2014652411046AE
S11319207047FFE701B5002000F006F802BDC0468D
S11319300029F7D076E770477047C046002B11D1D5
S1131940002A0FD1002900D1002802D00021C94368
S1131950081C07B4024802A14018029003BDC04607
S1131960D9FFFFFF03B4684601B5029800F006F8FA
S1131970019B9E4602B00CBC7047C046F0B557466A
S11319804E464546DE46E0B5040083B00D0092465F
S113199099468B422FD82CD04946504600F0AEF8D9
S11319A029000600200000F0A9F8331A9846203BCD
S11319B09B4600D574E053465A4693401F00534655
S11319C0424693401E00AF4229D826D05B46A41B52
S11319D0BD41002B00DA79E000220023009201933C
S11319E001235A46934001930123424693400093B6
S11319F019E08242D0D900220023009201930C9B6B
S1131A00002B01D01C605D600098019903B03CBCC0
S1131A1090469946A246AB46F0BDA342D6D90022D1
S1131A200023009201934346002BE8D0FB07720881
S1131A301A4346467B080EE0AB4201D1A2420CD8C1
S1131A40A41A9D41012024196D410021013E24184E
S1131A504D41002E06D0AB42EED9013E24196D4112
S1131A60002EF8D15B460098019900196941002BBA
S1131A7022DB2B005A46D3402A004446E2401C0095
S1131A805B461500002B2CDB26009E40330026000D
S1131A904746BE403200801A994100900191AEE75A
S1131AA0424620239B1A5246DA40414613004A46D6
S1131AB08A4017001F4382E7424620239B1A2A00CC
S1131AC046469A402300F3401343D5E74246202379
S1131AD000219B1A0022009101920122DA40019216
S1131AE082E74246202326009B1ADE402F00B4469C
S1131AF0974066463B003343C9E7C04610B500290A
S1131B0003D100F007F8203002E0081C00F002F8CE
S1131B1010BDC0461C2101231B04984201D3000CB4
S1131B2010391B0A984201D3000A08391B0998424C
S1131B3001D30009043902A2105C40187047C04662
S1131B400403020201010101000000000000000082
S1131B5070B50D4E0D4D0024AD1BAD1005D0A30086
S1131B60F35801349847A542F9D100F019F9084E09
S1131B70084D0024AD1BAD1005D0A300F35801346B
S1131B809847A542F9D170BDAC1D0000AC1D000002
S1131B90AC1D0000B41D0000F0B5830743D0541EF3
S1131BA0002A3FD0CEB20200032502E01A00013C15
S1131BB038D3531C16702B42F8D1032C2AD9FF2298
S1131BC00A40150215432A0415430F2C14D9270083
S1131BD01A00103F3E09013636019E191560556002
S1131BE09560D56010329642F8D10F229743103792
S1131BF0DB191440032C0DD91A00271FBE08013627
S1131C00B6009E1920C2B242FCD103229743043786
S1131C10DB191440002C05D0C9B21C19197001330A
S1131C209C42FBD1F0BD14000300C6E7034B10B582
S1131C30002B02D0024800F005F810BD000000009F
S1131C40551C000010B5010000230022002000F004
S1131C501FF810BD70B5094B094CE41AA41009D043
S1131C60084AA518AD00ED182B68013C9847043DBF
S1131C70002CF9D100F09EF870BDC046C01D0000D4
S1131C80C41D0000FFFFFF3F7047C0467047C046B9
S1131C90F0B54E464546DE465746E0B5364D83B070
S1131CA00600286898460F009146FFF7EDFF334B76
S1131CB01C68A4235B00E058002852D043681F2B03
S1131CC013DC5A1C0192002E28D1019A02339B0086
S1131CD042601F502868FFF7D9FF002003B03CBCC6
S1131CE090469946A246AB46F0BD254B002B3DD00D
S1131CF0C820400000E000BF002837D0A422002301
S1131D005200A15843600160A05040328350043215
S1131D108350013301930023002ED6D09A009246BB
S1131D2082444A46882154466250C4225200914655
S1131D3081444A468739994012688B460A4394463F
S1131D404A4661461160842241465200A150022E47
S1131D50BBD102005C468D32FF3211680C43146023
S1131D60B3E720004D30FF30E050A7E72868FFF7C5
S1131D708DFF01204042B1E7400600209C1D000079
S1131D8000000000AE0B0000B20B0000B60B000018
S1131D90BA0B0000BE0B0000C20B000018020020AA
S1131DA0F8B5C046F8BC08BC9E4670472D1C000020
S1131DB0DD000000F8B5C046F8BC08BC9E4670477C
S1071DC0B500000066
S10B1DC4B8FBFF7F01000000E1
S1131DCC40420F000000FFFF01000001FFFF010172
S1131DDC0002FFFFFFFF0003FFFFFFFF0104FFFFF3
S1131DECFFFF0105FFFFFFFFFFFFFFFFFFFFFFFFEB
S1131DFCFFFFFFFF0106FFFFFFFF0107FFFFFFFFD0
S1131E0C0108FFFF04000109FFFF04010004FFFFA8
S1131E1C00000005FFFF00010006FFFF00020007A1
S1131E2CFFFF00030008000002000009000102018A
S1131E3C000A00020202000B00030203FFFFFFFF73
S1131E4CFFFFFFFFFFFFFFFF010AFFFF0402010B6F
S1131E5CFFFF0403010C0400FFFF010D0401FFFF4D
S1131E6C010E0402FFFF010F0403FFFF000C02002C
S1131E7C0400000D02010401000E02020402000F12
S1131E8C02030403FFFFFFFFFFFFFFFFFFFFFFFF42
S1131E9C00100100030000110101030100120102F2
S1131EAC030200130103030301100500FFFF0111DA
S1131EBC0501FFFF001405020302001505030303CB
S1131ECC00160300050000170301050100180302A6
S1131EDC0502001903030503FFFFFFFFFFFFFFFFCC
S1131EECFFFFFFFF0116FFFF05020117FFFF0503AC
S1131EFC001BFFFFFFFFFFFFFFFFFFFF001CFFFFA7
S1131F0CFFFFFFFFFFFFFFFFFFFFFFFFFFFFFFFFD1
S1131F1CFFFFFFFF001EFFFF0102001FFFFF010375
S1131F2C011EFFFF0500011FFFFF05010100FFFF5C
S1131F3C05020101FFFF05030102FFFF0500010378
S1131F4CFFFF05010001FFFF000203FFFF0100FF7B
S1131F5C020302FFFFFFFF03111323251D1F2B2D6B
S1131F6C191B2729FFFFFFFFFFFFFFFFFFFFFFFFE9
S1131F7CD5160000D5160000D5160000D5160000A5
S1131F8CD5160000D5160000D5160000D516000095
S1131F9C411700004117000041170000851700008D
S1131FAC85170000851700008517000085170000B1
S1131FBC85170000851700008517000085170000A1
S1131FCC8517000085170000851700008517000091
S1131FDC8517000085170000000000000405002090
S1131FEC6C050020D4050020000000000000000057
S1131FFC00000000000000000000000000000000D1
S113200C00000000000000000000000000000000C0
S113201C00000000000000000000000000000000B0
S113202C00000000000000000000000000000000A0
S113203C0000000000000000000000000000000090
S113204C0000000000000000000000000000000080
S113205C0000000000000000000000000000000070
S113206C0000000000000000000000000000000060
S113207C0000000000000000000000000000000050
S113208C01000000000000000E33CDAB34126DE6ED
S113209CECDE05000B000000000000000000000056
S11320AC0000000000000000000000000000000020
S11320BC0000000000000000000000000000000010
S11320CC0000000000000000000000000000000000
S11320DC00000000000000000000000000000000F0
S107240C7006002032
S9030000FC
