:020000040000FA
:1000000018050020C10000002701000029010000A0
:10001000FFFFFFFFFFFFFFFFFFFFFFFFFFFFFFFFF0
:10002000FFFFFFFFFFFFFFFFFFFFFFFF2B010000B0
:10003000FFFFFFFFFFFFFFFF2D0100002F0100006A
:1000400031010000310100003101000031010000E8
:1000500031010000310100003101000031010000D8
:1000600031010000FFFFFFFF3101000031010000FE
:10007000310100003101000031010000FFFFFFFFEE
:10008000FFFFFFFF310100003101000031010000DE
:100090003101000031010000310100003101000098
:1000A0003101000031010000310100003101000088
:1000B0003101000031010000310100003101000078
:1000C0001F4820482048004720480169002908D1DE
:1000D0004169002905D18169002902D1C16900293E
:1000E00009D01B48C1680901090D00290ED0052956
:1000F0000CD006290AD0BFF34F8F1648164901606D
:1001000016491548C860BFF34F8FFEE711480168D4
:100110001148884200D070471148124901600D48CB
:10012000114901607047FEE7FEE7FEE7FEE7FEE7E4
:10013000FEE700000D480E490C4A0E4B70470000C8
:10014000C9000000D5050000790100000003084047
:1001500080010840000000200400FA0500ED00E0E6
:10016000008108400100000000000000180300208A
:10017000180500201803002000F002F800F03EF8F7
:100180000CA030C8083824182D18671EA246AB46AC
:1001900054465D46AC4201D100F030F87E460F3E39
:1001A000B6460FCC0126334200D0FB1A3343A24699
:1001B000AB461847280A0000480A0000103A02D34C
:1001C00078C878C1FAD8520701D330C830C101D5F8
:1001D00004680C60704700000023002400250026FE
:1001E000103A01D378C1FBD8520700D330C100D5F3
:1001F0000B6070471FB51FBD10B510BD00F068F94A
:100200001146FFF7F7FF00F093FA00F080F903B40E
:10021000FFF7F2FF03BC00F0D5F901E004C0091FAD
:100220000429FBD28B0701D50280801CC90700D0AE
:100230000270704700290BD0C30702D00270401C27
:10024000491E022904D3830702D50280801C891E1F
:10025000E3E70022EEE70022DFE7704770477047D0
:10026000F0B5FF252D04C609C209FF2704462E401C
:100270000137CB093E4348402A402B400746002A1D
:100280006BD0002B69D0AA4267D0AB4265D0002862
:1002900000DA32460125ED0529432C4309022002EC
:1002A000090AD21A4B0C7F24E31A434C000A7C44FF
:1002B000E35C7D242404121914145B00A218884204
:1002C00001D3521C00E0400049420C465C4324111B
:1002D0005C43DB016415E318040A5C43C502200D8E
:1002E0000C4644436419250A5D432303EC0C0D4678
:1002F000654300030019EB184C42A34201D35B187D
:10030000401CD4052018002B07D05B00C91804D36B
:10031000401C002901D1400840003F2189048A4245
:1003200009D3002A08DC1106090F04D0032149076C
:100330004018C00FC007F0BD012241001206891805
:100340007F2252069142F6D205214907C84201D5C3
:100350009010F0BDFF20C005F0BD002F00DA32463E
:100360001648AA4207D2AB4205D21902090E17D08D
:10037000F80FC007F0BDFF2563002D06AB42F9D88A
:100380004900A942F6D8AB4201D1A942F2D0A94214
:1003900001D1002101E061004908D0050843F0BD0A
:1003A0001102090EFBD0FF200243D005F0BD0A4622
:1003B0000146104654E70000EA0800000000C07F34
:1003C00010B501469E240002CA15A307002A02D0D8
:1003D0001843002A04DBA21A002A0CDDD04010BD0D
:1003E0001206120E01D140004008A21A03D4D040D8
:1003F00040420028F3DDFF2248001206904201D956
:10040000002010BDC817C043584010BD1F22030C68
:1004100002D10F2200041CD0030E01D10002083AC1
:10042000030F01D10001121F830F01D18000921E22
:10043000002801DB4000521ED2055118021251184B
:100440001922904004D3491C002801D149084900D1
:1004500008467047C10FC90700D0404201229207E9
:100460001143D3E701218907D0E7000010B5FF232E
:100470001B0644009C421DD84C009C421AD80346DF
:10048000124A0B4307D4401A02D3EFF3008010BD89
:10049000EFF3008010BD081A03D3EFF30080904300
:1004A00005E0EFF3008001219043C907084380F382
:1004B000008810BD0D231B041A4204D011460020F1
:1004C00000F02DF810BD00F041F810BD00000090C4
:1004D000754600F043F8AE46050069465346C0082D
:1004E000C000854618B020B5FFF724FE60BCB646B4
:1004F00000260027C0C5C0C5C0C5C0C5C0C5C0C591
:10050000C0C5C0C5403D490849008D46704710B57B
:100510000446C046C0462046FFF779FE10BDC8021B
:1005200012D54803400F002804D0C803C04301215E
:1005300088407047EFF3008000010009032109079C
:10054000084380F3008870470020704710B50248C8
:1005500000F008F810BD00000000C07F00487047A0
:100560000800002010B50C461107090F092904D016
:100570000A290AD008290CD104E011460820FFF707
:10058000CEFF06E0510606D501E0510601D5012057
:10059000C007214610BDD10607D501010909CC08C5
:1005A0004907000E0006044309E0410F20024907F5
:1005B000000A0143200E00061D22D14101430846D6
:1005C000E7E7000001491820ABBEFEE72600020065
:1005D00070470000F0B585B03C48102104910160DF
:1005E0003B48012101603B4AD36A402403942343E2
:1005F000D362394B5C68272CFCD14C0200E01C60B4
:100600001D682542FBD001E000251D601D682542C4
:10061000FAD10026066003208302156A9D43156205
:10062000CB0215681D43156053681B07FCD5136882
:10063000019003430425AB431360136B07273B4032
:10064000032BFAD1254803680B4306250095AB43DD
:1006500003600296D6611368A34313600D02131F53
:1006600018682843186088021668064316605068A8
:100670004007FCD5D06A039EB043D0621868A843F7
:10068000186001980006506110682043106050689F
:100690008007FCD5114C20680223034305208343C7
:1006A00023600298D06110680843009B9843106053
:1006B000106B38400128FBD12068049A1043206059
:1006C000080321680143216005B0F0BD0C8108409A
:1006D000008308400480084004A10640000208404E
:1006E000F8B505460024264606E03046394600F0B7
:1006F00029F906469035641C2F680021384600F021
:1007000008F90028F1D02046FFF7A4FE0146304644
:10071000FFF7A6FD01B0F0BD80B50146034800F02B
:10072000D5F9FFF74DFE2549086080BD000039432B
:1007300082B0214C25680021284601910A4600F02C
:1007400043F8276801261D480068FFF783FE01462D
:10075000384600F0F7F8184908602846019C214601
:10076000224600F031F8164F0AE02846214632466C
:1007700000F02AF82846134900F0E4F80546641C06
:100780002846394600F0BAF80028EED10AE028469B
:100790002146324600F018F8B107284600F0D2F89A
:1007A0000546641C044807682846394600F09BF853
:1007B0000028ECD0C7E7C04604000020100300204A
:1007C00000000C43000040C0F8B53E4F3B78002AC3
:1007D0001CD0002B0FD101233B703C4C23680F2B06
:1007E00001DC5B1C23609724A400374D00262E55A6
:1007F0004B24E4002B517B685C1C7C600C245C4324
:10080000314B18511819027241603AE0002B38D070
:10081000972084002C4D285D002837D12846FFF70B
:100820005FFF0090012028552E680027304639468A
:1008300000F04EF8002810D132240AE02F68384624
:10084000314600F05BF8002800D13746641E0C35B5
:100850003E46002CF2D137461B4D3846009C2146BF
:1008600000F034F90B4900F061F818490A680028D3
:1008700008D190001349081885602046FFF74CFF07
:1008800004E0F8BD102A01DC501E086000F004F8F6
:10089000F8BDC04600002041B0B50A4C00252570C7
:1008A0004B20C1000848FFF7D6FC65600748006888
:1008B0000F2804D005E06019C16881602D1D3C2D12
:1008C000F9D1B0BD68000020B00000200000002079
:1008D00010B500F07DF8EFF30080400001D5012055
:1008E00010BD002010BD10B500F09CF8EFF30080A3
:1008F000800001D5012010BD002010BD10B500F012
:1009000091F8EFF300804000800F012800D0002014
:1009100010BD10B500F0B0F8EFF300804000800F7C
:10092000012801D0012010BD002010BD10B500F03D
:10093000A3F8EFF30080800001D4012010BD002057
:1009400010BD000070B50125ED0704004C4020D417
:10095000441A01D2001B0919C60D4B00F2B2FF2A3E
:1009600029D01B0E2CD000020C0228432C43D31A92
:10097000DC40051910D2280A02D3401C6D0611D0A4
:10098000761EF6058019FF2A00DA70BDC00DC0057D
:1009900070BD694000F0A0F801200543C541521C1C
:1009A000761CE8E764089C40C90161408900E7D1F2
:1009B0000124A043E4E71B0E440200D0034870BDAD
:1009C000002AFCD1C00FC00770BD00BF0000C07F6F
:1009D0000123DB0502000A430DD4DA4203D49A4214
:1009E00007D488427047D84214D4D94212D48842DE
:1009F000704780427047DA4203D59A42F9D5814266
:100A000070475B004200DA4204D24A00DA4201D267
:100A10008142704710B5024AFFF728FD10BD00BFA4
:100A2000090012040123DB0502000A430DD4DA4257
:100A300003D49A4207D488427047D84214D4D9428A
:100A400012D48842704780427047DA4203D59A42F6
:100A5000F9D5814270475B004200DA4204D24A0075
:100A6000DA4201D28142704710B5024AFFF7FEFC1C
:100A700010BD00BF090013040123DB0502000A4377
:100A80000DD4DA4203D49A4207D488427047D84240
:100A900014D4D94212D48842704780427047DA4257
:100AA00003D59A42F9D5814270475B004200DA4291
:100AB00004D24A00DA4201D28142704710B5024A9C
:100AC000FFF7D4FC10BD00BF0900160470B5012566
:100AD000ED0704004C4022D4441A02D26C40001BA3
:100AE0000919C60D4B00F2B2FF2A4BD01B0E50D095
:100AF00000020C02A8432C43D31ADC40051B05D589
:100B0000AD0019D36D08761E521E37D0F605280A9F
:100B100001D2801970BD70416D0603D070BD69406F
:100B2000FFF716FF9C4009026140490001D0401EBA
:100B300070BD0124A04370BD6D081DD001202B0C99
:100B400001D12D0410302B0E01D12D0208302B0FB6
:100B500001D12D01001DAB0F01D1AD00801CEB0FA9
:100B600001D16D00401C361A121A6D00680AF50595
:100B70004019012A02DB70BD002070BDC036300A6A
:100B8000C00770BD1B0E440201D1FF2B00D10248EB
:100B900070BD002AF0D070BD0000C07F81828384C8
:100BA00085868788898B8C8D8E8F91929395969769
:100BB000999A9C9D9FA0A2A3A5A7A8AAACAEB0B2EB
:100BC000B3B5B7B9BCBEC0C2C5C7C9CCCED1D4D7E6
:100BD000D9DCDFE2E6E9ECF0F3F7FAFE000C000006
:100BE0000000002008000000BC010000080C00000C
:100BF0000800002010050000D801000000000000DF
:080C0000FFFFFFFF000052435B
:04000005000001797D
:00000001FF
