S0190000456C656D656E742D53414D442D546573742E7372656322
S1130000782F00206D1500006516000065160000AD
S113001000000000000000000000000000000000DC
S11300200000000000000000000000006516000051
S1130030000000000000000065160000A52C000070
S113004065160000651600006516000065160000C0
S113005065160000651600006516000065160000B0
S113006065160000651600006516000065160000A0
S11300706516000065160000651600006516000090
S11300806516000065160000651600006516000080
S11300906516000000000000000000006516000066
S11300A06516000065160000651600006516000060
S11300B00000000010B5064C2378002B07D1054B37
S11300C0002B02D0044800E000BF0123237010BDC0
S11300D0E00E002000000000D84C0000084B10B5D2
S11300E0002B03D00749084800E000BF0748036815
S11300F0002B00D110BD064B002BFBD09847F9E72D
S113010000000000E40E0020D84C0000D84C000091
S11301100000000080B500AFC046BD4680BD0000B1
S113012080B582B000AF786008001100BB1C021CCF
S11301301A807B1C0A1C1A707B685B8BBA1C1288A1
S11301409A420FD27B1C1B787E2B0BD87B689A6853
S1130150BB1C1B88D2187B1C1B780449CB5CDB18A6
S1130160DBB21370C046BD4602B080BD70010020F2
S113017080B586B000AFF860B9601900FB1D1A7035
S1130180BB1D0A1C1A701723FB1800221A7012E0F8
S1130190FB689A681723FB181B785BB2D3180022FC
S11301A01A701723FB181B785BB2DBB20133DAB287
S11301B01723FB181A701723FB181B785BB2FA6815
S11301C0528B9342E4DB1623FB18BA1D12781A7083
S11301D01523FB1800221A7027E0FB689A68152380
S11301E0FB181B785BB2D2181623FB181B785BB282
S11301F0B968CB181B781900164B5B5CDB18DBB2B3
S113020013701623FB181B785BB2DBB20133DAB22E
S11302101623FB181A701523FB181B785BB2DBB28C
S11302200133DAB21523FB181A701623FB180022C7
S11302309A56FB1D1B789A4207DA1523FB181B7884
S11302405BB2FA68528B9342C7DBC046BD4606B028
S113025080BDC0467001002080B584B000AF7860D6
S113026008001100BB1C021C1A807B1C0A1C1A709B
S11302700F23FB1800221A707B1C1B78072B18D83D
S11302807B685B8BBA1C12889A4212D27B68DA684C
S1130290BB1C1B88D3181B7819007B1C1B780722F6
S11302A0D31A19410B00DAB20F23FB1801210A40BB
S11302B01A700F23FB181B781800BD4604B080BDCC
S11302C080B584B000AF78600A00BB1C1A800F238D
S11302D0FB1800221A707B685B8BBA1C12889A4246
S11302E008D27B68DA68BB1C1B88D2180F23FB1862
S11302F012781A700F23FB181B781800BD4604B03F
S113030080BD000090B587B000AFF86008007A6047
S113031019000B23FB18021C1A700A23FB180A1C71
S11303201A705B4B1B78012B00D9ADE0584B1B783E
S11303301900584A0B00DB005B1A9B00D3181833D2
S1130340BA6A1A60524B1B781900524A0B00DB0040
S11303505B1A9B000B217918097899541723FB1811
S113036000221A7033E04A4B1B7818001723FB183D
S11303701A781723FB181B78F968CB1800241C572C
S113038044490300DB001B1A9B00CB189B18023363
S1130390221C1A701723FB181B78FA68D3181B78D1
S11303A05BB2012118003C4B98471723FB181B78BC
S11303B0FA68D3181B785BB201211800374B9847B1
S11303C01723FB181A781723FB1801321A70172306
S11303D0FA180B23FB1812781B789A4204D21723BD
S11303E0FB181B78072BBED9294B1B781900294A07
S11303F00B00DB005B1A9B00D31801330A22BA18E6
S113040012781A701623FB1800221A7028E0204B69
S11304101B7818001623FB181A781623FB181B7870
S11304207968CB1800241C571A490300DB001B1AF7
S11304309B00CB189B180A33221C1A701623FB1836
S11304401B787A68D3181B785BB201211800124B11
S113045098471623FB181A781623FB1801321A70D2
S11304601623FA180A23FB1812781B789A4204D22E
S11304701623FB181B78092BC9D9054B1B780133AC
S1130480DAB2034B1A7000E0C046BD4607B090BD17
S1130490340F0020FC0E0020CD2D0000BD2D0000E7
S11304A080B584B000AF0F23FB1800221A7080E0DF
S11304B00F23FB181A781300DB009B1A9B00434A96
S11304C09B18BB60BB681B7D1A00BB689B189B7A9A
S11304D05BB2002118003E4B9847BB681B7D9BB262
S11304E001339BB21BB21A00BB685B789A4204DAF0
S11304F0BB681B7D0133DAB200E00022BB681A75C9
S1130500BB689A69BB681B7D19001000314B984782
S11305100200FB1D1A700E23FB1800221A702FE034
S11305200E23FB181B78BA68D3189B785BB20121A1
S11305301800274B9847BB689869BB681B7D190056
S11305400E23FB181B781A00234B984703005A42CA
S11305505341DAB2BB1D1A700E23FB181B78BA681C
S1130560D31802229A56BB1D1B7819001000184B91
S113057098470E23FB181A780E23FB1801321A70C1
S1130580BB681B780E22BA1812789A42C8D3BB688B
S11305901B7D1A00BB689B189B7A5BB20121180073
S11305A00B4B98470F23FB181A780F23FB180132C3
S11305B01A700A4B1B780F22BA1812789A4200D28A
S11305C076E7C046BD4604B080BDC046FC0E0020A0
S11305D0BD2D0000C102000059020000340F0020AC
S11305E080B500AFC046BD4680BD000090B58FB059
S11305F000AF78607B683B633D4B98470300BB6268
S1130600DB17FB623B6B5C6A1B6A3B627C62B96A08
S1130610FA6A3B6A7C6AC91AA2410B001400BB61E6
S1130620FC6100237B633B6B5B7E002B57D03B6BF1
S11306301A89304B10009847041C3B6B9A782D4B59
S113064010009847021C2C4B111C201C9847031CBB
S11306501A1C2A4B2A49101C9847031C1A1C294BA4
S1130660101C984703000C003B617C613B6B9B783A
S11306701A00254B1100FA22900098470300BB6032
S1130680DB17FB603B6B32229B5C01225340DBB2E5
S1130690002B0BD0FA697B699A4223D8FA697B69EB
S11306A09A4203D1BA693B699A421BD8B869F9697D
S11306B0164C3A697B69A0471C00130019002200FC
S11306C03B6BDC6A9B6AC91AA241080011000F4CFB
S11306D0BA68FB68A04703000C007B6302E03B6B35
S11306E01B8E7B637B6B1800BD460FB090BDC0466C
S11306F0252E000059380000893300001936000007
S113070000007A44C9310000B12F00008931000093
S113071090B585B000AF0400080011003B60FB1DDC
S1130720221C1A70BB1D021C1A707B1D0A1C1A7035
S11307300F23FB1800221A70BB1D1B785BB25A1CD6
S11307407B1D1B785BB29A4205DB0F23FB187A1DD5
S113075012781A7005E0BB1D1A780F23FB180132BA
S11307601A70BB1D1A787B1D1B78D31ADBB20133B8
S1130770DAB20E23FB181A700E23FB181B787F2B9A
S113078003D90E23FB1800221A700F23FB181B78C1
S1130790012252429A401300DA430E23FB181B78BD
S11307A05BB29A401300FA1D12781A400E23FB180C
S11307B01B785BB21A411300DAB23B681A700F233C
S11307C0FB181B781800BD4605B090BDF0B5CE46A9
S11307D0474680B58FB000AFF8610C0010001900D7
S11307E00B2310229446BC446344221C1A70082331
S11307F010229446BC446344021C1A801623FB183E
S11308000A1C1A8000230024BB62FC620823102205
S11308109446BC4463441A880B2310218C46BC4480
S1130820634419789D4B100098470B001A00262347
S113083010218C46BC4463441A7040230822944619
S113084010229046B844C44463441A8844230821BF
S11308508C4610218846B844C44463441B8808214C
S113086010208446BC44614409884B43D3189AB28F
S11308700B2310218C46BC4463441B7899B2242377
S113088010208446BC4463444A431A802223102225
S11308909446BC446344242210218C46BC446244E4
S11308A01288D2081A80242310229446BC4463443C
S11308B01B88DBB2DB43DAB2212310218C46BC4413
S11308C0634407210A401A70242310229446BC442E
S11308D063441B88DBB29946222310229446BC440D
S11308E063441B88FA69D31818782123102294468C
S11308F0BC446344002159560B2310229446BC4443
S1130900634400229A5618231024A446BC4463442A
S1130910634CA046C04703001A00272310218C46CD
S1130920BC4463444A441A7098E027231022944636
S1130930BC4463441B78DB08DAB2222310218C46C2
S1130940BC4463441A80272310229446BC44634465
S11309501B78DB43DAB2212310218C46BC44634468
S113096007210A401A70222310229446BC4463448F
S11309701B88FA69D3181878212310229446BC44A2
S1130980634400215956242310229446BC446344F2
S11309901B88DAB227231024A446BC4463441B7882
S11309A0D31ADAB20B231024A446BC4463441B7844
S11309B0D318DBB25AB22023994610239C46BC4478
S11309C0E14417231024A446BC446344344CA04699
S11309D0C04703004A461370BB6AFC6A20221021F8
S11309E08C46BC446244127811002039002903DB90
S11309F018008840060008E02021891A1800C84021
S1130A0001002000904006000E4393401D00172370
S1130A1010229446BC4463441B78BB600023FB60F3
S1130A20BB68FC681A002A433A60230033437B60A6
S1130A303B687C68BB62FC62272310229446BC445A
S1130A406344272210217918891820221020844613
S1130A50BC446244097812788A181A702723102239
S1130A609446BC4463441A78242310218C46BC4425
S1130A7063441B88D21A0B2310218C46BC44634464
S1130A801B789A4200DA50E7BB6AFC6ADBB21800B2
S1130A90BD460FB00CBC90469946F0BD7D310000B8
S1130AA011070000F0B587B000AFF86010000B220A
S1130AB0BA1811700A22BA18011C11700F220821E9
S1130AC08C46BC446244002111700E2208218C46DD
S1130AD0BC446244002111700D2208217918881841
S1130AE0396B7A6B0A1C02700B22BA18127852B254
S1130AF0511C0A22BA18127852B2914219DB0F2300
S1130B0008229446BC4463440A22BA1812781A7024
S1130B100B23FB181A780A23FB181B78D31ADBB2B1
S1130B200133DAB20E2308218C46BC4463441A70A4
S1130B3068E00B22BA1812780132D1B20F220820D1
S1130B408446BC44624411700A22BA1811780F22F8
S1130B5008208446BC44624412788A1AD1B20E2218
S1130B6008208446BC44624411700F2208218C463C
S1130B70BC4462441278013AD1B20B22BA18117003
S1130B800F2208218C46BC446244127852B20121DF
S1130B90494291400A00D1430E2208208446BC44B5
S1130BA06244127852B291400A003A60D2177A60D5
S1130BB03A6B396811400B007A6B796811400C006C
S1130BC00E2208218C46BC446244127852B21100B1
S1130BD02039002903DB2000C840050008E020215B
S1130BE0891A2000884001001800D04005000D43F8
S1130BF02300D3401E000D2308229446BC446344C2
S1130C002A1C1A70FB681B785BB20F2208218C46E1
S1130C10BC446244127852B20121494291400A0014
S1130C20D1430E2208208446BC446244127852B256
S1130C3091400A0052B2D24352B213405AB20D2329
S1130C4008218C46BC44634419780B23FB181B7899
S1130C505BB2581C0F230824A446BC4463441B788D
S1130C605BB2C31A99400B005BB213435BB2DAB2B6
S1130C70FB681A700F2308229446BC4463441B7813
S1130C801800BD4607B0F0BDB0B58CB002AFF86037
S1130C900C00100019000B23FB18221C1A700823E7
S1130CA0FB18021C1A80BB1D0A1C1A800023002496
S1130CB0BB61FC613823FB181A883C23FB181B8892
S1130CC00821791809884B43D3189AB20B23FB18CF
S1130CD01B7899B21623FB184A431A801423FB1875
S1130CE01622BA181288D2081A801623FB181B88F9
S1130CF0DBB2DB43DAB21323FB1807210A401A7074
S1130D001623FB181B88DDB21423FB181B88FA6812
S1130D10D0181323FB18002159560B23FB1800226B
S1130D209A563B6C7C6C009301942C4B98470300BF
S1130D301A002723FB18AA181A703DE02723FB1872
S1130D401B78DB08DAB21423FB181A802723FB185C
S1130D501B78DB43DAB21323FB1807210A401A700D
S1130D601423FB181B88FA68D0181323FB180021DE
S1130D7059561623FB181B88DAB22723FB181B7855
S1130D80D31ADAB20B23FB181B78D318DBB25AB28E
S1130D901223FD183B6C7C6C009301940F4B984715
S1130DA003002B702723FB182722B9181222BA1824
S1130DB0097812788A181A702723FB181A781623D0
S1130DC0FB181B88D21A0B23FB181B789A42B5DB3D
S1130DD000231800BD460AB0B0BDC046A50A0000F5
S1130DE0F0B583B000AF0100FA1D1170FA1D12783E
S1130DF011002039002904DB01204042884004000E
S1130E000AE02021891A01204042C8400100012043
S1130E104042904004000C430121494291400B00A0
S1130E20DD43E6432B00340018002100BD4603B027
S1130E30F0BD0000B0B594B004AF786039607B6851
S1130E401B7801225340DBB2002B07D07B689B68E0
S1130E501B683A68100098470300B3E07B685B683E
S1130E60FB62FB6A1800594B98470300BB62FB6A9C
S1130E701B7E1800564B984703000C003B627C62B3
S1130E80BB6A002B00DA9CE0FB6A1B891A00BB6A70
S1130E909A4200DC95E0FB6A5A68FB6ADB68B96A2F
S1130EA04B43D318FB613E23FB1800221A8080E0D9
S1130EB03C23FB1800221A806CE0FB6A197EFB6A53
S1130EC01A8AFB6A5C8AF8693C23FB181B88019325
S1130ED03E23FB181B88009323003E4CA0470300CD
S1130EE03B6100237B613B6898683B68597C3B68A5
S1130EF01A8B3B685C8B3C23FB181B8801933E23B5
S1130F00FB181B8800932300324CA0470300BB60EE
S1130F100023FB60002300243B637C63396A7A6A04
S1130F203B697C69C91AA2410B001400FA68A24209
S1130F3005D8FA68A24207D1BA689A4204D93B6A32
S1130F407C6A3B637C6307E0B968FA683B697C6947
S1130F505B1854413B637C633B6898683B68597CED
S1130F603B681A8B3B685D8B3B6B7C6B02930394F1
S1130F703C23FB181B8801933E23FB181B8800931A
S1130F802B00154CA0473C23FB181A883C23FB1864
S1130F9001321A80FB6A5B8A3C22BA1812889A4290
S1130FA000D28AE73E23FB181A883E23FB1801323D
S1130FB01A80FB6A1B8A3E22BA1812889A4200D20F
S1130FC076E700231800BD4610B0B0BDED05000063
S1130FD0E10D0000CD070000890C000080B582B04F
S1130FE000AF7860104B5A780F4B1B789A4216D298
S1130FF00D4B5B785A1CD1B20B4A51700A4A9B00C4
S1131000D31804337A681A607B685A687B68DA609C
S11310107B685A687B685B69D2187B689A60002396
S11310201800BD4602B080BD3003002080B582B0F8
S113103000AF786039607B6830229B5C042B0ED84B
S11310407B6830229B5C5A1CD0B27A6830215054A1
S11310507A6806339B00D31804333A681A60002375
S11310601800BD4602B080BD80B584B000AF0F2328
S1131070FB1800221A703BE00F23FB181B78224A4E
S11310809B00D31804331B68BB600E23FB1800229B
S11310901A7014E00E23FB181B78BA6806339B0001
S11310A0D31804331B68BA6811001800174B98470B
S11310B00E23FB181A780E23FB1801321A70BB6832
S11310C030229B5C0E22BA1812789A42E2D3BB6893
S11310D09B687B60BB68DA68BB689A60BB687A68A7
S11310E0DA600F23FB181A780F23FB1801321A70E9
S11310F0054B5B780F22BA1812789A42BCD3C046CB
S11311001800BD4604B080BD30030020350E000039
S113111080B500AFC046BD4680BD000082B090B52A
S113112083B000AF38607960182179180A604B6089
S11311301823FB1800229A5E184B1A811823FB18F7
S113114002229A5E154B5A811823FB1804229A5ED8
S1131150124B9A811823FB1806229A5E0F4BDA81F0
S11311601823FB1808229A5E0C4B1A821823FB18CA
S11311700A229A5E094B5A821823FB180C229A5EA3
S1131180064B9A82054A3B687C6813605460C046EB
S1131190BD4603B090BC08BC02B01847B804002098
S11311A0F0B585B000AF1F4B98471F4EFA2292004E
S11311B00023B04702000B001C491220095EB960ED
S11311C0C917F960B868F96880185941164E3C226D
S11311D00023B04702000B0014491020095E396057
S11311E0C917796038687968801859410E4E3C22D5
S11311F00023B04702000B000C490E20095E0C00CE
S1131200C9170D0012196B4110001900064C182261
S11312100023A0471C0013001BB21800BD4605B0F4
S1131220F0BDC046A112000089310000B8040020BE
S1131230F0B583B000AF174B9847174EFA229200CF
S11312400023B04702000B0014491220095E3960E4
S1131250C917796038687968801859410E4E3C2264
S11312600023B04702000B000C491020095E0C005B
S1131270C9170D0012196B4110001900064C3C22CD
S11312800023A0471C0013001BB21800BD4603B086
S1131290F0BDC046A112000089310000B80400204E
S11312A0B0B500AF074B98470A000100064B5C68D5
S11312B01B68C91AA2410B00140018002100BD4686
S11312C0B0BDC046252E0000B804002080B500AF94
S11312D0C046BD4680BD000080B592B000AF472334
S11312E0FB1800221A7023E04723FB181B783900EF
S11312F0164A9B010800D31840221900144B984742
S11313003B001B785BB200211800124B98473B004E
S11313101B785BB21A003B009B78190010000E4B3F
S113132098474723FB181A784723FB1801321A7091
S11313300A4B984703001A004723FB181B78934273
S1131340D2D3C046BD4612B080BDC046E0040020E2
S1131350E1480000CD2D0000DD2D000061130000E8
S113136080B500AF05231800BD4680BD80B582B0AE
S113137000AF786008001100FB1C021C1A70BB1C33
S11313800A1C1A70BB1C1B78042B67D89A00354BB7
S1131390D3181B689F46FB1C1B785BB2324A9B0127
S11313A0D31814337A681A60FB1C1B785BB22E4A7C
S11313B09B01D318183301221A704FE0FB1C1B78D1
S11313C05BB2294A9B01D3181C337A681A60FB1C50
S11313D01B785BB2244A20219B01D3185B1801229D
S11313E01A703BE0FB1C1B785BB21F4A9B01D318AD
S11313F024337A681A60FB1C1B785BB21A4A2821D2
S11314009B01D3185B1801221A7027E0FB1C1B7880
S11314105BB2154A9B01D3182C337A681A60FB1C03
S11314201B785BB2104A30219B01D3185B18012250
S11314301A7013E0FB1C1B785BB20B4A9B01D31898
S113144034337A681A60FB1C1B785BB2064A382175
S11314509B01D3185B1801221A70C046C046BD46D2
S113146002B080BD504B0000E004002080B582B083
S113147000AF0200FB1D1A70BB1D0A1C1A70BB1DB5
S11314801B78042B67D89A00354BD3181B689F46EA
S1131490FB1D1B785BB2334A9B01D3181433324AC9
S11314A01A60FB1D1B785BB22E4A9B01D3181833BC
S11314B000221A704FE0FB1D1B785BB2294A9B0186
S11314C0D3181C33284A1A60FB1D1B785BB2254ACB
S11314D020219B01D3185B1800221A703BE0FB1DEE
S11314E01B785BB21F4A9B01D31824331E4A1A602F
S11314F0FB1D1B785BB21B4A28219B01D3185B1888
S113150000221A7027E0FB1D1B785BB2154A9B0171
S1131510D3182C33144A1A60FB1D1B785BB2114A92
S113152030219B01D3185B1800221A7013E0FB1DB5
S11315301B785BB20B4A9B01D31834330A4A1A60F6
S1131540FB1D1B785BB2074A38219B01D3185B183B
S113155000221A70C046C046BD4602B080BDC046D7
S1131560644B0000E0040020CD12000080B582B07E
S113157000AF2F4B7B602F4B3B607A683B689A42ED
S11315800CD007E03B681A1D3A607A68111D796037
S113159012681A603A68284B9A42F3D3274B3B608F
S11315A004E03B681A1D3A6000221A603A68244B32
S11315B09A42F6D3234B7B60234B7A68FF218A43FC
S11315C09A60224A90235B000221D150204AD378AA
S11315D003218B43191C02230B43D3701C4AD37879
S11315E00C218B43191C08230B43D370194A937B9A
S11315F030218B43191C20230B439373154A937B8F
S11316000C218B43191C08230B439373114A937BBE
S113161003218B43191C02230B4393730E4A536813
S113162080210B4353600D4B98470D4B9847FEE7C1
S1131630D84C000000000020DC0E0020E00E00204A
S1131640740F00200000000000ED00E00070004175
S1131650005000410048004100400041994800000A
S11316609D19000080B500AFFEE7000080B500AF13
S1131670024B034A1A60C046BD4680BD5006002096
S113168040420F0080B500AFC046BD4680BD00009B
S113169080B500AF224B9847224B1800224B984745
S11316A0224B1800224B9847224B1800224B984794
S11316B0224B1800224B9847224B1800224B984784
S11316C0224B1800224B9847224B1800224B984774
S11316D0224B1800224B9847224B1800224B984764
S11316E0224B1800224B9847224B1800224B984754
S11316F0224B1800224B9847224B1800224B984744
S1131700224B1800224B9847224B1800224B984733
S1131710224B1800224B9847C046BD4680BDC046A8
S1131720452D0000311C0000752D0000091D00002E
S1131730812D0000C11D00008D2D0000E11E000060
S1131740992D0000691F0000A52D0000E92000006C
S1131750B12D0000D1230000392E000065260000C1
S1131760452E0000B5260000512E0000F126000091
S11317705D2E00003D270000692E00008D2700002B
S1131780752E0000112A0000812E0000C92C0000D3
S1131790F12D0000E52C0000FD2D00002D2D000092
S11317A0092E000080B584B000AF7860334B9847B1
S11317B003001A000F23FB181A700F23FB181A7862
S11317C02F4B0A21100098470300DAB20E23FB18AE
S11317D030321A700F23FB181A782A4B0A21100092
S11317E098470B00DAB20D23FB1830321A70264BDF
S11317F0984703001A000C23FB181A700C23FB18DB
S11318001A781F4B0A21100098470300DAB20B2301
S1131810FB1830321A700C23FB181A78194B0A2162
S1131820100098470B00DAB20A23FB1830321A7002
S11318300E23FB181A787B6800211800134B984775
S11318400D23FB181A787B68012118000F4B984769
S11318500B23FB181A787B68022118000B4B98475E
S11318600A23FB181A787B6803211800074B984752
S113187000231800BD4604B080BDC046A11100007D
S11318809D2E0000A92F000031120000210100004C
S1131890B0B586B000AFF8600F2308229446BC446C
S11318A063440B221A700F2308229446BC446344F9
S11318B01D78154B9847154CFA2252000023A04777
S11318C003000C00180021000F2308229446BC4496
S11318D063441B785BB203333B60DB177B600B4CC8
S11318E03A687B68A0471C001300DBB2033BDBB201
S11318F05BB20749F8682A00064CA0470023180089
S1131900BD4606B0B0BDC046252E0000893100009A
S1131910784B00007101000080B500AF054B5B6897
S11319201B7E9BB219000020034B9847C046BD465E
S113193080BDC046080800208D2E000080B500AF91
S113194075210020024B9847C046BD4680BDC04665
S11319508D2E000080B500AF70210020024B984707
S1131960C046BD4680BDC0468D2E000080B500AF88
S113197073210020024B9847C046BD4680BDC04637
S11319808D2E000080B500AF6C210020024B9847DB
S1131990C046BD4680BDC0468D2E0000B0B59CB08B
S11319A002AF464B9847464B9847464B98476723A8
S11319B0FB1800221A705023FB18180014231A0075
S11319C00021414B9847414B9847414B002200214D
S11319D01800404B9847404B0122002118003D4B12
S11319E098473E4B0222002118003A4B98473C4B43
S11319F0032200211800374B98473A4B0422002158
S1131A001800344B9847384B1800384B9847384ADD
S1131A10354B11001800374B9847374B1800334BA0
S1131A209847364A344B11001800324B98474823E4
S1131A30FB18334A03CA03C34423FB18314A1188F1
S1131A40198092789A704423FA184823F8182A4B7C
S1131A500093032308212C4CA0473423FB182B4A62
S1131A601A803423FB1800225A803423FB180122E5
S1131A709A803423FB180C22DA803423FB180022CA
S1131A801A813423FB1800225A81214B9847040001
S1131A900D003423FB186A4611001A00083210683E
S1131AA0086092888A801A685B6820002900194CB3
S1131AB0A047194B9847194B9847FAE76D16000051
S1131AC091160000152E000065490000D91200008F
S1131AD0191900006D1300003D190000551900008C
S1131AE06D1900008519000014080020DD0F0000A6
S1131AF0080800202D10000048080020900800204D
S1131B00844B00008C4B000005030000E307000039
S1131B10252E00001D110000A10400006910000022
S1131B2080B582B000AF0200FB1D1A70FB1D1B784C
S1131B307F2B09D8064BFA1D127811001F220A4088
S1131B40012191400A001A60C046BD4602B080BD22
S1131B5000E100E0B0B582B000AF02003960FB1DC7
S1131B601A70FB1D1B787F2B28D82F4CFB1D1B786C
S1131B705BB29B082C49FA1D127852B29208C0320B
S1131B8092005258F91D0978080003210140C90048
S1131B90FF2088400100C94311403A689201FF20A8
S1131BA01040FA1D1278150003222A40D2009040FA
S1131BB002000A43C0339B001A5131E01B4CFB1D49
S1131BC01B781A000F231340083B9908174AFB1D82
S1131BD01B7818000F230340083B9B0806339B0027
S1131BE0D31804331B68FA1D127810000322024034
S1131BF0D200FF2090400200D2431A403B689B0170
S1131C00FF201840FB1D1B781D0003232B40DB0025
S1131C10984003001A438B1D9B00E31804331A6099
S1131C20C046BD4602B0B0BD00E100E000ED00E0FA
S1131C3080B584B000AF0200FB1D1A70BB1D0A1CE6
S1131C401A70BB1D1B78013B5A425341DAB20F2371
S1131C50FB181A70FB1D1B785BB2002B4BDDFB1DC0
S1131C601B785BB2402B46DCFB1D1B785BB25A1E13
S1131C700E23F918224813005B009B185B001B5CC1
S1131C800B70FB1D1B785BB25A1E0D23F9181C4800
S1131C9013005B009B185B00C31801331B780B70A7
S1131CA00E23FB181B787F2B25D80F23FB181B78DA
S1131CB0012B10D113490E23FB181B785BB20D22A4
S1131CC0BA18127852B2012090400200DB01CB18FE
S1131CD018331A600FE00B490E23FB181B785BB214
S1131CE00D22BA18127852B2012090400200DB0192
S1131CF0CB1814331A60C046BD4604B080BDC0463C
S1131D009C0800200044004180B584B000AF02006C
S1131D10FB1D1A70FB1D1B785BB25A1E0F23F918AA
S1131D20254813005B009B185B001B5C0B70FB1DBC
S1131D301B785BB25A1E0E23F9181F4813005B0070
S1131D409B185B00C31801331B780B70FB1D00222A
S1131D509A56194913005B009B185B005B56002BD5
S1131D6025DB16480F23FB1800229A560E23FB1876
S1131D701B785BB24021D2018218D3185A18137809
S1131D8002210B4313700D4A0F23FB181B785BB21F
S1131D90DB01D31820331A680E23FB181B785BB2BF
S1131DA0DA4013000122134001D0012300E0002394
S1131DB01800BD4604B080BD9C08002000440041CA
S1131DC080B584B000AF0200FB1D1A70BB1D0A1C55
S1131DD01A70BB1D1B78013B5A425341DAB20F23E0
S1131DE0FB181A70FB1D1B785BB2002B6FDDFB1D0B
S1131DF01B785BB2402B6ADCFB1D1B785BB25A1E5E
S1131E000E23F918344813005B009B185B001B5C1D
S1131E100B70FB1D1B785BB25A1E0D23F9182E485C
S1131E2013005B009B185B00C31801331B780B7015
S1131E300E23FB181B787F2B49D80F23FB181B7824
S1131E40012B22D125490E23FB181B785BB20D22EE
S1131E50BA18127852B2012090400200DB01CB186C
S1131E6008331A601D480E23FB1800229A560D23CE
S1131E70FB181B785BB24021D2018218D3185A1880
S1131E80137802218B43137021E014490E23FB18AD
S1131E901B785BB20D22BA18127852B2012090401E
S1131EA00200DB01CB1804331A600C480E23FB1824
S1131EB000229A560D23FB181B785BB24021D201F5
S1131EC08218D3185A18137802210B431370C04692
S1131ED0BD4604B080BDC0469C08002000440041BB
S1131EE080B584B000AF0200FB1D1A70FB1D1B7887
S1131EF05BB2002B2EDDFB1D1B785BB2402B29DC73
S1131F00FB1D1B785BB25A1E0F23F91814481300EB
S1131F105B009B185B001B5C0B70FB1D1B785BB2AA
S1131F205A1E0E23F9180E4813005B009B185B0021
S1131F30C31801331B780B700F23FB181B787F2BFE
S1131F4008D8084A0F23FB181B785BB2DB019B58A7
S1131F50012300E000231800BD4604B080BDC04644
S1131F609C0800200044004180B584B000AF02000A
S1131F70FB1D1A70BB1D0A1C1A70FB1D1B785BB27B
S1131F80002B00DCA7E0FB1D1B785BB2402B00DDBF
S1131F90A1E0FB1D1B785BB25A1E0F23F9185048B1
S1131FA013005B009B185B001B5C0B70FB1D1B7814
S1131FB05BB25A1E0E23F918494813005B009B18A4
S1131FC05B00C31801331B780B700F23FB181B78BD
S1131FD07F2B00D97FE043490F23FB181B785BB2AA
S1131FE00E22BA18127852B2012090400200DB018E
S1131FF0CB1804331A60BB1D1B78012B02D0022BB3
S113200023D045E037490F23FB181B785BB20E221F
S1132010BA18127852B2012090400200DB01CB18AA
S113202018331A602F480F23FB1800229A560E23E8
S1132030FB181B785BB24021D2018218D3185A18BE
S1132040137804210B43137045E026490F23FB1832
S11320501B785BB20E22BA18127852B2012090405B
S11320600200DB01CB1814331A601E480F23FB183F
S113207000229A560E23FB181B785BB24021D20132
S11320808218D3185A18137804210B43137022E0D2
S113209014480F23FB1800229A560E23FB181B78B2
S11320A05BB24021D2018218D3185A181378042144
S11320B08B4313700B490F23FB181B785BB20E2262
S11320C0BA18127852B2012090400200DB01CB18FA
S11320D014331A60FFE7C046BD4604B080BDC04655
S11320E09C0800200044004180B584B000AF020089
S11320F0FB1D1A70FB1D1B785BB2002B3BDDFB1D27
S11321001B785BB2402B36DCFB1D1B785BB25A1E7E
S11321100F23F9181A4813005B009B185B001B5C23
S11321200B70FB1D1B785BB25A1E0E23F918144862
S113213013005B009B185B00C31801331B780B7002
S113214010480F23FB1800229A560E23FB181B7805
S11321505BB24021D2018218D3185B181B785B074D
S1132160DB0FDBB2012B06D1064A0F23FB181B78C9
S11321705BB2DB019B5800231800BD4604B080BD50
S11321809C0800200044004190B583B000AF0400D7
S113219008001100FB1D221C1A70BB1D021C1A70C2
S11321A07B1D0A1C1A707B1D1B7801221340DBB2B5
S11321B0002B1BD11C48BB1D1B787A1D12785208BA
S11321C0D2B21400FA1D12780F210A40D1B2302283
S11321D0DB01C3181B199A1813780F2008400F212C
S11321E08B43191C031C0B43137019E00E48BB1DD1
S11321F01B787A1D12785208D2B21400FA1D127894
S11322000F210A40D1B23022DB01C3181B199A18DE
S1132210137808010F210B40191C031C0B43137086
S1132220C046BD4603B090BD0044004180B582B0B5
S113223000AF0200FB1D1A70FB1D1B78052B10D884
S11322409A000A4BD3181B689F46094B0AE0094BB6
S113225008E0094B06E0094B04E0094B02E0094B96
S113226000E0034B1800BD4602B080BD904B000057
S113227000080042000C004200100042001400421A
S113228000180042001C004280B584B000AF020078
S1132290FB1D1A700F23FB1800221A700E23FB1863
S11322A0FE221A70FB1D1B7818003F4B9847030051
S11322B0BB60BB683D4A934208D10F23FB1814222C
S11322C01A700E23FB1809221A703FE0BB68384AC3
S11322D0934208D10F23FB1815221A700E23FB1802
S11322E00A221A7032E0BB68324A934208D10F23A3
S11322F0FB1816221A700E23FB180B221A7025E005
S1132300BB682D4A934208D10F23FB1817221A7079
S11323100E23FB180C221A7018E0BB68274A93425C
S113232008D10F23FB1818221A700E23FB180D2254
S11323301A700BE0BB68224A934207D10F23FB18A3
S113234019221A700E23FB180E221A700E23FB1882
S11323501B785BB2023323D00E23FB181B785BB2CD
S11323601800184B98470E23FB181B785BB2032107
S11323701800154B984715490F23FB181B789BB27F
S11323803F2213409BB28022D20113439BB24B8065
S1132390C0460E4B5B78DBB25BB2002BF9DB00E08E
S11323A0C046BD4604B080BD2D2200000008004296
S11323B0000C0042001000420014004200180042C9
S11323C0001C0042211B0000551B0000000C0040B3
S11323D090B587B000AF0400396010001900FB1DF0
S11323E0221C1A70BB1D021C1A707B1D0A1C1A7059
S11323F0FB1D1B78052B00D919E1FB1D1B785BB273
S113240018008D4B9847FB1D1B7818008B4B984781
S113241003007B617B691A6801210A431A60C04684
S11324207B691B68DB07DB0FDBB2002BF8D17B6910
S1132430DB69DB07DB0FDBB2002BF1D11323FB18C5
S113244010221A70FB1D1B787D4A5B00D3180133E0
S113245000229A561223FB181A70FB1D1A78784B27
S11324605200D2561123FB181A70FB1D1B78754AB3
S11324705B00D318013300229A561023FB181A70FC
S1132480FB1D1A786F4B5200D2560F23FB181A709B
S11324901023FB1800229A56FB1D1B78110018000C
S11324A0694B98470F23FB1800229A56FB1D1B7893
S11324B011001800654B98477B691A681C218A43F0
S11324C004210A431A607B691A6861490A40802121
S11324D089010A431A605F4B1B68D8001323FB1859
S11324E01B783A685A435C4B110098470300BB6061
S11324F0BB68DBB21A1C07231340D9B27A699389EB
S11325004803DB04DB0C191C031C0B439381BB68DD
S1132510DB089BB2DB04DB0C99B27A699389C904AA
S1132520C80C5B0B5B03191C031C0B4393817B1DC1
S11325301B78023B5A1E9341DBB21A1C0F23134033
S1132540D9B27B691A680F2001400906434802404A
S11325500A431A607B1D1B78022B0DD07B1D1B7850
S11325605A1E9341D9B27B695A680120014049033C
S11325703B4802400A435A607B691A688021C905B6
S11325800A431A60BB1D1B78082B0DD002DC052BF7
S11325901EDB0FE0092B1BD17B695A6807218A4394
S11325A001210A435A6018E07B695A6807218A436B
S11325B05A6012E0BB1D1B7807221340D9B27B6915
S11325C05A6807200140072082430A435A6004E006
S11325D07B695A6807218A435A602823FB181B78B1
S11325E0013B5A1E9341D9B27B695A6801200140CC
S11325F08901402082430A435A607B695A688021DA
S113260049020A435A607B695A68802189020A4355
S11326105A607B691A6802210A431A60C0467B69C2
S1132620DB699B07DB0FDBB2002BF8D100E0C0466F
S1132630BD4607B090BDC046892200002D2200008F
S1132640300A00203C0A0020112A00008D270000D7
S1132650FF1FFFFF500600209D2E0000FFFFFFF02C
S1132660FFDFFFFF80B584B000AF0200FB1D1A70CE
S11326703B1D0A1C1A80FB1D1B78052B13D8FB1D60
S11326801B7818000A4B98470300FB60C046FB68A0
S11326901B7EDB07DB0FDBB2002BF8D0FB683A1D97
S11326A012881A8500E0C046BD4604B080BDC0460D
S11326B02D22000080B584B000AF0200FB1D1A700B
S11326C0FB1D1B781800094B98470300FB60C046AC
S11326D0FB681B7E5B07DB0FDBB2002BF8D0FB68CB
S11326E01B8D9BB21800BD4604B080BD2D22000096
S11326F080B586B000AFB9607A600F23FB18021C66
S11327001A7000237B610EE07B695B00BA68D31802
S11327101A880F23FB181B7811001800064B9847E2
S11327207B6901337B617A697B689A42ECD3C0464A
S1132730BD4606B080BDC0466526000090B587B092
S113274000AFB9607A603B600F23FB18021C1A705B
S113275000237B610EE07B695B00BA68D4180F2309
S1132760FB181B781800084B9847030023807B69EB
S113277001337B617A697B689A42ECD300231800A9
S1132780BD4607B090BDC046B526000080B586B0F2
S113279000AF0200FB1D1A70BB1D0A1C1A70FB1D42
S11327A01B78052B00D921E1FB1D1B781800914BE8
S11327B098470300FB60BB1D1B785BB25A1E0B23BA
S11327C0F9188D4813005B009B185B001B5C0B70B1
S11327D0BB1D1B785BB25A1E0A23F91886481300E6
S11327E05B009B185B00C31801331B780B70172325
S11327F0FB1800221A701623FB1800221A701523E6
S1132800FB1800221A70BB1D00229A567A49130045
S11328105B009B185B00CB1802331B785BB21A0079
S1132820FB1D1B789A4244D1BB1D1B785BB25A1E18
S1132830714913005B009B185B00CB180333002223
S11328409A560923FB181A701423FB1800221A70D5
S113285029E01423FB181A78684913009B009B187D
S11328605B561A000923FB181B789A4214D11623CD
S1132870FB1801221A701523FB1800221A70142366
S1132880FB181A781723F9185C4813009B009B184F
S1132890C31804331B780B701423FB181A78142301
S11328A0FB1801321A701423FB181B78032BD0D9A0
S11328B054E0BB1D00229A564F4913005B009B183D
S11328C05B00CB1804331B785BB21A00FB1D1B782A
S11328D09A4243D1BB1D1B785BB25A1E4649130072
S11328E05B009B185B00CB18053300229A56082323
S11328F0FB181A701323FB1800221A7029E0132303
S1132900FB181A783D4913009B009B185B561A006C
S11329100823FB181B789A4214D11623FB180122B2
S11329201A701523FB1801221A701323FB181A7846
S11329301723F918314813009B009B18C31804335C
S11329401B780B701323FB181A781323FB1801321E
S11329501A701323FB181B78032BD0D91623FB18EA
S11329601B78002B43D01523FB181B78002B0AD0AF
S11329700B23FB1819780A23FB181B781A00032071
S11329801F4B984709E00B23FB1819780A23FB18FF
S11329901B781A0002201A4B98471723FB181B7840
S11329A003221340D9B2FB681A68032001400904CA
S11329B0144802400A431A6013480B23FB180022F0
S11329C09A560A23FB181B785BB24021D201821865
S11329D0D3185A18137801210B431370FB1D1A786E
S11329E00A4B5200B91D0978D15400E0C046BD46D7
S11329F006B080BD2D2200009C0800201C0A002087
S1132A0089210000FFFFFCFF004400413C0A002034
S1132A1080B584B000AF0200FB1D1A70BB1D0A1CF8
S1132A201A70FB1D1B78052B00D92AE1FB1D1B78AE
S1132A301800964B98470300FB60BB1D1B785BB2E4
S1132A405A1E0B23F918924813005B009B185B0075
S1132A501B5C0B70BB1D1B785BB25A1E0A23F91852
S1132A608B4813005B009B185B00C31801331B7871
S1132A700B70BB1D1B785BB25A1E0923F9188448DE
S1132A8013005B009B185B00C31802331B780B70A8
S1132A90BB1D1B785BB25A1E0823F9187C4813002F
S1132AA05B009B185B00C31804331B780B70BB1DC1
S1132AB01B785BB25A1E764913005B009B185B00BF
S1132AC0CB1802331B785BB21A00FB1D1B789A42A9
S1132AD062D170490B23FB181B785BB20A22BA1827
S1132AE0127852B2012090400200DB01CB1804336B
S1132AF01A6068480B23FB1800229A560A23FB1815
S1132B001B785BB24021D2018218D3185A1813786B
S1132B1002210B4313700B23FB1819780A23FB18AB
S1132B201B781A0002205C4B98475A480B23FB1869
S1132B3000229A560A23FB181B785BB24021D2016B
S1132B408218D3185A18137801210B431370BB1D34
S1132B501B785BB25A1E4E4913005B009B185B0046
S1132B60CB1803331B785BB2DBB21A1C032313406C
S1132B70D9B2FB681A68032001400905474802409E
S1132B800A431A60FB1D1B78454A5B00D3180133C6
S1132B90BA1D12781A7075E0BB1D1B785BB25A1E01
S1132BA03B4913005B009B185B00CB1804331B7874
S1132BB05BB21A00FB1D1B789A4263D10B23FB18EE
S1132BC019780A23FB181B781A000320324B984704
S1132BD030480B23FB1800229A560A23FB181B7853
S1132BE05BB24021D2018218D3185A1813780121FC
S1132BF00B431370BB1D1B785BB25A1E2449130090
S1132C005B009B185B00CB1805331B785BB2DBB20F
S1132C101A1C03231340D9B2FB681A68032001402D
S1132C2009051E4802400A431A601A490B23FB187F
S1132C301B785BB20A22BA18127852B20120904073
S1132C400200DB01CB1804331A6012480B23FB1873
S1132C5000229A560A23FB181B785BB24021D2014A
S1132C608218D3185A18137802210B431370FB1DD2
S1132C701B780B4A5B00D3180133BA1D12781A7003
S1132C8000E0C046BD4604B080BDC0462D22000011
S1132C909C0800200044004189210000FFFFCFFF71
S1132CA03C0A002090B500AF064B5C681B6801210C
S1132CB000225B185441034A13605460C046BD4669
S1132CC090BDC046480F002080B582B000AF02001E
S1132CD0FB1D1A70BB1D0A1C1A70C046BD4602B00B
S1132CE080BD000080B500AF0C4B00221A600B4B76
S1132CF00B4A5A6001235B4203211800094B984791
S1132D00064B00229A60054B07221A6001235B429E
S1132D101800054B9847C046BD4680BD10E000E052
S1132D20E7030000551B0000211B000090B500AF15
S1132D30034B5C681B6818002100BD4690BDC0466B
S1132D40480F002080B500AF01235B420221180028
S1132D50054B9847054B054A126AFC210A431A623F
S1132D60C046BD4680BDC046551B0000000400405F
S1132D7070470000014B18607047C046480A0020A5
S1132D80014B58607047C046480A0020014B9860C8
S1132D907047C046480A0020014BD8607047C046BF
S1132DA0480A0020014B18617047C046480A0020B9
S1132DB0014B58617047C046480A002010B5024BC9
S1132DC01B68984710BDC046480A002010B5024B46
S1132DD09B68984710BDC046480A002010B5024BB6
S1132DE01B69984710BDC046480A00207047000080
S1132DF0014B18607047C046680A0020014B5860B8
S1132E007047C046680A0020014B98607047C0466E
S1132E10680A002010B5024B5B68984710BDC04695
S1132E20680A002010B5024B9B68984710BDC04645
S1132E30680A002070470000014B18607047C046C4
S1132E40740A0020014B98607047C046740A002041
S1132E50014BD8607047C046740A0020014B98614A
S1132E607047C046740A0020014B18627047C04680
S1132E70740A0020014BD8627047C046740A0020CF
S1132E80014B18637047C046740A002010B5024B0A
S1132E909B68984710BDC046740A0020002243086E
S1132EA08B4274D303098B425FD3030A8B4244D30E
S1132EB0030B8B4228D3030C8B420DD3FF22090250
S1132EC012BA030C8B4202D31212090265D0030B0F
S1132ED08B4219D300E0090AC30B8B4201D3CB0305
S1132EE0C01A5241830B8B4201D38B03C01A524147
S1132EF0430B8B4201D34B03C01A5241030B8B4249
S1132F0001D30B03C01A5241C30A8B4201D3CB0233
S1132F10C01A5241830A8B4201D38B02C01A524118
S1132F20430A8B4201D34B02C01A5241030A8B421B
S1132F3001D30B02C01A5241CDD2C3098B4201D333
S1132F40CB01C01A524183098B4201D38B01C01AB1
S1132F50524143098B4201D34B01C01A5241030928
S1132F608B4201D30B01C01A5241C3088B4201D3D7
S1132F70CB00C01A524183088B4201D38B00C01A84
S1132F80524143088B4201D34B00C01A5241411AAB
S1132F9000D20146524110467047FFE701B50020B8
S1132FA000F0F0F802BDC0460029F7D076E770477C
S1132FB003460B437FD4002243088B4274D3030996
S1132FC08B425FD3030A8B4244D3030B8B4228D337
S1132FD0030C8B420DD3FF22090212BA030C8B425D
S1132FE002D31212090265D0030B8B4219D300E0FD
S1132FF0090AC30B8B4201D3CB03C01A5241830B82
S11330008B4201D38B03C01A5241430B8B4201D331
S11330104B03C01A5241030B8B4201D30B03C01A5A
S11330205241C30A8B4201D3CB02C01A5241830AD4
S11330308B4201D38B02C01A5241430A8B4201D303
S11330404B02C01A5241030A8B4201D30B02C01A2D
S11330505241CDD2C3098B4201D3CB01C01A524194
S113306083098B4201D38B01C01A524143098B421D
S113307001D34B01C01A524103098B4201D30B0106
S1133080C01A5241C3088B4201D3CB00C01A52412B
S113309083088B4201D38B00C01A524143088B42F0
S11330A001D34B00C01A5241411A00D20146524189
S11330B0104670475DE0CA0F00D04942031000D3A8
S11330C04042534000229C4603098B422DD3030AFD
S11330D08B4212D3FC22890112BA030A8B420CD30D
S11330E0890192118B4208D3890192118B4204D336
S11330F089013AD0921100E08909C3098B4201D3B6
S1133100CB01C01A524183098B4201D38B01C01AEF
S1133110524143098B4201D34B01C01A5241030966
S11331208B4201D30B01C01A5241C3088B4201D315
S1133130CB00C01A524183088B4201D38B00C01AC2
S11331405241D9D243088B4201D34B00C01A524199
S1133150411A00D20146634652415B10104601D326
S11331604042002B00D54942704763465B1000D3B0
S1133170404201B5002000F005F802BD0029F8D056
S113318016E770477047C046002B11D1002A0FD1B3
S1133190002900D1002802D00021C943081C07B42B
S11331A0024802A14018029003BDC046D9FFFFFFA8
S11331B003B4684601B5029800F026F8019B9E46C8
S11331C002B00CBC7047C04670B501F059F900223A
S11331D00B4B0D00040000F085FB01F0CDF9060057
S11331E001F016F90022074B00F07CFB02000B00F3
S11331F02000290000F0F6FD01F0BEF9310070BD99
S11332000000F03D0000F041F0B557464E464546FB
S1133210DE46E0B5040083B00D00924699468B4229
S11332202FD82CD04946504601F09AF929000600BF
S1133230200001F095F9331A9846203B9B4600D5AF
S113324074E053465A4693401F0053464246934007
S11332501E00AF4229D826D05B46A41BBD41002BDB
S113326000DA79E0002200230092019301235A46F8
S113327093400193012342469340009319E0824214
S1133280D0D900220023009201930C9B002B01D083
S11332901C605D600098019903B03CBC904699465F
S11332A0A246AB46F0BDA342D6D900220023009229
S11332B001934346002BE8D0FB0772081A434646A5
S11332C07B080EE0AB4201D1A2420CD8A41A9D4166
S11332D0012024196D410021013E24184D41002E86
S11332E006D0AB42EED9013E24196D41002EF8D12F
S11332F05B460098019900196941002B22DB2B00E1
S11333005A46D3402A004446E2401C005B4615005E
S1133310002B2CDB26009E40330026004746BE408F
S11333203200801A994100900191AEE74246202371
S11333309B1A5246DA40414613004A468A40170017
S11333401F4382E7424620239B1A2A0046469A409E
S11333502300F3401343D5E74246202300219B1A60
S11333600022009101920122DA40019282E7424652
S1133370202326009B1ADE402F00B4469740664661
S11333803B003343C9E7C046F0B557464E46DE46D8
S11333904546E0B544024300C60F83B00F1C640ADF
S11333A01B0EB24653D0FF2B27D08022E400D20458
S11333B014437F22524290469844002399469B46E8
S11333C07D027800FB0F6D0A000E009324D0FF28C5
S11333D046D080230021ED00DB041D437F3847469F
S11333E0381A4F460F43BF00B9463300009A874F3F
S11333F053404A46BA5801939746002C4ED10823AD
S11334009946F7339846FD3B9B467D027800FB0FB7
S11334106D0A000E0093DAD1002D26D1002001217F
S11334203300009A7A4F53404246101A4A460A43E0
S11334309200BA581D009746009B2C009A468B4672
S11334405B46022B31D15346FF21002438E0002C87
S113345017D1042399460023984601339B46AFE7CE
S1133460FF20002D0BD10221DAE7280001F05AF8E1
S1133470431F9D4076235B42181A0021AFE70321C6
S1133480ADE7200001F04EF8431F9C4076235B42D9
S11334901B1A9846002399469B4691E70C239946AC
S11334A0F3339846FC3B9B468AE7032B00D1A5E007
S11334B05546012B00D081E00123002100242B403C
S11334C06402C905600ADB070843184303B03CBC27
S11334D090469946A246AB46F0BD80240023E403FF
S11334E0FF21EDE7FF210024EAE70123591A1B29F4
S11334F066DD019A134000210024E1E78023DB0309
S11335001C4238D01D4251D01C436402640A33006B
S1133510FF21D5E763016C01A3423BD21B260021A6
S1133520013801251F0049005B00002F01DB9C428C
S113353001D81B1B2943013E002EF3D11C00631E3E
S11335409C410C4301007F310029CEDD630704D088
S11335500F232340042B00D00434230103D501009E
S11335602C4B80311C40FE290DDD0123019AFF21E3
S113357013400024A4E78023DB031C436402640A91
S11335803300FF219CE70123019AA401640AC9B214
S1133590134095E71B1B1A260121C2E7009B8B46AB
S11335A09A4600244CE76302E5D500258024E40311
S11335B02C436402640A009BFF2181E70195C1E763
S11335C023002020CB40411A8C40611E8C411C43B7
S11335D0630704D00F232340042B00D00434630179
S11335E005D50123019A01211340002468E7012332
S11335F0019AA401640A1340002161E78023DB03DC
S11336001C436402640A5346FF2159E7A84B000097
S1133610E84B0000FFFFFFF7F8B557464E46454616
S1133620DE46E0B54702460088467F0A360EC40FE0
S1133630002E47D0FF2E24D0FB008027FF041F4319
S1133640002399469A467F3E43465D025800DB0FAD
S11336506D0A000E984643D0FF283BD0EB0080252E
S11336600022ED041D437F383618731C41469B46E7
S11336704B46614013430F2B64D875489B00C358D5
S11336809F46002F42D108239946063BFF269A46BF
S1133690DAE74146022A28D0032A00D1CEE0012AE3
S11336A000D0ACE0114000200022CCB24002D20590
S11336B0400AE407104320433CBC90469946A24686
S11336C0AB46F8BD002F15D104239946033B0026D1
S11336D09A46B9E7FF200222002DC5D00322C3E792
S11336E0002D19D100200122BEE70124FF220C4045
S11336F00020DBE7380000F015FF7626431F9F40CB
S113370000237642361A99469A469DE70C23994639
S1133710093BFF269A4697E7280000F003FF431F62
S11337209D4076235B42181A00229DE780200024E6
S1133730C003FF22BAE73D005246ABE73D0021003B
S11337405246A7E73B0C9C462A04120C2B0C14008F
S1133750604665463F043F0C7C4342435D437B43E4
S1133760270C9B18FF18BA4203D980235B029C469E
S1133770654424043A04240C121993015C1EA341E9
S11337803F0C920E7D191A43AD0115432B0104D54C
S113379001235E466A081D40154332007F32002A29
S11337A025DD6B0704D00F232B40042B00D00435F8
S11337B02B0103D53200274B80321D40FE2A94DCB6
S11337C00124A801400AD2B20C406FE78020C00354
S11337D0074207D0054205D128434002400A444627
S11337E0FF2263E738434002400AFF225EE70124D8
S11337F0A31A1B2B05DD0C400022002056E75E4671
S1133800CBE72A002020DA40C31A9D402B005D1E1E
S1133810AB4113435A0704D00F221A40042A00D0A4
S113382004335A0104D5012401220C4000203DE751
S113383001249B01580A0C40002237E78020012410
S1133840C00328434002400A0C40FF222EE7C04632
S1133850284C0000FFFFFFF710B5041E27D000F02E
S113386061FE9E231B1A962B0ADC9622D21A9440E0
S11338706402640ADBB26402DB05600A184310BD0B
S1133880992B17DC9922D21A002A27DD94402200B2
S1133890134C1440510704D00F210A40042A00D0CD
S11338A00434620112D4A401640ADBB2E3E7002306
S11338B00024E0E7B9222100D21A91400A00511EE7
S11338C08A410521091ACC401443DBE7044B1C4010
S11338D09F23A4011B1A640ADBB2CCE72200D7E7BA
S11338E0FFFFFFFBF0B557464546DE464E46E0B5C2
S11338F00C0398464E00230B87B0070092469B4664
S1133900760DCD0F002E6BD06D4B9E4235D08024AA
S11339105B46420F2404DB0014431C43C300994656
S1133920684BA3469C460023002766440293434603
S11339301C035A00DB0F5046240B520D984600D14D
S113394076E05F4B9A426DD08023410F1B040B43FA
S11339505C49E4008C461C43C30000206244414699
S1133960B6186940721C0191944607430F2F00D981
S1133970B0E0554ABF00D25997465B460343994687
S113398000D087E000239B46023308270293CEE74A
S113399042460192022867D0032800D10EE2012892
S11339A000D062E1002300240022994601990140DD
S11339B0CDB2002112030B0D120B1B051343434A16
S11339C0240513401C436400ED0764082C43484657
S11339D0210007B03CBC90469946A246AB46F0BDD8
S11339E0034399464FD05B46002B00D189E15846EA
S11339F000F098FD03000B3B1C2B00DD7AE11D2237
S1133A00D31A3A0001005C46DA4008398C401300AE
S1133A108F4023439B46B94600232D4E0027361A78
S1133A20029384E7534623432AD10024022096E7D5
S1133A305346234320D0002C00D157E1200000F04E
S1133A4071FD03000B3B1C2B00DD49E11D21CB1A4A
S1133A5051460200D9405346083A944093400C43DF
S1133A601B4A121A00207AE70125019B144C1D40C1
S1133A700023002299469CE70024002201206EE7DF
S1133A80534603206BE700239B460133042700269B
S1133A9002934CE7032381460C27029347E78022D5
S1133AA00023002512039946054C82E75C464B46E9
S1133AB002986FE75C464B46019502986AE7C04658
S1133AC0FF07000001FCFFFF684C0000FFFF0F80B0
S1133AD00DFCFFFF4A464946170C1A0C1B041B0C2D
S1133AE008041900000C41431500884619007D4361
S1133AF07943039589462900150045434D440295B1
S1133B0045462D0CAA46029D5544A94506D98A4628
S1133B10802149028946CA4451460391290C0491E3
S1133B20414609042D04090C88462900250C240467
S1133B304144240C059121004143884621007943E6
S1133B408A466843414650448146080C48446F43C2
S1133B50824503D98021490289464F44010C894694
S1133B6039004944029141460F0404993F0C8846A8
S1133B700004C01980444146049159460F0C0904BD
S1133B80090C884659438A463900514389464146BF
S1133B904A435146090C8B467B43D2185A449342FC
S1133BA003D980235B029B46D94451460904090C7E
S1133BB08A46414661437C43130C12044B445244ED
S1133BC0A1468A463C0041466C434D4351464D4410
S1133BD00F0C7D19A94503D9802149028846444424
S1133BE0049F0399B84641448B4683458041414232
S1133BF08846514608042F04000C3F185846029981
S1133C0010188946904292414F44BA46524299460E
S1133C109346C244D144CB448F42BF41C2458941FB
S1133C2099459B41934592417F4249422D0C524212
S1133C300F435B4213437F19FF185B463C19DB0DAE
S1133C40059A64021C43430213435D1EAB415A466A
S1133C50C00D034352021343E20156D501205A0812
S1133C6003401343E207134364085A48604400289E
S1133C704DDD5A0709D00F221A40042A05D01A1D17
S1133C809A429B415B42E4181300E20104D5802070
S1133C90514AC00014406044504A904200DDE3E6BB
S1133CA00125DB0862071A436402019B9146220B3B
S1133CB04405640D1D407CE68022594612031142DE
S1133CC008D0144206D122431203120B45469946EA
S1133CD0434C6EE65B461A431203120B404C68E6F3
S1133CE003005446283B9C400023B9E600F01AFC2C
S1133CF02030A6E60300283B9F400023BB4699469C
S1133D008AE600F00FFC203074E6B446ADE70125E6
S1133D102A1A382A06DD019B00241D4000230022B4
S1133D20994646E61F2A21DC20252000AD1A1E00F4
S1133D30AB40A840D6405D1EAB4130431843D4404D
S1133D40430709D00F230340042B05D00300181D9B
S1133D5098429B415B42E418230221D50125019B33
S1133D6001241D4000230022994622E61F2521003C
S1133D706D42281AC1400800202A1DD05F35AA1AB6
S1133D80944023435C1EA341072503431D400022A6
S1133D90002D09D00F2200241A401800042AD6D17D
S1133DA0030065076402220BDB082B4301259946B7
S1133DB0019B00241D40FCE50024E2E7802201254C
S1133DC01203224301991203120B0D409946044C2D
S1133DD0EFE5C046FF030000FFFFFFFEFE07000003
S1133DE0FF070000F0B54646D6464F460C03C0B563
S1133DF0CD0F4E00610A440F0C43C1005800400D22
S1133E0084468A460F001903500F490A0143C648E5
S1133E10760DA846DB0FD200844500D1D8E00120FE
S1133E204340AB4200D1A6E06046351A002D00DCC9
S1133E3005E1002810D10B00134300D1D7E06B1E1D
S1133E40002B00D04BE153469F1ABA458041641AB7
S1133E504042241A01261EE0B34B9E4248D08023E0
S1133E601B041943382D00DD19E11F2D00DD4CE141
S1133E7020230F005B1B10009A409F40E840531E14
S1133E809A41E940074317435346DF1B611ABA4579
S1133E90A44164420C1B230200D4C5E06402650AF9
S1133EA0002D00D1F6E0280000F03CFB0300083BA5
S1133EB01F2B00DDE9E020223C00D21A9D40D440B3
S1133EC09F4025439E4200DDDBE09E1B731C1F2B9D
S1133ED000DD0AE120223800D21A290097402C0084
S1133EE09140D8407A1E9741DC40002601430F439D
S1133EF07B0709D00F233B40042B05D03B1DBB425D
S1133F00BF417F42E4191F00230225D5864B0136A9
S1133F109E4200D1AFE0854B01251C404346620719
S1133F20FF08640276051743240B760D1D4000211B
S1133F302403230B0C0D7E4A24051C431440330533
S1133F4023435B00ED075B082B43380019001CBCBE
S1133F5090469946A246F0BD012543466207FF08F4
S1133F601743E4081D40704B9E4236D02403760567
S1133F70240B760DDBE76346F31A002B00DC94E098
S1133F806046002835D068488642B1D080273F0477
S1133F903943382B00DCFDE00A43170000217A1E68
S1133FA09741574457458041091944420C1923024B
S1133FB03AD55D4B01369E4200D14BE101225B4B69
S1133FC01C407B0817401F43E207174364088FE730
S1133FD00800104300D024E721E723003B4300D12D
S1133FE0B9E18022120314432403240B9FE72E001B
S1133FF07EE70800104300D1CAE0581E844600281A
S113400000D0E7E0524452458041641840422418ED
S113401017000126230207D50226CFE764462C4366
S113402000D1B3E12C0067467B0700D062E7630749
S1134030FF081F4301254346E4081D4093E7002D74
S113404078D1751C6D056D0D012D00DCF2E0504634
S1134050801A8245BF41651A7F42ED1B84462802BF
S113406000D48CE05046171ABA4292410C1B5542B8
S1134070651B984614E70125434600241D4000278C
S113408055E72A4CF61A2C4032E73D002838854083
S1134090002717E7380000F045FA203006E70A4306
S11340A0170000217A1E9741EEE6002B00D0E5E0D0
S11340B0731C9C465B055B0D012B00DC9FE01A4BD7
S11340C09C4500D1C5E052445245804164184042A9
S11340D02418E707520817436408664608E712489D
S11340E0854200D185E01D00BCE629001F3EF14059
S11340F0202B00D17FE04022D31A9D402F437D1E08
S1134100AF4100240F4300268EE72B000F00203B15
S1134110DF40202D71D040235D1BA9400A43511E6E
S11341208A4100211743AFE6FF070000FFFF7FFF2E
S1134130FFFF0F80002E3ED0B34EB44545D08026FD
S113414036046D423443382D00DDA8E01F2D00DD18
S11341501FE1202627005046761BB740E84007435E
S11341605046B040461EB041EC403843171ABA429C
S113417092410C1B5242A41A664698468BE664464A
S113418067462C4300D08BE6002500260027EAE68C
S11341901E00ADE61F2B60DC2027F81A0F008446B2
S11341A087401000D840074360468240501E824139
S11341B0D9401743F5E626005046064305D0ED43A3
S11341C0002DD3D0904EB445BDD10C0017006646E7
S11341D098468DE68C4883420BD06346D9E6002D81
S11341E000D096E00800104300D1E2E00C00170074
S11341F09846854E7CE6002580E700218EE7230063
S113420050460343002E00D0A8E0002B00D1DEE08E
S11342100B00134300D16BE65244524580416418AD
S1134220404224181700230200D4FDE6774B66466B
S11342301C405DE6250050460543002ECFD1002DDD
S11342404FD10C00144300D1A0E00C001700984695
S11342504EE666460024002785E61F000800203F3E
S1134260F8400700202B00D18EE04020C31A99406B
S11342700A43511E8A410021174392E6002E14D1AD
S113428026005046064362D0DB43002B5CD18718DE
S11342909742924164185242A418664687E65046F3
S11342A02043441EA041002460E7574EB4454ED03D
S11342B0802636045B423443382B00DD7FE01F2B1D
S11342C000DD8BE0202627005046F61AB740D84080
S11342D007435046B040461EB0410743DC40BF1878
S11342E0D6E70D00154300D102E65046801A8245F8
S11342F0BF41651A7F42ED1B8446280200D48DE637
S11343005046171ABA4292410C1B5242A41A9846BC
S1134310EEE50D00154300D16BE750466707C00872
S113432007438020E4080003044207D0CD08054277
S113433004D12C009846D70849070F437B0FE400AB
S11343401C43FF00304ED3E52F4EB445B4D10C00CE
S113435017006646CCE500270024E8E5002B39D099
S11343600B00134300D144E7C008670707438020CC
S1134370E40800030442E1D0CB080342DED1D708AD
S113438049070F431C00D9E7002171E700250027E6
S1134390E9E52E002700203EF740202D2FD04026AF
S11343A0751BAC4050462043441EA04100243843B2
S11343B0DCE6802400252403134E0027D3E5504671
S11343C020430700781E87410024BF1860E70C00D3
S11343D017008DE50C0017000B4E89E51E00270021
S11343E0203EF740202B0CD04026F31A9C40504628
S11343F02043441EA04107430024BF1848E700247B
S1134400D0E70024F3E7C046FF070000FFFF7FFF6B
S113441010B5041E28D000F085F8154B154A1B1A58
S1134420D21A1F2A15DD144AD21A944000222403FA
S11344305B05240B5B0D0021100024030A0D240BE3
S1134440120522430D4C1B05224013435B005908FF
S113445010BD210091400A000B21081AC4405B05DD
S11344602403240B5B0DE6E7002300240022E2E78B
S11344701E0400003304000013040000FFFF0F803B
S11344804100090E4B1C70B5DBB24602750AC40F1D
S1134490012B14DDE0239B006D07360BCB180021A4
S11344A00A0D280012051C4D32435B052A405B08A7
S11344B013435B00E4075B082343190070BD002924
S11344C014D1002D1ED0280000F02CF80A281CDC82
S11344D00B232A001B1ADA40030015339D400F4BAF
S11344E012031B1A5B05160B5B0DD8E7002D06D0D3
S11344F0320B802636036D071643094BCFE7084B72
S11345000026CCE700230026C9E703002A000B3B62
S11345109A400025E3E7C046FFFF0F8089030000AF
S1134520FF0700001C2101231B04984201D3000C47
S113453010391B0A984201D3000A08391B09984212
S113454001D30009043902A2105C40187047C04628
S11345500403020201010101000000000000000048
S113456010B5002903D1FFF7DDFF203002E0081C5D
S1134570FFF7D8FF10BDC04670B500220C4B0400F5
S11345800D0000F07FF8002804D12000290000F07D
S113459011F870BD064B002220002900FFF722FC11
S11345A000F008F880231B069C466044F1E7C046EF
S11345B00000E04130B5134D0A034B00120B5B0DB4
S11345C0C90F0024AB4210DD0F4CA3420FDC802442
S11345D00E4D64032243ED1A1F2D0BDD0C48C31A44
S11345E0DA405442002900D11400200030BD094BA8
S11345F0CC18FAE7084CE840A44663449A400243C6
S1134600EFE7C046FE0300001D0400003304000071
S113461013040000FFFFFF7FEDFBFFFF8446101C27
S113462062468C46191C634600E0C0461FB500F084
S1134630D1F8002801D40021C8421FBD10B500F0F4
S11346402BF84042013010BD10B500F0C3F800282B
S113465001DB002010BD012010BDC04610B500F0E4
S1134660B9F8002801DD002010BD012010BDC046AE
S113467010B500F04BF8002801DC002010BD01202B
S113468010BDC04610B500F041F8002801DA002042
S113469010BD012010BDC046F0B54F464646D64673
S11346A05C00C0B51F03DB0F9A46174B0E034D0089
S11346B084468046360B6D0DC90F91463F0B640D41
S11346C001209D4208D09C4201D0A5420BD01CBCC5
S11346D090469946A246F0BD63463343F7D1AC42B7
S11346E0F5D13A43F3D10120BE42F0D1C845EED111
S11346F0514507D0002DEAD163461E433000461EC3
S1134700B041E4E70020E2E7FF070000F0B54546CA
S1134710DE4657464E46E0B51F033D0B2C4F0E03B5
S11347204C00AB465D008446360B640DC90F9046C1
S11347306D0DDB0FBC422AD0254FBD422DD0002C7D
S11347400FD130430700814678427841C0B2002D32
S113475017D15F463A4314D14B460020002B0AD0B0
S113476006E0002D02D15846024301D0994218D0E8
S11347704842012108433CBC90469946A246AB46B8
S1134780F0BD0028F2D00120013B1843F3E73700C5
S11347900743D1D002204042EDE75F461743CED015
S11347A0F8E7AC42E4DC03DA481E01210843E2E7FF
S11347B05E45DDD806D000205E45DCD20123481ECC
S11347C01843D8E7C445D3D80020C445F6D3D2E76C
S11347D0FF070000F0B54E464546DE4657465C00EE
S11347E0E0B51F03DB0F99462A4B0E034D00C90F9A
S11347F08446360B6D0D8B4690463F0B640D9D42EF
S113480020D0244B9C4222D0002D12D1304343426D
S11348104341DBB2002C1FD0002B0CD04B460120AF
S1134820013B034318003CBC90469946A246AB4664
S1134830F0BD002C16D0CB4517D05B46594201235E
S11348400B43EFE7310002230143EBD1D9E73900F1
S113485002231143E6D1D7E73A43DDD100230028F0
S1134860E0D0EAE73A43E6D1E7E7A542E5DC05DB39
S1134870BE42E2D807D00023BE42D3D25946012318
S113488001390B43CEE7C445D7D80023C445F5D33B
S1134890C8E7C046FF07000070B50D4E0D4D00245B
S11348A0AD1BAD1005D0A300F35801349847A542C1
S11348B0F9D100F0FBF9084E084D0024AD1BAD10F2
S11348C005D0A300F35801349847A542F9D170BD2F
S11348D0B84C0000B84C0000B84C0000C04C0000BC
S11348E0F0B505000F2A2FD90B0003439B0734D1E1
S11348F016000C000300103E350901352D01451941
S113490027681F6067685F60A7689F60E768103466
S1134910DF6010339D42F3D10F239E431036851977
S113492089191340032B1AD91E1F0023B40801341C
S1134930A400CF58EF500433A342FAD10324A64372
S1134940331D2240C918ED18002A05D00023CC5C81
S1134950EC5401339342FAD1F0BD0500F6E71A0096
S1134960F2E7C046F0B5830743D0541E002A3FD077
S1134970CEB20200032502E01A00013C38D3531CD6
S113498016702B42F8D1032C2AD9FF220A401502B3
S113499015432A0415430F2C14D927001A00103F7D
S11349A03E09013636019E19156055609560D56043
S11349B010329642F8D10F2297431037DB19144076
S11349C0032C0DD91A00271FBE080136B6009E1904
S11349D020C2B242FCD1032297430437DB191440AE
S11349E0002C05D0C9B21C19197001339C42FBD1AB
S11349F0F0BD14000300C6E7034B10B5002B02D032
S1134A00024800F005F810BD00000000214A000033
S1134A1010B5010000230022002000F01FF810BD93
S1134A2070B5094B094CE41AA41009D0084AA5181A
S1134A30AD00ED182B68013C9847043D002CF9D1DA
S1134A4000F03EF970BDC046CC4C0000D04C0000D4
S1134A50FFFFFF3F7047C0467047C046F0B54E4663
S1134A604546DE465746E0B5364D83B00600286815
S1134A7098460F009146FFF7EDFF334B1C68A423C3
S1134A805B00E058002852D043681F2B13DC5A1CEB
S1134A900192002E28D1019A02339B0042601F50DC
S1134AA02868FFF7D9FF002003B03CBC9046994624
S1134AB0A246AB46F0BD254B002B3DD0C82040009C
S1134AC000E000BF002837D0A42200235200A158E0
S1134AD043600160A050403283500432835001335C
S1134AE001930023002ED6D09A00924682444A466F
S1134AF0882154466250C4225200914681444A4659
S1134B008739994012688B460A4394464A4661465F
S1134B101160842241465200A150022EBBD10200F2
S1134B205C468D32FF3211680C431460B3E72000F9
S1134B304D30FF30E050A7E72868FFF78DFF0120D4
S1134B404042B1E7D80E0020A84C0000000000004D
S1134B5096130000BC130000E41300000C140000C2
S1134B603414000090140000B6140000DE14000099
S1134B70061500002E15000048656C6C6F207468E3
S1134B806572650014131F121120290F10252300CC
S1134B904A2200004E220000522200005622000049
S1134BA05A2200005E22000014350000E4340000A4
S1134BB0F634000038340000F6340000DA34000023
S1134BC0F634000038340000E4340000E43400001B
S1134BD0DA3400003834000040340000403400006F
S1134BE040340000FC340000E4340000E4340000ED
S1134BF0B83400009C350000B8340000DA340000FA
S1134C00B83400009C350000E4340000E4340000B3
S1134C10DA3400009C3500004034000040340000C9
S1134C2040340000A63500004437000094360000EC
S1134C309436000092360000363700003637000004
S1134C402C37000092360000363700002C37000065
S1134C5036370000923600003C3700003C37000035
S1134C603C370000CC370000D43A000094390000EF
S1134C709439000090390000AC3A0000AC3A0000CE
S1134C809E3A000090390000AC3A00009E3A0000C1
S1134C90AC3A000090390000B43A0000B43A000085
S1134CA0B43A0000B83C0000B00A0020F8B5C04691
S1134CB0F8BC08BC9E467047F9490000DD000000BE
S1134CC0F8B5C046F8BC08BC9E467047B500000065
S10B4CD038E5FF7F010000003C
S1134CD81F010200000000000000000000000000A6
S1134CE8000000001501000000000000150100008C
S1134CF8000000001501000000000000150100007C
S1134D080000000015010000000000000000000081
S1134D18280100000000000000000000000000005E
S1134D28000000001501000000000000150100004B
S1134D38000000001501000000000000150100003B
S1134D480000000015010000000000000000000041
S1134D58290100000000000000000000000000001D
S1134D68000000001501000000000000150100000B
S1134D7800000000150100000000000015010000FB
S1134D880000000015010000000000000000000001
S1134D9813010000000000000000000000000000F3
S1134DA800000000150100000000000015010000CB
S1134DB800000000150100000000000015010000BB
S1134DC800000000150100000000000000000000C1
S1134DD820010000000000000000000000000000A6
S1134DE8000000001501000000000000150100008B
S1134DF8000000001501000000000000150100007B
S1134E080000000015010000000000000000000080
S1134E180500000000000000000000000000000081
S1134E280000000000000000000000000000000076
S1134E38E30700000100000000000000000000007B
S1134E480000000000000000000000000000000056
S1134E580000000000000000000000000000000046
S1134E6800000000000000004E780000000100006F
S1134E787E306D79335B5F707F7B0000000000003B
S1134E8800777F4E7E4F475E37303C370E55157E90
S1134E986773775B463E2737253B6D01020304059C
S1134EA8067D1F0D3D6F477B171038170655151DD6
S1134EB86773055B0F1C232B25336D00000000006E
S1134EC81F010200000000000000000000000000B4
S1134ED800000000E105000000000000E1050000FA
S1134EE800000000E105000000000000E1050000EA
S1134EF800000000E10500000000000000000000C0
S1134F08280100000000000000000000000000006C
S1134F1800000000E105000000000000E1050000B9
S1134F2800000000E105000000000000E1050000A9
S1134F3800000000E105000000000000000000007F
S1134F48290100000000000000000000000000002B
S1134F5800000000E105000000000000E105000079
S1134F6800000000E105000000000000E105000069
S1134F7800000000E105000000000000000000003F
S1134F881301000000000000000000000000000001
S1134F9800000000E105000000000000E105000039
S1134FA800000000E105000000000000E105000029
S1134FB800000000E10500000000000000000000FF
S1134FC820010000000000000000000000000000B4
S1134FD800000000E105000000000000E1050000F9
S1134FE800000000E105000000000000E1050000E9
S1134FF800000000E10500000000000000000000BF
S1135008050000000000000000000000000000008F
S11350180000000000000000000000000000000084
S1135028E307000001000000000000000000000089
S11350381F01020000000000000000000000000042
S11350480000000011110000000000001111000010
S11350580000000011110000000000001111000000
S11350680000000011110000000000000000000012
S113507828010000000000000000000000000000FB
S113508800000000111100000000000011110000D0
S113509800000000111100000000000011110000C0
S11350A800000000111100000000000000000000D2
S11350B829010000000000000000000000000000BA
S11350C80000000011110000000000001111000090
S11350D80000000011110000000000001111000080
S11350E80000000011110000000000000000000092
S11350F81301000000000000000000000000000090
S1135108000000001111000000000000111100004F
S1135118000000001111000000000000111100003F
S11351280000000011110000000000000000000051
S11351382001000000000000000000000000000042
S1135148000000001111000000000000111100000F
S113515800000000111100000000000011110000FF
S11351680000000011110000000000000000000011
S1135178050000000000000000000000000000001E
S11351880000000000000000000000000000000013
S1135198E307000001000000000000000000000018
S11351A801040400020500030601040606040200C3
S11351B81F010200000000000000000000000000C1
S11351C800000000CD12000000000000CD12000015
S11351D800000000CD12000000000000CD12000005
S11351E800000000CD1200000000000000000000D4
S11351F8280100000000000000000000000000007A
S113520800000000CD12000000000000CD120000D4
S113521800000000CD12000000000000CD120000C4
S113522800000000CD120000000000000000000093
S11352382901000000000000000000000000000038
S113524800000000CD12000000000000CD12000094
S113525800000000CD12000000000000CD12000084
S113526800000000CD120000000000000000000053
S1135278130100000000000000000000000000000E
S113528800000000CD12000000000000CD12000054
S113529800000000CD12000000000000CD12000044
S11352A800000000CD120000000000000000000013
S11352B820010000000000000000000000000000C1
S11352C800000000CD12000000000000CD12000014
S11352D800000000CD12000000000000CD12000004
S11352E800000000CD1200000000000000000000D3
S11352F8050000000000000000000000000000009D
S11353080000000000000000000000000000000091
S1135318E307000001000000000000000000000096
S113532840420F00000000001F01020000000000BE
S113533800000000000000000000000085160000C6
S1135348000000008516000000000000851600001B
S1135358000000008516000000000000851600000B
S11353680000000000000000280100000000000008
S11353780000000000000000000000008516000086
S113538800000000851600000000000085160000DB
S113539800000000851600000000000085160000CB
S11353A800000000000000002901000000000000C7
S11353B80000000000000000000000008516000046
S11353C8000000008516000000000000851600009B
S11353D8000000008516000000000000851600008B
S11353E8000000000000000013010000000000009D
S11353F80000000000000000000000008516000006
S1135408000000008516000000000000851600005A
S1135418000000008516000000000000851600004A
S1135428000000000000000020010000000000004F
S113543800000000000000000000000085160000C5
S1135448000000008516000000000000851600001A
S1135458000000008516000000000000851600000A
S1135468000000000000000005000000000000002B
S11354780000000000000000000000000000000020
S11354880000000000000000E30700000100000025
S11354980000000000000000AA5500000000000001
S11354A800010100C80700200200000001000000FC
S11354B801000100010000000000000000000000DD
S11354C801000000000000000000000000000000CF
S11354D8000000000000000001000000D0070020C8
S11354E80000000000000000380F00200000000049
S11354F8000000000201000001000000010001009A
S1135508000000000000000000000000000000008F
S11355180000000000000000010000003C0F002013
S11355280000000000000000020100000400000068
S11355380800040000000000000000000000000053
S1135548000000000000000000000000A517000093
S113555800000000000000007C08002091180000F2
S113556800000000000000008C0800200000FFFF7D
S113557801000001FFFF01010002FFFFFFFF00031C
S1135588FFFFFFFF0104FFFFFFFF0105FFFFFFFF10
S1135598FFFFFFFFFFFFFFFFFFFFFFFF0106FFFF06
S11355A8FFFF0107FFFFFFFF0108FFFF04000109D8
S11355B8FFFF04010004FFFF00000005FFFF0001D6
S11355C80006FFFF00020007FFFF000300080000B9
S11355D80200000900010201000A00020202000B95
S11355E800030203FFFFFFFFFFFFFFFFFFFFFFFFB3
S11355F8010AFFFF0402010BFFFF0403010C04006E
S1135608FFFF010D0401FFFF010E0402FFFF010F5C
S11356180403FFFF000C02000400000D0201040152
S1135628000E02020402000F02030403FFFFFFFF3F
S1135638FFFFFFFFFFFFFFFF001001000300001141
S11356480101030100120102030200130103030311
S113565801100500FFFF01110501FFFF00140502F9
S113566803020015050303030016030005000017D1
S113567803010501001803020502001903030503C9
S1135688FFFFFFFFFFFFFFFFFFFFFFFF0116FFFF05
S113569805020117FFFF0503001BFFFFFFFFFFFFC4
S11356A8FFFFFFFF001CFFFFFFFFFFFFFFFFFFFFE0
S11356B8FFFFFFFFFFFFFFFFFFFFFFFF001EFFFFCE
S11356C80102001FFFFF0103011EFFFF0500011F68
S11356D8FFFF05010100FFFF05020101FFFF0503AC
S11356E80102FFFF05000103FFFF05010001FFFFA1
S11356F8000203FFFF0100FF020302FFFFFFFF0395
S1135708111323251D1F2B2D191B2729FFFFFFFF0D
S1135718FFFFFFFFFFFFFFFF712D0000712D000049
S1135728712D0000712D0000712D0000712D0000F5
S1135738712D0000712D0000ED2D0000ED2D0000ED
S1135748ED2D0000352E0000352E0000352E00000A
S1135758352E0000352E0000352E0000352E0000B1
S1135768352E0000352E0000352E0000352E0000A1
S1135778352E0000352E0000352E0000352E000091
S1135788000000009C0D0020040E00206C0E002078
S113579800000000000000000000000000000000FD
S11357A800000000000000000000000000000000ED
S11357B800000000000000000000000000000000DD
S11357C800000000000000000000000000000000CD
S11357D800000000000000000000000000000000BD
S11357E800000000000000000000000000000000AD
S11357F8000000000000000000000000000000009D
S1135808000000000000000000000000000000008C
S1135818000000000000000000000000000000007C
S1135828000000000000000001000000000000006B
S11358380E33CDAB34126DE6ECDE05000B00000030
S1135848000000000000000000000000000000004C
S1135858000000000000000000000000000000003C
S1135868000000000000000000000000000000002C
S1135878000000000000000000000000000000001C
S10F5BA80000000000000000500F00206E
S9030000FC
